:10000000F01F00103901000089050000890500007B
:1000100089050000890500008905000089050000A8
:100020008905000089050000890500008905000098
:100030008905000089050000890500008905000088
:100040008905000089050000890500008905000078
:100050008905000089050000890500008905000068
:100060008905000089050000890500008905000058
:100070008905000089050000890500008905000048
:100080008905000089050000890500008905000038
:100090008905000089050000890500008905000028
:1000A0008905000089050000890500008905000018
:1000B0008905000089050000890500008905000008
:1000C0001C060000000000100000000000000010EE
:1000D0000400000010B5002302E010C810C1043372
:1000E0009342FAD310BD002302E0002204C004337F
:1000F0008B42FAD3704710B50C4B07E0186859686B
:100100001C000C349A68FFF7E5FF2300084A93426D
:10011000F4D306E018681C0008345968FFF7E3FFC1
:100120002300044A9342F5D310BDC046C00000002E
:10013000CC000000D400000010B5FFF7DCFF00F099
:1001400027FA00BE00F014FA10B500F015F8FA20F6
:10015000800000F039F901220121064800F0A4F9DD
:10016000032000F059F9012000F0EEF8FA2000F029
:100170002BF9F8E70040044010B5324C200000F0A5
:1001800086F9A020C00500F07DF910220021200092
:1001900000F08AF908220121200000F085F90822E8
:1001A0000221200000F080F908220321200000F045
:1001B0007BF908220421200000F076F908220521AD
:1001C000200000F071F908220621200000F06CF9EF
:1001D00008220721200000F067F9082208212000EA
:1001E00000F062F910220921200000F05DF9164BA1
:1001F0001B68164A934202D0154A934216D1114CFD
:1002000008220A21200000F04FF908220B212000CB
:1002100000F04AF90F4800F085F90F4800F004F9A2
:100220000E4800F069F900F06BF810BD054C0A2289
:100230000A21200000F038F90A220B21200000F0EA
:1002400033F9E7E7004004401806000021436587C2
:100250006587214300400540004003400080054081
:10026000F0B50023002B00DDF0BD02001A41D207DB
:1002700016D50C4C9A00175DA41866780A001A412E
:1002800001252A40A478121B54426241D2B23C0498
:10029000A027FF05BC466444B540B240AD002A51DA
:1002A0000133DFE71406000070B5020000230020D0
:1002B000002B00DD70BD11001941C90715D50C498F
:1002C0009D006C5C49194E782404A025ED05AC46D0
:1002D00064440125B540AD002C59651EAC418978B8
:1002E000091B4C426141994008430133E0E7C04695
:1002F0001406000010B50021FFF7B2FF10BDFFFF8C
:1003000070B50024002C03DD0120FFF7F3FF70BD62
:10031000002207210A4800F0C7F80A4AA1008B5CB6
:10032000521855781B04A022D205944663448020BD
:1003300000021A580121A9400A431A500134E1E78A
:10034000004004401406000010B50400FFF7ACFFA5
:10035000C1432000FFF784FF10BDFFFF034B1A6A63
:100360005208072313400120984070470080044042
:1003700010B5FFF7F3FF0100014800F00DF910BDC3
:1003800000127A0010B5041E18D00D4B984200D907
:1003900000BEFFF7EDFF01000A4800F0FDF8010084
:1003A00063011B1B9B001B19D80000F0F8F8E13813
:1003B000FF3802B4011C0339FDDC02BC10BDC0468D
:1003C00000093D0000CA9A3B10B5040005E0094849
:1003D000FFF7D8FF084B9C466444FA231B019C425C
:1003E000F5DC6001001B80000019C000FFF7CAFFA8
:1003F00010BDC04600093D0060F0FFFF10B5044984
:1004000080228B58034C204003438B5010BDC046C4
:1004100000800440FCBF1D00072303400149E8227F
:100420008B5070470080044010B5C0204003FFF798
:10043000E5FF042000F07CF8082000F08DF864202F
:10044000FFF7A0FF042000F07DF8FFF791FF094BB4
:100450009C466044084900F09FF80138002806DDFA
:10046000064B5861064B012252421A6010BD012012
:10047000F6E7C046D7B80500D8B8050000400340ED
:100480004400001010B54020FFF7B8FF10BD10B5B4
:100490008020C002FFF7B2FF10BD802283580901FF
:1004A00009098B438350704770B506000D00140096
:1004B0000B2901D9012A04D02402240AAD00AC5131
:1004C00070BD0B000C3B01219940FFF7E6FFF3E7FD
:1004D000C905C90D8161704710B5C36908221A406A
:1004E000044C236813432360C905C90D416241626E
:1004F00010BDC0460000001070B5040080235B00F2
:10050000FE22C250054D00212800FFF7E1FF0449FB
:100510002800FFF7E1FF0023236070BD0080054045
:10052000FF01000010B58020C000FFF767FF10BD7D
:1005300003494B680F22024093434B607047C0460B
:100540000080044003494B680F22024013434B6074
:100550007047C0460080044010B5044C8E218900CD
:1005600063583F2202409343635010BD0080044013
:10057000BFF34F8F024B034ADA60BFF34F8FFEE7A2
:1005800000ED00E00400FA0510B500BEFFF7F0FF33
:1005900010B5FFF7D9FD10BD03000B4321D400298E
:1005A00031D00122D207030901E009011209994261
:1005B000FBD9430801E0490052089942FBD900E009
:1005C0004908401A07D35241FAD3014610467047F2
:1005D00049084018F7D29218FAD34018014610463D
:1005E0007047CB0F00D04942021000D54042534023
:1005F00008B5FFF7D4FF0CBC521000D34042002ACC
:1006000000D549421847F446002000F001F8604741
:080610007047FFFF000701071E
:04061800FFFFFFFFE2
:0400000300000139BF
:00000001FF
