:10000000F01F001029010000C1040000C10400001D
:10001000C1040000C1040000C1040000C1040000CC
:10002000C1040000C1040000C1040000C1040000BC
:10003000C1040000C1040000C1040000C1040000AC
:10004000C1040000C1040000C1040000C10400009C
:10005000C1040000C1040000C1040000C10400008C
:10006000C1040000C1040000C1040000C10400007C
:10007000C1040000C1040000C1040000C10400006C
:10008000C1040000C1040000C1040000C10400005C
:10009000C1040000C1040000C1040000C10400004C
:1000A000C1040000C1040000C1040000C10400003C
:1000B000C1040000C1040000C1040000C10400002C
:1000C00060050000000000100000000000000010AB
:1000D00004000000F0B5114B11498B4204D30020FD
:1000E00010498B420ED3F0BD00221D685F689868EE
:1000F000BE18AC18904201D80C33EEE724680432E5
:100100003460F5E700221E685C68B518944201D897
:100110000833E6E728600432F7E7C046C000000075
:10012000CC000000D400000010B5FFF7D3FF00F0B2
:10013000D3F9BFF34F8F034B034ADA60BFF34F8FFE
:10014000FEE7C04600ED00E00400FA0510B500F03F
:1001500015F8FA20800000F0EFF80122064811009F
:1001600000F052F9032000F009F9012000F0A6F890
:10017000FA2000F0E1F8F8E70040044010B52F48FD
:1001800000F035F9A020C00500F02CF91022002164
:100190002A4800F039F908220121284800F034F9F2
:1001A00008220221254800F02FF9082203212348C4
:1001B00000F02AF908220421204800F025F908223D
:1001C00005211E4800F020F9082206211B4800F0F6
:1001D0001BF908220721194800F016F908221748D0
:1001E000110000F011F910220921144800F00CF957
:1001F000134B144A1B68934202D0134A934215D101
:1002000008220A210D4800F0FFF808220B210B48B4
:1002100000F0FAF80D4800F02DF90D4800F0B6F89E
:100220000C4800F015F900F035F810BD0A2203481B
:10023000110000F0E9F80A22E8E7C0460040044057
:100240005C05000021436587658721430040054028
:100250000040034000800540C30707D5FF23A022CC
:10026000C90119400233D205FF33D1507047012232
:1002700003001340104206D0A0228023D2059B0029
:10028000D3585A1E93411800704710B50021FFF74C
:10029000E3FF10BD10B500220721074800F0B4F8B5
:1002A000A02180228023C9051202885803438B5065
:1002B0000120FFF7EAFF10BD0040044010B5040024
:1002C000FFF7D5FFC1432000FFF7C6FF10BDFFFFBA
:1002D0000120034B1B6A1B075B0F98407047C04609
:1002E0000080044010B5FFF7F3FF0100014800F063
:1002F000F7F810BD00127A0070B50500FFF7F2FFA5
:10030000FA240100084800F0EBF8A4006C43010057
:10031000200000F0E8F802B4E138FF38011C03398E
:10032000FDDC02BC70BDC04600CA9A3B10B5002877
:1003300001D0FFF7E1FF10BD70B5FA2504002D01D3
:10034000AC4205DCFA2080006043FFF7EFFF70BD90
:100350000248FFF7D1FF024BE418F1E700093D0026
:1003600060F0FFFF034B0449DA6F08401043D86781
:100370007047C04604800440FCBF1D00072318409E
:10038000014B18607047C046E8800440C02010B59B
:100390004003FFF7E7FF042000F072F8082000F0A8
:1003A00083F86420FFF7C2FF042000F073F8FFF722
:1003B00099FF084B0849C01800F092F8013800284E
:1003C00000DC01200122054B52425861044B1A60A7
:1003D00010BDC046D7B80500D8B80500004003409E
:1003E0000400001010B54020FFF7BCFF10BD8020B6
:1003F00010B5C002FFF7B6FF10BD0430C36F09018E
:1004000009098B43C367704770B506000D001400DF
:100410000B2907D9012A05D10B0011000C3B99408B
:10042000FFF7EBFF2402AD00240AAC5170BDFFFFC3
:1004300030B50825054AC36914682B40C905C90DA4
:10044000234313604162416230BDC046000000108A
:10045000030070B5FE22002504000448FC335A60F6
:1004600003498561FFF7E4FF256070BD008005400A
:10047000FF010000802010B5C000FFF773FF10BD22
:100480000F21034A08405368834353607047C046B6
:10049000008004400F21034B08405A681043586005
:1004A0007047C046008004408E2210B53F240349A7
:1004B00092008B58204083438B5010BD0080044035
:1004C000BFF34F8F024B034ADA60BFF34F8FFEE753
:1004D00000ED00E00400FA0510B5FFF737FE10BD8F
:1004E00003000B4321D4002931D00122D207030994
:1004F00001E0090112099942FBD9430801E04900D2
:1005000052089942FBD900E04908401A07D35241EA
:10051000FAD301461046704749084018F7D292189E
:10052000FAD34018014610467047CB0F00D049421D
:10053000021000D54042534008B5FFF7D4FF0CBC71
:10054000521000D34042002A00D549421847F446D1
:0C055000002000F001F860477047FFFF3A
:04055C00FFFFFFFF9F
:0400000300000129CF
:00000001FF
