:10000000F01F001039010000CD0D0000CD0D0000E3
:10001000CD0D0000CD0D0000CD0D0000CD0D000078
:10002000CD0D0000CD0D0000CD0D0000CD0D000068
:10003000CD0D0000CD0D0000CD0D0000CD0D000058
:10004000CD0D0000CD0D0000CD0D0000CD0D000048
:10005000CD0D0000CD0D0000CD0D0000CD0D000038
:10006000CD0D0000CD0D0000CD0D0000CD0D000028
:10007000CD0D000009050000CD0D0000F1030000CA
:10008000CD0D0000CD0D0000CD0D0000CD0D000008
:10009000CD0D0000CD0D0000CD0D0000CD0D0000F8
:1000A000CD0D0000CD0D0000CD0D0000CD0D0000E8
:1000B000CD0D0000CD0D0000CD0D0000CD0D0000D8
:1000C000C016000000000010DC040000DC0400107A
:1000D0003402000010B5002302E010C810C1043340
:1000E0009342FAD310BD002302E0002204C004337F
:1000F0008B42FAD3704710B50C4B07E0186859686B
:100100001C000C349A68FFF7E5FF2300084A93426D
:10011000F4D306E018681C0008345968FFF7E3FFC1
:100120002300044A9342F5D310BDC046C00000002E
:10013000CC000000D400000010B5FFF7DCFF00F099
:1001400049FE00BE00F036FEFFFFFFFFFFFFFFFF8E
:10015000FFFFFFFFFFFFFFFFFFFFFFFFFFFFFFFFAF
:10016000FFFFFFFFFFFFFFFFFFFFFFFFFFFFFFFF9F
:10017000FFFFFFFFFFFFFFFFFFFFFFFFFFFFFFFF8F
:10018000FFFFFFFFFFFFFFFFFFFFFFFFFFFFFFFF7F
:10019000FFFFFFFFFFFFFFFFFFFFFFFFFFFFFFFF6F
:1001A000FFFFFFFFFFFFFFFFFFFFFFFFFFFFFFFF5F
:1001B000FFFFFFFFFFFFFFFFFFFFFFFFFFFFFFFF4F
:1001C000FFFFFFFFFFFFFFFFFFFFFFFFFFFFFFFF3F
:1001D000FFFFFFFFFFFFFFFFFFFFFFFFFFFFFFFF2F
:1001E000FFFFFFFFFFFFFFFFFFFFFFFFFFFFFFFF1F
:1001F000FFFFFFFFFFFFFFFFFFFFFFFFFFFFFFFF0F
:10020000FFFFFFFFFFFFFFFFFFFFFFFFFFFFFFFFFE
:10021000FFFFFFFFFFFFFFFFFFFFFFFFFFFFFFFFEE
:10022000FFFFFFFFFFFFFFFFFFFFFFFFFFFFFFFFDE
:10023000FFFFFFFFFFFFFFFFFFFFFFFFFFFFFFFFCE
:10024000FFFFFFFFFFFFFFFFFFFFFFFFFFFFFFFFBE
:10025000FFFFFFFFFFFFFFFFFFFFFFFFFFFFFFFFAE
:10026000FFFFFFFFFFFFFFFFFFFFFFFFFFFFFFFF9E
:10027000FFFFFFFFFFFFFFFFFFFFFFFFFFFFFFFF8E
:10028000FFFFFFFFFFFFFFFFFFFFFFFFFFFFFFFF7E
:10029000FFFFFFFFFFFFFFFFFFFFFFFFFFFFFFFF6E
:1002A000FFFFFFFFFFFFFFFFFFFFFFFFFFFFFFFF5E
:1002B000FFFFFFFFFFFFFFFFFFFFFFFFFFFFFFFF4E
:1002C000FFFFFFFFFFFFFFFFFFFFFFFFFFFFFFFF3E
:1002D000FFFFFFFFFFFFFFFFFFFFFFFFFFFFFFFF2E
:1002E000FFFFFFFFFFFFFFFFFFFFFFFFFFFFFFFF1E
:1002F000FFFFFFFFFFFFFFFFFFFFFFFFFFFFFFFF0E
:1003000010B582B0174800F00BFA00F00FF9164C48
:1003100001220421200000F0E0FC01220521200040
:1003200000F0DBFC022000F02FFD002000F0C6FBF7
:100330000E49002000F0DEFB0D4A222313700D4B06
:10034000D360032313610021516091600A4B009137
:100350000331002000F010FC084B802212021A60CA
:1003600002B010BD40420F0000400440A0860100D2
:10037000DC040010F40400108103000000E100E040
:1003800010B50C00002800D000BE052C02D0022CB5
:1003900019D010BD012000F061F90F4B18785B787F
:1003A0001B02C0180D4900F09EFF0D4B5B180D4A53
:1003B00053600D4B994204DD0C4B5B1A094A936064
:1003C000E5E7B423FAE7074B034ADA6003221A6130
:1003D000012000F048F9DCE7F4040010BE0400003E
:1003E00000000010DC04001009040000BF0400003D
:1003F00010B5002000F094FB002803D0002000F08E
:100400009FFB10BD002000F001FCFAE710B5FFF7DC
:1004100077FFFEE730B50500FC2252000F4B01E0EC
:1004200001330A00511E002A02D01C78032CF7D198
:1004300000290FD0981C59782960FF2900D030BDC1
:10044000032A09DD9A7812022A60181DDB781A4304
:100450002A60F4E70020F2E70020F0E70881054079
:1004600010B5074C200000F050FC8823984381B25F
:10047000200000F046FC034B012252421A6010BDDE
:1004800000800540FC04001010B582B00400430653
:1004900019D423070DD5174B1B68013309D0154B11
:1004A0001B6803229343144A94466344134A126818
:1004B0001A6081235B001C4201D1240601D5FFF79D
:1004C000CFFF02B010BDFFF7CBFF0D4B1B6808221A
:1004D00094431B041B0C032BDBD001A8FFF79AFFEE
:1004E0000028D6D0019BC018064B9C466044014BA7
:1004F0001860CEE7FC04001000810540F8040010ED
:1005000008810540007FFABF70B5074D280000F054
:1005100000FC01002C6AE405E40D280000F0FEFB5D
:100520002000FFF7B1FF70BD0080054010B5324CD0
:10053000200000F0C5FBA020C00500F07FF91022CC
:100540000021200000F0C9FB08220121200000F05A
:10055000C4FB08220221200000F0BFFB0822032177
:10056000200000F0BAFB08220421200000F0B5FBB7
:1005700008220521200000F0B0FB082206212000FF
:1005800000F0ABFB08220721200000F0A6FB0822A8
:100590000821200000F0A1FB10220921200000F01A
:1005A0009CFB164B1B68164A934202D0154A934295
:1005B00016D1114C08220A21200000F08EFB0822DF
:1005C0000B21200000F089FB0F4800F0CDFB0F4805
:1005D00000F0EEF80E4800F0B1FB00F049F810BD55
:1005E000054C0A220A21200000F077FB0A220B2189
:1005F000200000F072FBE7E700400440FC0200002E
:100600002143658765872143004005400040034042
:1006100000800540F0B50023002B00DDF0BD020096
:100620001A41D20716D50C4C9A00175DA4186678AB
:100630000A001A4101252A40A478121B5442624143
:10064000D2B23C04A027FF05BC466444B540B2408A
:10065000AD002A510133DFE7AC13000010B50100F3
:10066000FFF7D8FF10BD10B50021FFF7D3FF10BD75
:1006700070B50024002C03DD0120FFF7F4FF70BDEE
:10068000002207210A4800F028FB0A4AA1008B5CDF
:10069000521855781B04A022D2059446634480204A
:1006A00000021A580121A9400A431A500134E1E717
:1006B00000400440AC13000010B5041E02DD012808
:1006C00005DC00E000BE00F0A1F8002803D0802C7B
:1006D00017DC002306E000F0A9F80028F7DC00BED4
:1006E000F5E701336410FCD1074A5462116A0E2009
:1006F00081435B001840014311625462012353623D
:1007000010BD8024E5E7C04600800440034B1A6A10
:10071000520807231340012098407047008004408E
:1007200010B5011E05DD044800F0DAFDFFF7C4FF37
:1007300010BD00BEF7E7C04600127A0010B5FFF703
:10074000E5FF0100014800F0CBFD10BD00127A006A
:1007500010B5041E18D00D4B984200D900BEFFF70B
:10076000EDFF01000A4800F0BBFD010063011B1B07
:100770009B001B19D80000F0B6FDE138FF3802B429
:10078000011C0339FDDC02BC10BDC04600093D0060
:1007900000CA9A3B10B5044980228B58034C204074
:1007A00003438B5010BDC04600800440FCBF1D00B9
:1007B00010B5C0204003FFF7EDFF042000F0DAFA87
:1007C000082000F0EBFA6420FFF7C2FF042000F0DD
:1007D000DBFAFFF7B3FF094B9C466044084900F081
:1007E0007FFD0138002806DD064B5861064B0122CB
:1007F00052421A6010BD0120F6E7C046D7B8050086
:10080000D8B805000040034050070010054B186899
:10081000C0231B031840044B9C466044431E984170
:10082000C0B2704700C003400000F4FF024B1B69D8
:10083000FF2018407047C04600C0034010B540205C
:10084000FFF7A8FF10BDFFFF10B50C000B34A4008C
:100850002350012907D02030044B9C466144890075
:100860004018026010BDC260FCE7C046FEFFFF3FBB
:1008700001231A43D2B24840904343425841704743
:1008800070B504000D00480825D0E068226BD2B294
:10089000C0B2FFF7EDFF00281CD1206A626BD2B214
:1008A000C0B22900FFF7E4FF002815D1606AA26BEF
:1008B000D2B2C0B22900FFF7DBFF00280ED1A06A38
:1008C000E26BD2B2C0B22900FFF7D2FF002807D1F5
:1008D000FF3000E0012070BD0220FCE70320FAE7B2
:1008E0000420F8E701290CD1064BC200121A92002D
:1008F0009B181969044B013B0A7D042A01D1002B86
:10090000F9D17047C0040010A086010030B54268DC
:10091000F8231340582B49D89B002E4AD3589F46A2
:100920003C2321E00B785B008A6854426241134308
:1009300083603C233BE08B68002B0AD10B69002BC2
:1009400004D0212252423C23134030E01122524273
:10095000F9E74B685A1C4A601B7883608B68013B3F
:100960008B603C2323E02C238468CA68551CCD602F
:1009700014700A69013A0A610A69012A17DD042222
:10098000934314E03C23F7E74B68013B4B608B68D3
:1009900001338B6001230B752B3308E002230B75A9
:1009A0003A3304E003230B75293300E03C233C2257
:1009B0005A4002608361DB0604D50B7D022B01D017
:1009C000012030BD0B7D042B01D00020F9E700236E
:1009D0000B75FAE7B013000010B54268F823134016
:1009E000782B0DD8602B11D3603B094ADA40D2072F
:1009F00004D58168C9B2FFF743FF10BDFF20FCE7B3
:100A0000A82BF6D0B02BF4D0FF20F6E7FF20F4E7B8
:100A10000101010110B5020004230B754068F43395
:100A20000340603B682B3CD89B002348C3589F463B
:100A30009068CB685C1CCC6018700B69013B0B6143
:100A4000012B02DD052038212DE005203C212AE084
:100A50009368012083430B700B69012B02DD00209A
:100A6000382120E000203C211DE0936801208343D1
:100A70000B704B68581C48601B7893608B68013B77
:100A80008B60002B02DD062038210CE006203C2183
:100A900009E000230B750B78DB0709D4022038210D
:100AA00001E000203C213C234B401360916110BDCC
:100AB00002201821F7E7C04614150000F8B507001A
:100AC0000A4BC600341AA4001D001C196068FFF709
:100AD00061FEF21B920053596C229A610022A261BE
:100AE000034BA36022616261F8BDC046C0040010E0
:100AF000E508000070B504000D00FFF71FFE290097
:100B000000F0F1FB054AE300191B890089584508EC
:100B10000D610A69801A486170BDC046C0040010AA
:100B2000064AC300181A800083585A68F8231340F5
:100B30005F22002000219A4248417047C004001003
:100B400010B504000B48E3001A1B920082181169CB
:100B50001B1B9B001858FFF7D9FE002808D1054B36
:100B6000E200121B92009B189B680221200098470C
:100B700010BDC046C004001070B504000D0004A9EB
:100B80000E782049800000194019C0004250091811
:100B90004B60002D20D11C4BE200121B92009B18D1
:100BA0009A69FF231B021A4207D1174BE200121B5E
:100BB00092009B181B69002B19D0134BE200111BEC
:100BC00089005918896908350120A840121B920034
:100BD0009B180143996170BD12780B4BE100091B12
:100BE0008900C85833002900FFF72EFED3E7064AD4
:100BF000E3001B1B9B009B5838229A610C321A6041
:100C0000DBE7C04600050010C004001070B504000A
:100C1000294AC3001B1A9B0098584268F8231340C6
:100C2000F82B33D0244BE200121B92009B185B6917
:100C3000002B2CD02048E3001A1B92008218516927
:100C40000D781269561EB2412A430A701B1B9B0085
:100C50001858FFF7DFFE002818D0174BE200121BD0
:100C600092009B185B691B7D002B06D1124BE200A2
:100C7000121B92009B1800225A610F4BE200121BBC
:100C800092009B18DB68C1B22000984770BDFFF747
:100C9000A3FEFF28FAD00949A3001B191B18DB008B
:100CA0005D58054AE000001B800012185561C91804
:100CB0004B68D360BEE7C046C004001000050010BA
:100CC00010B58020C002FFF765FD10BD802283585B
:100CD000090109098B438350704770B506000D0068
:100CE00014000B2901D9012A04D02402240AAD00E2
:100CF000AC5170BD0B000C3B01219940FFF7E6FFA2
:100D0000F3E7C905C90D816170478069C005C00D51
:100D10007047C069C005C00D7047FFFF10B5C369BB
:100D200008221A40044C236813432360C905C90DE7
:100D30004162416210BDC0462805001070B5040034
:100D400080235B00FE22C250054D00212800FFF7E2
:100D5000D8FF04492800FFF7E1FF0023236070BD9E
:100D600000800540FF01000010B58020C000FFF7A3
:100D700011FD10BD03494B680F22024093434B60A5
:100D80007047C0460080044003494B680F22024070
:100D900013434B607047C0460080044010B5044CBC
:100DA0008E21890063583F2202409343635010BD57
:100DB00000800440BFF34F8F024B034ADA60BFF359
:100DC0004F8FFEE700ED00E00400FA0510B500BE0D
:100DD000FFF7F0FF10B500F007F8FFF717FB10BDA5
:100DE00010B500F0BAFA10BD70B5184C18492200C1
:100DF000002000F08BF8802380225B00002120007F
:100E0000D20000F02FF8134C134D220029000120CE
:100E100000F07CF8802380225B0000212000D200BB
:100E200000F020F80D4B1B68022B0DDD0C4C290047
:100E30002200022000F06AF8802380220021200096
:100E40005B00D20000F00EF870BDC0463005001007
:100E5000B81600006C050010BA160000BC160000A1
:100E6000A8050010F0B5C56804000120AE070CD03D
:100E700080208000824213D08020C000824205D0B2
:100E80008020400082420BD0FF38F0BD21000123BA
:100E900024311543002021612160E361E560F4E71E
:100EA000024F5E1E0120BE42F3D9EEE7FEFFFF00B7
:100EB0000300032110B51A000B4219D1114C13681D
:100EC000114959189943214219D0DCB2511C002C08
:100ED0000BD0FF242402911C234206D0FF210904D9
:100EE0000B40591E8B41D318D91C0130081A05E05C
:100EF00001335C1E2478002CDDD1101A10BD0432A1
:100F0000DDE7C04680808080FFFEFEFEF7B50D0065
:100F100001901000140000F033F82B78722B1CD0D5
:100F2000772B1DD0612B26D1144A593B0220691C16
:100F3000032784460426012508782B2813D062282D
:100F400016D0E260019A62611B0704D502220021DB
:100F5000200000F063F82000FEBD00230122E5E739
:100F600004230222E2E760463A4303430131E3E708
:100F700032432B43FAE70024EDE7C046028000002D
:100F8000F0B5C56804004769066989B0AB0720D091
:100F90002B0716D400F022F8380000F0F3F92B05E7
:100FA00002D5300000F066F90B4BAD0DAD059D424A
:100FB00007D120226846216A00F0F3F9684600F064
:100FC000C9F83C2200212000FFF70AFF002009B0E9
:100FD000F0BD01204042FAE7000080ADF8B50028DE
:100FE00012D000F0C1F805002800F8BD38006043B9
:100FF000084BC01800F0B8F8002801D001256D4258
:101000000134A642F2DCEFE7034B040005003C2765
:101010001E68F6E730050010BC160000F7B54369FE
:10102000C6680193364B04000D0000921E420BD09F
:10103000019800F0ADF9071E06D1009B012B06D0E8
:10104000022B2DD0002B06D002273800FEBD200039
:1010500000F05AF82D18002DF6DBB30404D52368F0
:10106000E26A9A4200D2E362A369AB420EDCE16A13
:1010700022688A4200D20A002169D0180091401AE1
:10108000A84203DB206B1918A94228DC20231E4349
:101090000023A562A36063601A4B1E40E660D4E79C
:1010A000019800F072F9E268002804DA8023134303
:1010B0000127E360C9E7E16A2368994200D90B0080
:1010C000A1695B1821695B1A920603D5A26A934253
:1010D00000DA1300834200DA0300ED18BBE7EB1AD5
:1010E000B50701D5181AA060F00703D50099521A68
:1010F0009A1A6260009AD118202321609E43CBE7A0
:1011000003001000BFCFF7FFC16802008B0705D1B5
:10111000212201200E4B40421A60704720230B40D1
:1011200009030AD5002B02D0806A0138F5E79369DC
:101130000068C0181369C01AF7E7002B01D0806A55
:10114000EBE70368816900695B18181AE5E7C04698
:101150002C05001010B50400FFF7AAFE01002000C6
:1011600000F019F910BDFFFFC36870B503221E001F
:1011700004001640134211D09B0611D5856A00F079
:101180008FF8E368094A20001340E36000F010F88C
:101190000022060029002000FFF740FF300070BD4C
:1011A00083690568ED180369ED1AEAE7FFCFFFFFD1
:1011B00070B50400134AE36805691A400168C06A03
:1011C000E26082221A40022A02D00120404270BD11
:1011D000DB030CD5814200D201008D4209D10023EE
:1011E000094AA360E368E56213402560E3600020DC
:1011F000EDE722002800491B00F008F80028EED097
:10120000E3E7C046FFFFF7FFFFFFFEFFF7B5D56836
:101210000F00140056690190EB0205D51023300031
:101220001D4300F0B2F8A061104B1D420FD03000FA
:10123000A16900F0B3F8002806DA80230120E268F3
:1012400040421343E3600FE0094B1D40E5603A0064
:101250003000019900F0A8F84300A2695B08FB1A6E
:10126000D318A3610028E8D1FEBDC04610000200DB
:10127000EFFFFDFF10B5002811D080210C38490583
:1012800001608268002A0AD013688B4207D1436844
:10129000546803331B19436093688360F1E710BD02
:1012A0002022C36810B59343C3608269836A040037
:1012B0009A420CD0FFF77CFFE268074B1A401023DC
:1012C0001343E360A36AA3612369E3622360E368D5
:1012D000024A1340E36010BDEFCFFFFFBFBFFFFF27
:1012E00003000B4321D4002931D00122D207030986
:1012F00001E0090112099942FBD9430801E04900C4
:1013000052089942FBD900E04908401A07D35241DC
:10131000FAD301461046704749084018F7D2921890
:10132000FAD34018014610467047CB0F00D049420F
:10133000021000D54042534008B5FFF7D4FF0CBC63
:10134000521000D34042002A00D549421847F446C3
:10135000002000F001F8604770478446043A09D342
:10136000830707D109060B0A19430B0C1943043AEA
:1013700002C0FCD2043203D001700130013AFBD12B
:10138000604670470120404270470120404270474C
:1013900001204042704701204042704701204042F6
:1013A0007047012040427047100070470007010756
:1013B000A4090000AC090000AC090000AC09000061
:1013C000AC090000AC090000AC090000AC09000049
:1013D00024090000AC090000AC090000AC090000C1
:1013E000AC090000AC090000AC090000AC09000029
:1013F00024090000AC090000AC090000AC090000A1
:10140000AC090000AC090000AC090000AC09000008
:1014100036090000AC090000AC090000AC0900006E
:10142000AC090000AC090000AC090000AC090000E8
:1014300094090000AC090000AC090000AC090000F0
:10144000AC090000AC090000AC090000AC090000C8
:1014500036090000AC090000AC090000AC0900002E
:10146000AC090000AC090000AC090000AC090000A8
:1014700088090000AC090000AC090000AC090000BC
:10148000AC090000AC090000AC090000AC09000088
:101490009C090000AC090000AC090000AC09000088
:1014A000AC090000AC090000AC090000AC09000068
:1014B00084090000AC090000AC090000AC09000080
:1014C000AC090000AC090000AC090000AC09000048
:1014D00094090000AC090000AC090000AC09000050
:1014E000AC090000AC090000AC090000AC09000028
:1014F00020090000AC090000AC090000AC090000A4
:10150000AC090000AC090000AC090000AC09000007
:1015100066090000500A0000A20A0000A20A0000AA
:10152000A20A0000A20A0000A20A0000A20A00000B
:10153000A20A0000500A0000A20A0000A20A00004D
:10154000A20A0000A20A0000A20A0000A20A0000EB
:10155000A20A0000500A0000A20A0000A20A00002D
:10156000A20A0000A20A0000A20A0000A20A0000CB
:10157000A20A0000500A0000A20A0000A20A00000D
:10158000A20A0000A20A0000A20A0000A20A0000AB
:10159000A20A0000300A0000A20A0000A20A00000D
:1015A000A20A0000A20A0000A20A0000A20A00008B
:1015B000A20A0000920A0000A20A0000A20A00008B
:1015C000A20A0000A20A0000A20A0000A20A00006B
:1015D000A20A0000300A0000A20A0000A20A0000CD
:1015E000A20A0000A20A0000A20A0000A20A00004B
:1015F000A20A0000920A0000A20A0000A20A00004B
:10160000A20A0000A20A0000A20A0000A20A00002A
:10161000A20A0000920A0000A20A0000A20A00002A
:10162000A20A0000A20A0000A20A0000A20A00000A
:10163000A20A00006A0A0000A20A0000A20A000032
:10164000A20A0000A20A0000A20A0000A20A0000EA
:10165000A20A00006A0A0000A20A0000A20A000012
:10166000A20A0000A20A0000A20A0000A20A0000CA
:10167000A20A0000720A0000A20A0000A20A0000EA
:10168000A20A0000A20A0000A20A0000A20A0000AA
:10169000A20A0000920A0000A20A0000A20A0000AA
:1016A000A20A0000A20A0000A20A0000A20A00008A
:1016B000A20A0000920A00007200770008000000F1
:1016C0004F7572204E54414720536D6172745365BB
:1016D0006E736F7220706F7274666F6C696F206FBB
:1016E00066666572732073696E676C652D636869E1
:1016F0007020736F6C7574696F6E73207468617499
:1017000020636F6D62696E65204E464320636F6E85
:101710006E6563746976697479207769746820618D
:1017200075746F6E6F6D6F75732073656E73696E10
:10173000672C20646174612070726F6365737369D4
:101740006E672C20616E64206C6F6767696E672E10
:1017500020546865736520646576696365732063EA
:10176000616E20626520656173696C7920636F6DBD
:1017700062696E65642077697468206F7468657249
:1017800020636F6D70616E696F6E2063686970733E
:101790002C207375636820617320726164696F73B4
:1017A000206F722073656E736F7220736F6C757427
:1017B000696F6E732E204E54414720536D617274D1
:1017C00053656E736F72206465766963657320611B
:1017D000726520696465616C20666F7220496E7461
:1017E00065726E6574206F66205468696E67732039
:1017F00028496F54292070726F64756374732E20AA
:101800000A4170706C69636174696F6E73200A4E6F
:1018100054414720536D61727453656E736F72202B
:1018200063616E206265207573656420696E206156
:1018300070706C69636174696F6E73206C696B653D
:1018400020706572736F6E616C206865616C74687E
:101850002C2070617469656E7420616468657265BE
:101860006E63652C206C6F676973746963732C20D9
:101870007061636B6167696E672C20616772696371
:10188000756C747572652C20696E647573747279E9
:1018900020342E302C206F7220616E696D616C20B7
:1018A00074616767696E672E200A496E7465726E8F
:1018B0006574206F66205468696E6773200A4E5401
:1018C000414720536D61727453656E736F72206966
:1018D00073206F6E65206F662074686520736D617C
:1018E0006C6C657374206564676520636F6D7075DB
:1018F00074696E67206465766963657320E280931E
:1019000020636F6C6C65637465642064617461202E
:1019100069732075706C6F6164656420696E746FA3
:101920002074686520636C6F75642076696120742B
:101930006865204E464320696E7465726661636512
:101940002E204173206D6F737420736D61727470FB
:10195000686F6E6573206861766520616E204E4603
:101960004320696E746572666163652C20646174DE
:101970006120636F6C6C656374696F6E20616E6467
:101980002072656164696E672061726520696E749A
:10199000756974697665207769746820646564691F
:1019A00063617465642061707073206F6E20746869
:1019B000652070686F6E652E200A54656D706572C3
:1019C00061747572652043616C6962726174696FDC
:1019D0006E200A4E48533331303020616E64204E01
:1019E0004853333135322061726520696E646976FF
:1019F000696475616C6C792074656D706572617471
:101A00007572652D63616C696272617465642069C9
:101A10006E2070726F64756374696F6E20616E649E
:101A20002049534F2F494543203137303235206309
:101A3000616C6962726174696F6E2063657274694A
:101A4000666963617465732077697468204E4953D1
:101A5000542074726163656162696C697479206194
:101A6000726520617661696C61626C65206F6E20C1
:101A70006E78702E636F6D2E200A54656D706572DE
:101A8000617475726520436861726163746572691F
:101A90007374696373200A4162736F6C7574652097
:101AA0006163637572616379206F6620302E33C283
:101AB000B04320696E207468652072616E6765208E
:101AC0006F662030C2B04320746F203435C2B043FB
:101AD000200A4162736F6C7574652061636375726F
:101AE000616379206F6620302E35C2B04320696E65
:101AF000207468652072616E6765206F66202D34E2
:101B000030C2B04320746F2030C2B04320616E6495
:101B1000203435C2B04320746F203835C2B0432022
:101B20000A54656D706572617475726520726563C3
:101B3000616C6962726174696F6E206973206E6F87
:101B40007420726571756972656420666F722061B8
:101B500070706C69636174696F6E7320746861740E
:101B6000206E6565642065697468657220616363D1
:101B700075726163792070726F66696C652EFFFF04
:101B80000000004020000000E50800000000000008
:0C1B900000000000000000000000000049
:0400000300000139BF
:00000001FF
