:10000000F01F0010390100001D2300001D23000017
:100010001D2300001D2300001D2300001D230000E0
:100020001D2300001D2300001D2300001D230000D0
:100030001D2300001D2300001D2300001D230000C0
:100040001D2300001D2300001D2300001D230000B0
:100050001D2300001D2300001D2300001D230000A0
:100060001D2300001D2300001D2300001D23000090
:100070001D230000551700001D2300001D23000054
:10008000090900001D2300001D2300001D2300009E
:100090001D2300001D2300001D2300001D23000060
:1000A0001D2300001D2300001D2300001D23000050
:1000B0001D2300001D2300001D2300001D23000040
:1000C000BC26000000000010A4000000A4000010E6
:1000D0009800000010B5002302E010C810C10433DE
:1000E0009342FAD310BD002302E0002204C004337F
:1000F0008B42FAD3704710B50C4B07E0186859686B
:100100001C000C349A68FFF7E5FF2300084A93426D
:10011000F4D306E018681C0008345968FFF7E3FFC1
:100120002300044A9342F5D310BDC046C00000002E
:10013000CC000000D400000010B5FFF7DCFF02F097
:100140002FF900BE02F0DEF8FFFFFFFFFFFFFFFF09
:10015000FFFFFFFFFFFFFFFFFFFFFFFFFFFFFFFFAF
:10016000FFFFFFFFFFFFFFFFFFFFFFFFFFFFFFFF9F
:10017000FFFFFFFFFFFFFFFFFFFFFFFFFFFFFFFF8F
:10018000FFFFFFFFFFFFFFFFFFFFFFFFFFFFFFFF7F
:10019000FFFFFFFFFFFFFFFFFFFFFFFFFFFFFFFF6F
:1001A000FFFFFFFFFFFFFFFFFFFFFFFFFFFFFFFF5F
:1001B000FFFFFFFFFFFFFFFFFFFFFFFFFFFFFFFF4F
:1001C000FFFFFFFFFFFFFFFFFFFFFFFFFFFFFFFF3F
:1001D000FFFFFFFFFFFFFFFFFFFFFFFFFFFFFFFF2F
:1001E000FFFFFFFFFFFFFFFFFFFFFFFFFFFFFFFF1F
:1001F000FFFFFFFFFFFFFFFFFFFFFFFFFFFFFFFF0F
:10020000FFFFFFFFFFFFFFFFFFFFFFFFFFFFFFFFFE
:10021000FFFFFFFFFFFFFFFFFFFFFFFFFFFFFFFFEE
:10022000FFFFFFFFFFFFFFFFFFFFFFFFFFFFFFFFDE
:10023000FFFFFFFFFFFFFFFFFFFFFFFFFFFFFFFFCE
:10024000FFFFFFFFFFFFFFFFFFFFFFFFFFFFFFFFBE
:10025000FFFFFFFFFFFFFFFFFFFFFFFFFFFFFFFFAE
:10026000FFFFFFFFFFFFFFFFFFFFFFFFFFFFFFFF9E
:10027000FFFFFFFFFFFFFFFFFFFFFFFFFFFFFFFF8E
:10028000FFFFFFFFFFFFFFFFFFFFFFFFFFFFFFFF7E
:10029000FFFFFFFFFFFFFFFFFFFFFFFFFFFFFFFF6E
:1002A000FFFFFFFFFFFFFFFFFFFFFFFFFFFFFFFF5E
:1002B000FFFFFFFFFFFFFFFFFFFFFFFFFFFFFFFF4E
:1002C000FFFFFFFFFFFFFFFFFFFFFFFFFFFFFFFF3E
:1002D000FFFFFFFFFFFFFFFFFFFFFFFFFFFFFFFF2E
:1002E000FFFFFFFFFFFFFFFFFFFFFFFFFFFFFFFF1E
:1002F000FFFFFFFFFFFFFFFFFFFFFFFFFFFFFFFF0E
:1003000010B501F0C9FB00F0A7F800F0ABFC024B00
:1003100000221A7010BDC046A400001010B50120C4
:1003200001F052FC642001F0B3FC012001F051FC0B
:10033000054801F0ADFC00F0A9FC112800D010BD6B
:1003400000F0F8FCFBE7C046B80B000010B5002138
:10035000014801F035FF10BD0040054070B50500B3
:100360000A4C0021200001F02BFF0121200001F0A8
:100370005DFF0121200001F067FF0321200001F053
:100380001FFF2900200001F029FF70BD004005403B
:1003900010B500F071FC00F061F800F077FC112856
:1003A00004D0FFF7D3FF01F0B1FEFEE700F07AFCC6
:1003B000FFF7D4FF012001F0B3FE01F0C1FE4409B4
:1003C00001231C40002001F0ABFE200001F0C8FE1C
:1003D00000BE10BD10B5FFF793FF01F073FEFF28BC
:1003E0000AD002280FD000F0B7FC0C4B00221A7084
:1003F000FFF7CEFF002010BD01F0CCFE800705D432
:10040000FFF78CFF02E0054B01221A7000F0ACFAF6
:10041000024B1B78002BEBD0E5E7C046A400001090
:1004200001280DD0022806D000280ED0094B0B6001
:100430000023136003E01A230B6036331360704708
:100440006A230B60423B1360F9E700230B601A3309
:100450001360F4E70A0600007047FFFF10B50121A2
:10046000014801F011FD10BD0040034070B50500CA
:10047000080011001A0004AB1B78222D00DD00BE1D
:10048000002B16D0069B00F04FFB06006C01641B8E
:10049000CE34FF34300001F0C5FF431C094D32005B
:1004A0002100280001F02EFD0121280001F0ECFCC4
:1004B00070BD059B069C1B1B013300F053FB06001F
:1004C000E4E7C04600400340222800DD00BE4301AF
:1004D000181A024B9C4660447047C046CD0100305C
:1004E00070B582B00D0014006A4601A9FFF798FFAD
:1004F000009BA34200DA00BE0198C0239B059C46E6
:1005000060442200290001F04FFF002801D102B011
:1005100070BD0199054E23002A00300001F0F2FC65
:100520000121300001F0B0FCF1E7C046004003407B
:1005300030B583B00D0014006A4601A9FFF770FFC3
:10054000009BA34200DA00BE019923002A00024862
:1005500001F09EFC03B030BD0040034010B50A001E
:10056000222800DD00BEC10009189231044C092385
:10057000200001F0C7FC0121200001F085FC10BD26
:10058000004003400048704792000030054A802335
:1005900080214902D150044A536801218B435360A2
:1005A0007047C04600E100E000C0004030B5D3B065
:1005B00004000D00A2225200002101A801F0ECFE6F
:1005C000002D08D0A22101AA4900200001F040F925
:1005D000002053B030BDFFF7D5FF050000F06EFBE3
:1005E000C2001218290001A801F0CEFEEAE7FFFFC1
:1005F00010B582B0040000290AD0002301930093B3
:100600006A460821200001F023F9002002B010BD45
:1006100000F042FB0190024801F0EEFD0090EFE790
:100620000040054010B582B0140008290BD0134BD0
:10063000019301AA042101F00BF9019B002B05D0C5
:10064000002002B010BD00230193F2E72379627904
:1006500012021A43A3791B041343E17909061943D3
:100660002378627812021A43A3781B041343E078BC
:100670000006184300F02EFBE2E7C0460D00010023
:1006800010B592B0040000290DD0002300931193FF
:10069000009B002B0DD06A464821200001F0D8F8BD
:1006A000002012B010BD482269460220FFF740FF2B
:1006B000EEE74022FF2101A801F06EFEEBE7FFFF0D
:1006C00010B582B004001300094A0192482907D0EE
:1006D00001AA0421200001F0BBF8002002B010BDE7
:1006E000482219000220FFF7FBFE00230193EFE7E9
:1006F0000D00010010B582B00400084B01930029E1
:1007000007D001AA0421200001F0A2F8002002B0C5
:1007100010BD00F00FFB00230193F2E70D00010074
:1007200070B50500FFF732FF80210D4C4900200015
:1007300001F0D6FD01F080FA000A0138E0602D02D8
:10074000A561636901252B436361200001F0CDFDA4
:1007500063682B436360034B802252021A6070BDB2
:1007600000C0004000E100E030B585B004000D009D
:10077000C30F0022FF218142534101A90948019082
:100780000B718A60084800F0D7FD002C04D10648A0
:1007900000F021FE05B030BD03482200290000F022
:1007A000DDFDF4E76C2500005405001070B5050070
:1007B0000E0080220749084C01239200200000F01F
:1007C0007FFD31002800FFF7CFFF200000F01EFE64
:1007D000012070BD3C03001054050010F0B585B039
:1007E00001A92F4B0A0031CB31C22E4800F092FDF7
:1007F00000F04CFA112805D0122826D000F030F96C
:10080000050010E0284801F0F7FC050000F050FA60
:10081000040000F053FA241A00F03EFA22002900E6
:1008200000F04AF90500280001F0FCFD02001D4C13
:100830002900200000F092FD200000F0CCFD00F027
:100840003DFA071E2ADD00261DE000F025FA04000F
:1008500000F03AFA0100200000F00EF90500E2E78E
:100860003000FFF731FE040001F0DCFD02000D4B0B
:100870002100180000F072FD0136013D002DEFDC73
:10088000084800F0A8FDBE4208DABD1B042D00DDBB
:100890000525044801A900F03DFDEFE705B0F0BDD6
:1008A00068260000540500100040054010B50028DF
:1008B00002D0FFF76BFE10BD0120FFF731FFFAE712
:1008C00000B587B080220E490E48920000F0F6FE77
:1008D000002801D107B000BD0A4802A900F024FE9B
:1008E0000028F7D002AB1B78042BF5D1054801A9ED
:1008F00000F01CFF0100019801F098F8ECE7C046F9
:100900003C0100103C050010054B1B68DB0705D5BA
:10091000034B01221A60034B00221A707047C04635
:1009200000C00040A500001010B500F0AFFC00F0C2
:1009300087FF0A4800F086FF80220949094C0123FD
:100940009200200000F0BCFC00210020FFF70CFF0B
:10095000FFF744FF200000F059FD10BDAD07000077
:100960003C0300105405001010B5FFF7DDFF012017
:10097000FFF7D6FE034B01221A70024B1B78002BA7
:10098000FBD110BDA500001070B504000E001500CD
:100990000120801A0818202101F0FEFC302333705A
:1009A0000CE00A21200001F06BFD30313170013E76
:1009B0000A21200001F064FD0400013D002D01DD4D
:1009C000002CEEDC70BDFFFFF8B5CE46474680B583
:1009D0000400884691461D0077281CDDE1235B0159
:1009E000984206DA3C2101F04BFD04000726164F21
:1009F00013E0164B984207DCE121090101F040FDAC
:100A000004000526124F08E0124901F039FD0400E8
:100A10000426114F01E00726104F089B9E4200DD7F
:100A20001E00089A2021280001F0B6FC320039008F
:100A3000280001F0A9FC4A4641462000FFF7A4FF28
:100A4000C0BCB946B046F8BD84260000FFA2020033
:100A50007C26000080510100742600008C260000D6
:100A600010B50349034C200001F0BAFC200010BD72
:100A70008C250000A800001070B582B005000E1A89
:100A80000B490C4C200001F0ABFC210029310A225B
:100A90002800FFF779FF2300403321003E31072271
:100AA0000092043A3000FFF78FFF200002B070BDC3
:100AB000B8250000A800001070B582B015000E1A0D
:100AC0001749184C200001F08BFC23002133210032
:100AD0001F3107220092043A3000FFF775FF210012
:100AE0002F3102222800FFF74FFF012D0CD00D4BB4
:100AF00035227321995408324539995401320E39FF
:100B00009954084802B070BD064B352220219954F3
:100B1000083253319954013245399954F1E7C046AE
:100B200018260000A800001070B582B016001D0045
:100B3000081A0B4CA11E0723009323000322FFF782
:100B400043FF0F3C012221003000FFF71DFFE11C95
:100B500002222800FFF718FF200002B070BDC04637
:100B60006700001070B582B016001D00081A194CFD
:100B7000A11E0723009323000322FFF725FF153C46
:100B8000012221003000FFF7FFFEA11D02222800F4
:100B9000FFF7FAFE022D0BD0032D0FD0012D13D13C
:100BA0000D490E48022201F0EFFB0D4802B070BD66
:100BB0000C490A48022201F0E7FBF6E70A49074818
:100BC000022201F0E1FBF0E708490448022201F0AB
:100BD000DBFBEAE74D000010582600003F00001044
:100BE000380000105C26000060260000642600002B
:100BF000F0B5C64600B588B0050007790137FFB2E9
:100C00000269002402E00134E4B25208002AFAD159
:100C10002A682B7B9846A9688C46114E716830690A
:100C2000029463460193434600933B00FFF71EFC8A
:100C30002B6805A905930F7119236B441C700022C2
:100C40005A709A70240EDC703069FFF787FC3369A4
:100C5000013333612B68736108B080BCB846F0BDC6
:100C60000801001010B5034918220020FFF760FCAE
:100C700010BDC0460801001010B50349182200201D
:100C8000FFF72EFC10BDC04608010010014B18787C
:100C90007047C04608010010014B58687047C046B5
:100CA00008010010014B98687047C0460801001009
:100CB000014BD8687047C04608010010014B186905
:100CC0007047C04608010010014B58697047C04684
:100CD0000801001010B58AB00C00144B58600100D8
:100CE000134801F095FA022C17D8104B03229A6092
:100CF0000E4C00232361282269460120FFF718FCCF
:100D0000684600F0D6F8E060112323702822694677
:100D10000120FFF7E5FB0AB010BD3C2C03D9034BC3
:100D20003C229A60E4E7014B9C60E1E70801001077
:100D300000400540044B10221A7000229A60DA60CD
:100D40001A615A615A60704708010010014B122263
:100D50001A7070470801001000B58BB02822694650
:100D60000120FFF7E5FB0849684600F0EFF800288E
:100D700006D0282269460120FFF7B2FB0BB000BD68
:100D8000FFF7E4FFF5E7C046F10B000010B5A02027
:100D9000C00501F0BFF8002405E0E1B200220748D9
:100DA00001F005F901340B2CF7DDA021C9058022E3
:100DB00012028B581B0B1B038B5010BD00400440CC
:100DC00010B5A020C00501F0AAF810BD042070479E
:100DD00001207047F8B504002A4A43001B185B0045
:100DE0009D5CA022D2058020000211580123AB4057
:100DF000194311509B0000219950002500260AE05C
:100E000000223900204801F0D2F83B000A3BDBB257
:100E1000012B20D901351B4B6200121952009B187F
:100E20005B79AB421DDD174B6200121952009B1813
:100E30005B195F7810223900134801F0B8F80123DC
:100E4000BB409B00A022D2059B58002BD8D1013378
:100E5000AB401E43D4E7022239000B4801F0A7F84B
:100E6000D8E7084A63001B195B009C5CA020C00502
:100E70008021090243580122A2409343435030008D
:100E8000F8BDC0469426000000400440034B4200D9
:100E9000101840001B1858797047C046942600006F
:100EA0000300002002E05A1E13400130002BFAD14B
:100EB0007047F0B5DE4657464E464546E0B583B02E
:100EC0000700FFF783FF0190FFF760FF00239B46B9
:100ED000002600252AE0AB009946DB599A460022FD
:100EE00021002800FFF776FF4B46D851504518D017
:100EF0004346002B18D12C000C3464003C1900220E
:100F000021002800FFF766FFAB00D851FFF7C8FFAC
:100F100006002800FFF7BAFFB042DCD10123984653
:100F2000E6E701239846E3E7B3440135019B9D4280
:100F300002DA00239846DBE7FFF742FF584603B08A
:100F4000F0BCBB46B246A946A046F0BDF0B5DE46B1
:100F500057464E464546E0B589B007000191FFF778
:100F600035FF8046FFF712FF00239946002415E065
:100F7000012251463000FFF72DFF2B0005009D4256
:100F8000F6D1B300DB591D40AA46AB421ED1B600D4
:100F9000F059FFF785FF81440134E4B2260044454F
:100FA0003EDAA300DB59002BF6D033000C335B0094
:100FB0009A46BA44012251463000FFF70BFF050064
:100FC000B300DB598342E2D0431ED8E7194801F051
:100FD00013F903AD03902C713000FFF757FF059014
:100FE0003000FFF7F5FE287300230793B300DB59A9
:100FF00052465A40934680252D0600E06D085B4618
:10100000002B09D05B461D42F8D06B409B460795EC
:1010100003A8019B9847F1E7B3005246DA51B6E7BF
:10102000FFF7CEFE484609B0F0BCBB46B246A94623
:10103000A046F0BD0040054030B50500FC2252003E
:101040000F4B01E001330A00511E002A02D01C7828
:10105000032CF7D100290FD0981C59782960FF295B
:1010600000D030BD032A09DD9A7812022A60181DCB
:10107000DB781A432A60F4E70020F2E70020F0E76B
:101080000881054010B5054C0221200000F0D8FF72
:10109000A1214900200000F0A1FF10BD0080054003
:1010A000F0B5D6464F4680B583B004000F000192DC
:1010B00099460AAB20CB1B78002802D00268002A90
:1010C00000D100BE3A799246002B3BD1002673191D
:1010D000012552465540EDB26A005219D518636891
:1010E0005B19802189008B4243DCA168994242DB75
:1010F000636021680023E360216153466375237DAB
:10110000DB015046000103435BB2484603430B70CA
:1011100001281CD04E70CD1C00238B70AD18019B94
:10112000032B19D0019B062B1DD0396832002800F3
:1011300001F02AF9AD192560012003B0C0BCBA4600
:10114000B146F0BD386801F06DF90600BFE74870A0
:10115000CD1C731C8B70E1E751332B70153B334072
:101160006B700235E1E74F332B703B7A6B700235C1
:10117000DBE70020E1E70020DFE7FFFF10B5130009
:10118000D0221206944661440200024800F080FE1C
:1011900010BDC0460040034010B5054C200000F0D3
:1011A00021FF8823184381B2200000F017FF10BDF3
:1011B0000080054010B5074C200000F013FF882385
:1011C000984381B2200000F009FF034B01225242F4
:1011D0001A6010BD008005402801001030B583B0B2
:1011E000040043061CD4002523070DD51C4B1B68A7
:1011F000013309D01A4B1B6803229343194A9446C2
:101200006344194A12681A6081235B001C4201D1B1
:10121000240601D5FFF7CEFF002D1DD103B030BD50
:10122000FFF7C8FF114B1B68082294431B041B0CDB
:10123000032B01D10025D7E701A8FFF7FDFE002809
:1012400008D0019BC0180A4B9C466044044B1860B0
:101250000125C9E70025C7E7FFF732FBDEE7C046F7
:10126000280100100081054024010010088105407C
:10127000007FFABF10B503490C22034801F084F83F
:1012800010BDC046AC2600000081054010B5084BDB
:10129000012252421A60FFF7F5FEFFF7EBFF054906
:1012A000054800F0A7FE054B802292011A6010BD90
:1012B00028010010FF0100000080054000E100E06F
:1012C00070B504000D001E00002801D0002900D1D7
:1012D00000BEAB0700D000BE0B2A01DD930700D093
:1012E00000BEA26000232361E360A67508490C22BA
:1012F000280001F049F8002E07D10C23ED18013326
:10130000636025600123237570BD0A23F6E7C0469C
:10131000AC26000000B583B0002902D00B68002B7A
:1013200000D100BE0123019304330093043B032248
:10133000FFF7B6FE03B000BD00B583B0002902D0B0
:101340000B68002B00D100BE0123019302330093F0
:10135000013B0422FFF7A4FE03B000BD70B50400FA
:101360001500002804D00368002B01D0002900D10B
:1013700000BEE8221201D0231B06CB1893421DD9D0
:10138000002063685B198022920093421DDCA268F2
:101390009A421CDBE2685219667D002E01D0FF2ABA
:1013A00017DC6360E26000280AD020682A00FFF79B
:1013B000E5FE23685B192360012070BD0120E0E792
:1013C00020682A0000F0E0FFF3E70020F5E70020A6
:1013D000F3E70020F1E7002805D00368002B02D0D6
:1013E0000369002B00D100BE03699978C2685218C6
:1013F000417D002903D09A700023037570470021B6
:101400009970D970111219715A71F5E7F8B5041E67
:1014100002D00368002B00D100BE6668A37D002BBC
:101420001BD035000B3D032D07DD2369002B17D0A2
:101430002269137840210B431370206809239B1BFA
:10144000C018A37D002B18D0FE2D16DD0236802398
:101450009B009E4206DD00203BE035000D3DE2E7AB
:1014600000BEE5E70023A375811C04302A0000F0CC
:101470008FFF23680233236003E0002B01D1FE2D90
:1014800028DD23685A1C2260FE221A702768BF1BC1
:10149000B30702D003239E430436276066601C4BCB
:1014A0001B68013303D01A4B1B68B3421ED33200B2
:1014B0003900184800F068FFFE2D21DD2B062D02B3
:1014C000FF22120415402B43134D1D43134B1D6087
:1014D0000120F8BD023E0133A375011D02302A0030
:1014E00000F056FF2368023B2360CAE7084B1B68E5
:1014F00003229343FA580A4B1A60FFF74DFED6E7D2
:10150000064B1B68074A13402D021D43DEE7C04609
:10151000280100100081054003FF000008810540FC
:1015200024010010FF00FFFFF0B5D6464F464646A7
:10153000C0B5002804D0002902D00368002B00D1D8
:1015400000BE00234B608B60C36043689C46046808
:10155000002B00D188E00461227807271740BA46A3
:10156000082515401026164033005F1EBB41520966
:1015700001273A400A739A009B1A07336A426A416C
:101580009B1A9C4500DA75E06246D31A6278904651
:101590001700002E25D0E61CA278002D2DD034781F
:1015A000A1460136444614194C44A34264DB1B1B7C
:1015B00043605346022B4DD024D8002B30D0012B52
:1015C0001ED1012F5CD1731C3478002D00D04B4408
:1015D000013A542C2FD0552C56D14F3C0C705E1C28
:1015E00024E0A6783606E278120416432279120225
:1015F0003243A61D64792243CFE70024A146D1E7F8
:10160000002032E0042B09D105230B704E604346C5
:101610008B604644002D09D04E4407E0002024E0B2
:101620004B4644462343134328D10B70B61806603B
:10163000C260012019E0513C0C705E1C1C781B78C4
:101640005BB2002B1EDB3F2323404E608B60D21A1F
:10165000F618EBE704230B704E6043468B6046445C
:10166000002DE3D04E44E1E70020E0BCBA46B1468D
:10167000A846F0BD0020F8E70020F6E70020F4E7D8
:101680000020F2E70020F0E70020EEE770B584B01C
:10169000041E02D00368002B00D100BE66682568D6
:1016A00001206368002B05DD69462000FFF73CFF41
:1016B0000028F6D16660256004B070BD70B582B0B8
:1016C00004000E001500002801D0002900D100BE42
:1016D000B30700D000BE0B2D01DDAB0700D000BE6C
:1016E00001A8FFF7A9FC002818D0019BC1180E4AD9
:1016F000914215D8AB4215DCA56026601A1E6360C6
:1017000004D101200023E36002B070BD010030006D
:1017100000F03AFE2000FFF7B9FFF3E70020F3E7FF
:101720000020F1E70020EFE7FF820540002804D009
:10173000002902D00368002B00D100BEC368002B33
:1017400003D00B600068C01A704700230B600020B4
:10175000FAE7FFFFF8B5244F380000F047FC04001B
:10176000380000F038FC06003D6AED05ED0D210063
:10177000380000F03FFC2800FFF730FDA30725D517
:10178000E40517D5F6060AD5184B1B78002B15D1A2
:10179000164B01221A700120FFF788F80EE0134B58
:1017A0001B78002B0AD0114B00221A700020FFF783
:1017B0007DF803E00D4B1B78002B00D0F8BD0B4BE0
:1017C00001221A700120FFF771F8F7E7E405F5D55B
:1017D000064B1B78002BF1D0044B00221A7000201E
:1017E000FFF764F8EAE7C0460080054020010010DA
:1017F000BFF34F8F024B034ADA60BFF34F8FFEE710
:1018000000ED00E00400FA05F8B5069F002F01D0B6
:10181000002B01D0002403E000BEFBE70134E4B25A
:10182000BC4209DAE5005E195D5D8542F6D1756856
:10183000002DF3D0A84700E00048F8BD07000100E4
:101840007047FFFF014B18607047C0462C01001025
:10185000F8B500AF05000B001100002B1ADD0029C0
:101860001AD09E1C1C000934E408E4006A46121BCE
:1018700095466C46901C1A0000F086FD25700123E9
:101880006370064B1B68002B02D021003000984784
:10189000BD46F8BD00BEE2E700BEE2E72C01001045
:1018A00010B582B0040008220021684600F074FDE3
:1018B0000D4B00930C2C00D000BE00F0FFFC000785
:1018C00002D5009802B010BD0121084800F0DCFAF2
:1018D00000230093064B1B6801936A4608212000F1
:1018E000FFF7B6FFEDE7C0460F00010000400340E0
:1018F000D40F003010B582B004000A2800D000BE1A
:1019000008236A460549064800F0C2FA6A460821DB
:101910002000FFF79DFF002002B010BD9C0F0000CB
:101920000040034010B584B00400092800D000BE78
:10193000684600F0F9FA6A4610212000FFF788FF98
:10194000002004B010BDFFFF70B582B00500002379
:10195000019372B6082800D000BE154E300000F08A
:1019600019FBA024E405200000F0D4FA80231B0218
:10197000E25810490A40E250E2580F490A40E2504A
:1019800002220A21300000F012FB02220B2130005B
:1019900000F00DFB01AA04212800FFF759FF074BB7
:1019A0001B78002BFBD162B6002002B070BDC04690
:1019B00000400440FFFBFFFFFFF7FFFF7000001037
:1019C00000B583B0032800D000BE0023019301AA14
:1019D0000421FFF73DFFFA20400000F059F9FFF71E
:1019E00007FF10B584B00400022800D000BE0E220C
:1019F0000021684600F0D0FC01236A4653809380A2
:101A000007226946CA800B8100F062FC0A226A4400
:101A100003041B0C1380000C50806A460E2120002A
:101A2000FFF716FF002004B010BDFFFF10B584B013
:101A300000281DD0002925D001280DDD0C783F2C71
:101A40000DD8124B8A1C811E062000902000FFF743
:101A5000DBFE002814D00DE00C780D480AE00D4B99
:101A60008A1C811E072000902000FFF7CDFEF0E7C2
:101A700000240748039003AA04212000FFF7E8FE92
:101A800004B010BD00240248F4E7C0467400001002
:101A90000D0001000000001010B5324C200000F0D5
:101AA00079FAA020C00500F035FA102200212000AC
:101AB00000F07DFA08220121200000F078FA0822C7
:101AC0000221200000F073FA08220321200000F018
:101AD0006EFA08220421200000F069FA082205218C
:101AE000200000F064FA08220621200000F05FFACE
:101AF00008220721200000F05AFA082208212000BD
:101B000000F055FA10220921200000F050FA164B7F
:101B10001B68164A934202D0154A934216D1114CC3
:101B200008220A21200000F042FA08220B2120009E
:101B300000F03DFA0F4800F03DFB0F4800F068F957
:101B40000E4800F067FA00F049F810BD054C0A2273
:101B50000A21200000F02BFA0A220B21200000F0BD
:101B600026FAE7E700400440FC02000021436587B5
:101B70006587214300400540004003400080054048
:101B8000F0B50023002B00DDF0BD02001A41D207A2
:101B900016D50C4C9A00175DA41866780A001A41F5
:101BA00001252A40A478121B54426241D2B23C045F
:101BB000A027FF05BC466444B540B240AD002A51A1
:101BC0000133DFE7B826000010B50100FFF7D8FFAA
:101BD00010BD10B50021FFF7D3FF10BD70B5002474
:101BE000002C03DD0120FFF7F4FF70BD0022072168
:101BF0000A4800F0DCF90A4AA1008B5C52185578BB
:101C00001B04A022D20594466344802000021A5887
:101C10000121A9400A431A500134E1E70040044081
:101C2000B8260000034B1A6A52080723134001200C
:101C3000984070470080044010B5FFF7F3FF0100A3
:101C4000014800F01DFC10BD00127A0010B5041E02
:101C500018D00D4B984200D900BEFFF7EDFF0100F0
:101C60000A4800F00DFC010063011B1B9B001B19BF
:101C7000D80000F008FCE138FF3802B4011C033939
:101C8000FDDC02BC10BDC04600093D0000CA9A3B05
:101C900010B5040005E00948FFF7D8FF084B9C4643
:101CA0006444FA231B019C42F5DC6001001B8000A8
:101CB0000019C000FFF7CAFF10BDC04600093D0073
:101CC00060F0FFFF10B5044980228B58034C204080
:101CD00003438B5010BDC04600800440FCBF1D0074
:101CE00010B5044980228B58034C204083438B500D
:101CF00010BDC04600800440FCBF1D00154B1B6892
:101D0000002B26DB9B0600D000BE124B1A68D30FB7
:101D10009B185B105B00C02292059446634400222E
:101D20000D4904E0088818800233023102323F2A4C
:101D3000F8DD0A4B0A4A0421995006221A60074A24
:101D4000FE231B01D3585B07F9D5024B01225242F7
:101D50001A607047AC0500106C050010004003408D
:101D6000E80F0000F0B5C64600B50600884615002D
:101D70001F00002806DB7319EC221201934222DBBC
:101D800000BE20E000BEF6E7F3173F221A4092198A
:101D9000921192011C4B1A60C0239B05D1181B485D
:101DA000402200F0F1FA14E0184880182200414661
:101DB00000F0EAFA00E000243619002F00D1A04418
:101DC0002D1B002D19DC002D1ADD0F4B1B68002B7D
:101DD000DADB0D4B1A68B21A3F2AECD84024A41A59
:101DE000A54200DC2C00002FDED0434619780748BE
:101DF0008018220000F0D0FADEE7FFF77FFFE2E76D
:101E000080BCB846F0BDC046AC0500106C050010A3
:101E100010B5C0204003FFF755FF042000F022FA60
:101E2000082000F033FA6420FFF710FF042000F0D0
:101E300023FAFFF701FF094B9C466044084900F074
:101E40001FFB0138002806DD064B5861064B0122B6
:101E500052421A6010BD0120F6E7C046D7B805000F
:101E6000D8B8050000400340AC05001010B5FFF7DE
:101E700045FF042000F0F6F9082000F013FAC02016
:101E80004003FFF72DFF10BD10B5FFF737FF10BD62
:101E900070B50C0016001D00002925DB002D25DD86
:101EA000631980225201934200DD00BE2A00C02344
:101EB0009B05E118300000F067FA0F4B1868002806
:101EC00011DBA04214DA201A0C49411830000C4BE7
:101ED000994208D27619864205D9321A402A00DD85
:101EE000402200F051FA70BD00BED7E700BED7E730
:101EF000001B30180149EAE7AC0500106C05001022
:101F0000AC05001010B5080011001A000023FFF7FF
:101F100029FF10BD10B54020FFF7D4FE10BD10B54D
:101F20004020FFF7DDFE10BD30B587B0040014225D
:101F30000021684600F030FAFF230093002C1AD0ED
:101F40003A23059300F0BAF9000716D50025694633
:101F500005A80E4B9847002D14D1009B002B00D0F4
:101F600000BE019B2360029B6360039BA360049BF4
:101F7000E36007B030BD00BEE2E70548FFF776FF3B
:101F80000125E4E70248FFF743FFE6E7F11FFF1FE3
:101F90000040034010B58020C002FFF793FE10BD43
:101FA00080228358090109098B438350704770B51B
:101FB00006000D0014000B2901D9012A04D02402C7
:101FC000240AAD00AC5170BD0B000C3B01219940BF
:101FD000FFF7E6FFF3E74068C0B27047C905C90DD7
:101FE000816170478069C005C00D7047C069C00538
:101FF000C00D704710B5C36908221A40044C23680D
:1020000013432360C905C90D4162416210BDC0463A
:102010003001001070B5040080235B00FE22C25026
:10202000054D00212800FFF7D9FF04492800FFF7DC
:10203000E1FF0023236070BD00800540FF01000028
:10204000043101617047FFFFF0B5C64600B50400DA
:102050000E0090460C4B984212D00C4D0C4F2200B3
:102060002900380000F07CF90300B34342461343D3
:1020700022002900380000F064F980BCB846F0BDA9
:1020800090231B011E43E8E7008003403401001049
:102090002080034010B5140008439022120102432F
:1020A00005490648FFF7D0FF054B1A6904218A430A
:1020B00022431A6110BDC046FF3FF1FF008003407C
:1020C00000ED00E010B50D490D4A0E4800F048F94A
:1020D00090231B011840984205D080231B01984291
:1020E00003D0FF2010BD00BEF7E70449064A0548AB
:1020F00000F036F9C30803201840F3E7340100105C
:1021000000800340208003401880034010B58021E8
:10211000C9010A000148FFF797FF10BD0080034086
:1021200010B5002807D0802212028021090203483E
:10213000FFF78AFF10BD0022F7E7C046008003408A
:1021400010B50449044A054800F00AF95F23984392
:10215000C0B210BD3401001018800340208003403D
:1021600010B50400FFF7ECFF00060ED401235C401D
:10217000E1B2490304220220FFF78CFF30BF0022A6
:1021800000210020FFF786FF10BDFA204000FFF776
:102190007FFDEBE710B50449044A054800F0E0F87C
:1021A0000723184010BDC04634010010348003409E
:1021B0002080034010B58020C000FFF783FD10BDD4
:1021C00010B5020007230B400249034800F0B9F89C
:1021D00010BDC046380100102440054010B50B0268
:1021E0001B0A02000C320249024800F0AAF810BD96
:1021F000380100102440054010B502003032024979
:10220000024800F0ADF810BD380100102440054030
:1022100010B50B0002003032024C2100024800F0E1
:1022200090F810BD380100102440054010B501237E
:102230000B40020014320249024800F082F810BD3F
:10224000380100102440054010B501230B40020066
:1022500020320249024800F074F810BD3801001025
:102260002440054003494B680F22024093434B60D2
:102270007047C0460080044003494B680F2202406B
:1022800013434B607047C0460080044010B5044CB7
:102290008E21890063583F2202409343635010BD52
:1022A0000080044010B5044C8E21890063583F2201
:1022B00002401343635010BD00800440034A8E2344
:1022C0009B00D3583F2018407047C0460080044010
:1022D000024AFD239B00D0587047C046008004404E
:1022E00010B50800FFF7EEFC10BD42680023436004
:1022F00001338360013343608368002BFCD142606B
:102300007047FFFFBFF34F8F024B034ADA60BFF302
:102310004F8FFEE700ED00E00400FA0510B500BEA7
:10232000FFF7F0FF00220368DB0705D4F4239B00CE
:102330009A4201DA0632F6E70368DB0700D400BEF2
:102340007047F8B504000D0016001F00FFF7EAFF04
:102350002B6801332B6037602000FFF7E3FFF8BDE7
:10236000F8B506000C0015000B6801330B60300057
:10237000FFF7D8FF27682B683000FFF7D3FF2868E6
:102380002368BB42F3D1F8BD10B500F0B6F810BD1C
:1023900010B500F0C8F810BD10B500F0D2F810BDAF
:1023A00010B5FEF717F810BD03000B4330B59B07BF
:1023B00008D000240139A2420BD100200FE00430E4
:1023C0000431043A032AF4D904680B689C42F6D01D
:1023D000EFE7035D01340D5DAB42ECD0581B30BD1F
:1023E00003000B4330B59B0715D00023CA5CC254D1
:1023F0000133002AFAD130BD04C304310A68074C06
:10240000141994432C42F7D0D1B21970013300292A
:10241000F1D01212F8E70300014DEFE7FFFEFEFED8
:10242000808080800300032110B51A000B4219D16F
:10243000114C1368114959189943214219D0DCB243
:10244000511C002C0BD0FF242402911C234206D0E7
:10245000FF2109040B40591E8B41D318D91C0130B0
:10246000081A05E001335C1E2478002CDDD1101A17
:1024700010BD0432DDE7C04680808080FFFEFEFE96
:1024800003000B4321D4002931D00122D2070309D4
:1024900001E0090112099942FBD9430801E0490012
:1024A00052089942FBD900E04908401A07D352412B
:1024B000FAD301461046704749084018F7D29218DF
:1024C000FAD34018014610467047CB0F00D049425E
:1024D000021000D54042534008B5FFF7D4FF0CBCB2
:1024E000521000D34042002A00D549421847F44612
:1024F000002000F001F8604770478446830708D148
:102500008B0706D1131F04D304C904C0043BFBD2BC
:102510001A1D524205D0891A801A8B5C83540132ED
:10252000FBD160467047884207D98B18834204D993
:10253000013A8B5C8354FBD1704700B5FFF7DDFF98
:1025400000BD8446043A09D3830707D109060B0A64
:1025500019430B0C1943043A02C0FCD2043203D0D5
:1025600001700130013AFBD16046704774616468C4
:102570006572656E63652F64656D6F2E6E68732E70
:102580006E78702E6C6F6700656E00004164686540
:1025900072656E6365206D6F6E69746F72696E67C8
:1025A00020686173206E6F74207965742073746184
:1025B000727465642E0000004164686572656E6324
:1025C00065206D6F6E69746F72696E6720737461D8
:1025D0007274656420617420202020202020202037
:1025E00020202065706F636820616E64206C6173C9
:1025F0007465642020202020202020202020202EF0
:1026000020416C6C2070696C6C7320617265207461
:10261000616B656E2E0000004164686572656E63D3
:1026200065206D6F6E69746F72696E672073746177
:10263000727465642020202020202020202020206B
:102640002061676F2E2020202070696C6C20207222
:10265000656D61696E202000737400006E64000077
:1026600072640000746800FF88250000010000000B
:10267000000000006461797300FFFFFF686F7572EE
:102680007300FFFF6D696E75746573007365636F2A
:102690006E647300020608090304010809030003BD
:1026A0000506080903040408090300030103E80EF2
:0C26B00046FD01000300000000070107C8
:1026BC005A000000F506000055000000C10600009D
:1026CC00560000008106000057000000250600009F
:1026DC0058000000F10500005D000000AD05000091
:1026EC00000000000000000020237820282020207B
:1026FC002029206166746572202020202020202053
:10270C0020202020200A00FF202320202061667436
:10271C0065722020202020202020202020200A004C
:10272C0001FFFFFF02000000E3190000030000009E
:10273C00C119000008000000491900000900000040
:10274C00251900000A000000F51800000C0000001C
:04275C00A1180000C0
:0400000300000139BF
:00000001FF
