:10000000F01F001039010000450A0000450A0000F9
:10001000450A0000450A0000450A0000450A0000A4
:10002000450A0000450A0000450A0000450A000094
:10003000450A0000450A0000450A0000450A000084
:10004000450A0000450A0000450A0000450A000074
:10005000450A0000450A0000450A0000450A000064
:10006000450A0000450A0000450A0000450A000054
:10007000450A0000450A0000450A0000450A000044
:10008000450A0000450A0000450A0000450A000034
:10009000450A0000450A0000450A0000450A000024
:1000A000450A0000450A0000450A0000450A000014
:1000B000450A0000450A0000450A0000450A000004
:1000C0003C0B0000000000100000000000000010C9
:1000D0000400000010B5002302E010C810C1043372
:1000E0009342FAD310BD002302E0002204C004337F
:1000F0008B42FAD3704710B50C4B07E0186859686B
:100100001C000C349A68FFF7E5FF2300084A93426D
:10011000F4D306E018681C0008345968FFF7E3FFC1
:100120002300044A9342F5D310BDC046C00000002E
:10013000CC000000D400000010B5FFF7DCFF00F099
:1001400089FC00BE00F072FCFFFFFFFFFFFFFFFF16
:10015000FFFFFFFFFFFFFFFFFFFFFFFFFFFFFFFFAF
:10016000FFFFFFFFFFFFFFFFFFFFFFFFFFFFFFFF9F
:10017000FFFFFFFFFFFFFFFFFFFFFFFFFFFFFFFF8F
:10018000FFFFFFFFFFFFFFFFFFFFFFFFFFFFFFFF7F
:10019000FFFFFFFFFFFFFFFFFFFFFFFFFFFFFFFF6F
:1001A000FFFFFFFFFFFFFFFFFFFFFFFFFFFFFFFF5F
:1001B000FFFFFFFFFFFFFFFFFFFFFFFFFFFFFFFF4F
:1001C000FFFFFFFFFFFFFFFFFFFFFFFFFFFFFFFF3F
:1001D000FFFFFFFFFFFFFFFFFFFFFFFFFFFFFFFF2F
:1001E000FFFFFFFFFFFFFFFFFFFFFFFFFFFFFFFF1F
:1001F000FFFFFFFFFFFFFFFFFFFFFFFFFFFFFFFF0F
:10020000FFFFFFFFFFFFFFFFFFFFFFFFFFFFFFFFFE
:10021000FFFFFFFFFFFFFFFFFFFFFFFFFFFFFFFFEE
:10022000FFFFFFFFFFFFFFFFFFFFFFFFFFFFFFFFDE
:10023000FFFFFFFFFFFFFFFFFFFFFFFFFFFFFFFFCE
:10024000FFFFFFFFFFFFFFFFFFFFFFFFFFFFFFFFBE
:10025000FFFFFFFFFFFFFFFFFFFFFFFFFFFFFFFFAE
:10026000FFFFFFFFFFFFFFFFFFFFFFFFFFFFFFFF9E
:10027000FFFFFFFFFFFFFFFFFFFFFFFFFFFFFFFF8E
:10028000FFFFFFFFFFFFFFFFFFFFFFFFFFFFFFFF7E
:10029000FFFFFFFFFFFFFFFFFFFFFFFFFFFFFFFF6E
:1002A000FFFFFFFFFFFFFFFFFFFFFFFFFFFFFFFF5E
:1002B000FFFFFFFFFFFFFFFFFFFFFFFFFFFFFFFF4E
:1002C000FFFFFFFFFFFFFFFFFFFFFFFFFFFFFFFF3E
:1002D000FFFFFFFFFFFFFFFFFFFFFFFFFFFFFFFF2E
:1002E000FFFFFFFFFFFFFFFFFFFFFFFFFFFFFFFF1E
:1002F000FFFFFFFFFFFFFFFFFFFFFFFFFFFFFFFF0E
:1003000070B5334CA54400F077F8324C012202213D
:10031000200000F031FA01220621200000F02CFA22
:1003200001220821200000F027FA012209212000E3
:1003300000F022FA284C200000F034FB01212000BC
:1003400000F0FCFA2368FF229343F83A134323603A
:100350002249200000F0FFFA012000F00BF92DE007
:1003600006AAD3540133AC2252009342F8DD5A243A
:10037000FF34220000215DA800F068FB06AD019566
:10038000002302935DAE03960493059401A800F048
:1003900027F822003100280000F060FB00280FD071
:1003A000002406E0012000F013F9192000F050F9B4
:1003B0000134132CF6DD0A2000F04AF90023D2E7BD
:1003C000012000F005F9FA20400000F041F9F2E7C1
:1003D00030FDFFFF0040044000000440204B0000BF
:1003E00010B501000348436802221343436000F044
:1003F00057FA10BD0000044010B5324C200000F048
:10040000AEF9A020C00500F0A5F9102200212000BF
:1004100000F0B2F908220121200000F0ADF9082215
:100420000221200000F0A8F908220321200000F09A
:10043000A3F908220421200000F09EF908220521DA
:10044000200000F099F908220621200000F094F91C
:1004500008220721200000F08FF90822082120003F
:1004600000F08AF910220921200000F085F9164BCE
:100470001B68164A934202D0154A934216D1114C7A
:1004800008220A21200000F077F908220B21200021
:1004900000F072F90F4800F0ADF90F4800F02CF9A8
:1004A0000E4800F091F900F06FF810BD054C0A22DB
:1004B0000A21200000F060F90A220B21200000F040
:1004C0005BF9E7E700400440FC0200002143658738
:1004D00065872143004005400040034000800540FF
:1004E000F0B50023002B00DDF0BD02001A41D20759
:1004F00016D50C4C9A00175DA41866780A001A41AC
:1005000001252A40A478121B54426241D2B23C0415
:10051000A027FF05BC466444B540B240AD002A5157
:100520000133DFE7380B000070B502000023002024
:10053000002B00DD70BD11001941C90715D50C490C
:100540009D006C5C49194E782404A025ED05AC464D
:1005500064440125B540AD002C59651EAC41897835
:10056000091B4C426141994008430133E0E7C04612
:10057000380B000010B50100FFF7B2FF10BD10B539
:100580000021FFF7ADFF10BD70B50024002C03DD86
:100590000120FFF7F4FF70BD002207210A4800F098
:1005A000EBF80A4AA1008B5C521855781B04A02274
:1005B000D20594466344802000021A580121A940C4
:1005C0000A431A500134E1E700400440380B0000B0
:1005D00010B50400FFF7A8FFC1432000FFF780FF1C
:1005E00010BDFFFF034B1A6A520807231340012076
:1005F000984070470080044010B5FFF7F3FF0100FA
:10060000014800F047FA10BD00127A0010B5041E30
:1006100018D00D4B984200D900BEFFF7EDFF010046
:100620000A4800F037FA010063011B1B9B001B19ED
:10063000D80000F032FAE138FF3802B4011C033967
:10064000FDDC02BC10BDC04600093D0000CA9A3B5B
:1006500010B5040005E00948FFF7D8FF084B9C4699
:100660006444FA231B019C42F5DC6001001B8000FE
:100670000019C000FFF7CAFF10BDC04600093D00C9
:1006800060F0FFFF002803DBFF2802DDFF2002E00F
:1006900000BE022801DDFE231840024A9423D050F8
:1006A0007047C04600800440044A9423D358FF207A
:1006B0001840022801DDFE201840704700800440E9
:1006C00010B5FFF7F1FF01004010034B9C4660445A
:1006D00000F0E0F910BDC04600127A0010B50449E0
:1006E00080228B58034C204003438B5010BDC046E2
:1006F00000800440FCBF1D0010B5C0204003FFF780
:10070000EDFF042000F072F9082000F083F9642066
:10071000FFF77CFF042000F073F9FFF76DFF094B32
:100720009C466044084900F0B5F90138002806DD10
:10073000064B5861064B012252421A6010BD01203F
:10074000F6E7C046D7B80500D8B80500004003401A
:100750004400001010B54020FFF7C0FF10BD10B5D9
:100760008020C002FFF7BAFF10BD80228358090124
:1007700009098B438350704770B506000D001400C3
:100780000B2901D9012A04D02402240AAD00AC515E
:1007900070BD0B000C3B01219940FFF7E6FFF3E72A
:1007A000C905C90D8161704710B5C36908221A4097
:1007B000044C236813432360C905C90D416241629B
:1007C00010BDC0460000001070B5040080235B001F
:1007D000FE22C250054D00212800FFF7E1FF044929
:1007E0002800FFF7E1FF0023236070BD0080054073
:1007F000FF01000010B58020C000FFF76FFF10BDA3
:100800000B68002B06D04A689B5A83604B68023302
:100810004B607047014B8360F8E7C046FFFF000064
:100820000B68002B06D04A689B5C83604B680133E1
:100830004B607047FF238360F8E710B502E0CB6898
:100840000233CB60C3685B070AD5CA680B699A425A
:1008500006D283689BB28C68002CF0D0A352EEE7DE
:1008600010BD10B502E0CB680133CB60C3685B07F5
:1008700009D5CB680A69934205D284688A68002A40
:10088000F1D0D454EFE710BD10B50368034C2340FA
:100890000906090C19430160026110BDFF00FFFF4A
:1008A00070B504000D0000E0A368E36804221600A0
:1008B0001E401A42F8D10323236223681B070BD47E
:1008C00023E029002000FFF79BFFA369DB072ED45C
:1008D00029002000FFF7B1FFEA682B699A4202D392
:1008E0006A6893421FD9E2689207EED56A689A4215
:1008F000EBD2E6E729002000FFF792FFA369DB07B0
:1009000015D429002000FFF7ACFFEA682B699A4252
:1009100002D36A68934206D9E2689207EED56A6804
:100920009A42EBD2E6E72B68002B02D06E683000CB
:1009300070BDAB68002BFAD0EE68F8E7002904D050
:1009400043680422934343607047436804229343FF
:1009500013434360F8E7F8B5CE46474680B5814675
:100960000D00FFF7ADFE8046022701204042002621
:1009700000E02600A8420CD9741C390061434046AF
:1009800000F08BF88542F5D2FF2CF2D90237002611
:10099000F0E73A0031004846FFF776FFC0BCB946A1
:1009A000B046F8BD10B504000E4B984200D000BE12
:1009B0008020FFF793FEFFF715FEFFF763FE01208F
:1009C00000F01EF863680422934363602368FB32DF
:1009D0009343F83A1343236003492000FFF7BBFF1A
:1009E00010BDC04600000440A086010003494B68CA
:1009F0000F22024093434B607047C0460080044082
:100A000003494B680F22024013434B607047C046B6
:100A10000080044010B5044C8E21890063583F22A9
:100A200002409343635010BD00800440BFF34F8FDA
:100A3000024B034ADA60BFF34F8FFEE700ED00E0A0
:100A40000400FA0510B500BEFFF7F0FF10B500F086
:100A50005EF810BD10B5FFF753FC10BD03000B434B
:100A600030B59B0708D000240139A2420BD10020E9
:100A70000FE004300431043A032AF4D904680B6807
:100A80009C42F6D0EFE7035D01340D5DAB42ECD044
:100A9000581B30BD03000B4321D4002931D0012263
:100AA000D207030901E0090112099942FBD9430861
:100AB00001E0490052089942FBD900E04908401A78
:100AC00007D35241FAD301461046704749084018EF
:100AD000F7D29218FAD34018014610467047CB0F50
:100AE00000D04942021000D54042534008B5FFF7FC
:100AF000D4FF0CBC521000D34042002A00D549421A
:100B00001847F446002000F001F86047704784461B
:100B1000043A09D3830707D109060B0A19430B0CC2
:100B20001943043A02C0FCD2043203D001700130F0
:0C0B3000013AFBD1604670470007010746
:0400000300000139BF
:00000001FF
