:10000000F01F0010390100000D1300000D13000057
:100010000D1300000D1300000D1300000D13000060
:100020000D1300000D1300000D1300000D13000050
:100030000D1300000D1300000D1300000D13000040
:100040000D1300000D1300000D1300000D13000030
:100050000D1300000D1300000D1300000D13000020
:100060000D1300000D1300000D1300000D13000010
:100070000D130000F90C00000D1300000D1300001B
:100080000D1300000D1300000D1300000D130000F0
:100090000D1300000D1300000D1300000D130000E0
:1000A0000D1300000D1300000D1300000D130000D0
:1000B0000D1300000D1300000D1300008904000053
:1000C000903F000000000010DC010000DC01001087
:1000D000FC01000010B5002302E010C810C1043379
:1000E0009342FAD310BD002302E0002204C004337F
:1000F0008B42FAD3704710B50C4B07E0186859686B
:100100001C000C349A68FFF7E5FF2300084A93426D
:10011000F4D306E018681C0008345968FFF7E3FFC1
:100120002300044A9342F5D310BDC046C00000002E
:10013000CC000000D400000010B5FFF7DCFF01F098
:10014000E9F800BE01F0D6F8FFFFFFFFFFFFFFFF59
:10015000FFFFFFFFFFFFFFFFFFFFFFFFFFFFFFFFAF
:10016000FFFFFFFFFFFFFFFFFFFFFFFFFFFFFFFF9F
:10017000FFFFFFFFFFFFFFFFFFFFFFFFFFFFFFFF8F
:10018000FFFFFFFFFFFFFFFFFFFFFFFFFFFFFFFF7F
:10019000FFFFFFFFFFFFFFFFFFFFFFFFFFFFFFFF6F
:1001A000FFFFFFFFFFFFFFFFFFFFFFFFFFFFFFFF5F
:1001B000FFFFFFFFFFFFFFFFFFFFFFFFFFFFFFFF4F
:1001C000FFFFFFFFFFFFFFFFFFFFFFFFFFFFFFFF3F
:1001D000FFFFFFFFFFFFFFFFFFFFFFFFFFFFFFFF2F
:1001E000FFFFFFFFFFFFFFFFFFFFFFFFFFFFFFFF1F
:1001F000FFFFFFFFFFFFFFFFFFFFFFFFFFFFFFFF0F
:10020000FFFFFFFFFFFFFFFFFFFFFFFFFFFFFFFFFE
:10021000FFFFFFFFFFFFFFFFFFFFFFFFFFFFFFFFEE
:10022000FFFFFFFFFFFFFFFFFFFFFFFFFFFFFFFFDE
:10023000FFFFFFFFFFFFFFFFFFFFFFFFFFFFFFFFCE
:10024000FFFFFFFFFFFFFFFFFFFFFFFFFFFFFFFFBE
:10025000FFFFFFFFFFFFFFFFFFFFFFFFFFFFFFFFAE
:10026000FFFFFFFFFFFFFFFFFFFFFFFFFFFFFFFF9E
:10027000FFFFFFFFFFFFFFFFFFFFFFFFFFFFFFFF8E
:10028000FFFFFFFFFFFFFFFFFFFFFFFFFFFFFFFF7E
:10029000FFFFFFFFFFFFFFFFFFFFFFFFFFFFFFFF6E
:1002A000FFFFFFFFFFFFFFFFFFFFFFFFFFFFFFFF5E
:1002B000FFFFFFFFFFFFFFFFFFFFFFFFFFFFFFFF4E
:1002C000FFFFFFFFFFFFFFFFFFFFFFFFFFFFFFFF3E
:1002D000FFFFFFFFFFFFFFFFFFFFFFFFFFFFFFFF2E
:1002E000FFFFFFFFFFFFFFFFFFFFFFFFFFFFFFFF1E
:1002F000FFFFFFFFFFFFFFFFFFFFFFFFFFFFFFFF0E
:1003000030B5144CA54401AA134B31CB31C2802225
:100310000123920004A984A800F094FA01A984A8FA
:1003200000F0DEFA002806D184A800F041FB8B2300
:100330009B009D4430BD094C200002F087FC020068
:10034000210084A800F0DCFA0028EDD084A800F099
:1003500014FBE9E7D4FDFFFFD43E0000E43D0000BC
:1003600070B5204CA54403A91F4B1A000C3270CA6B
:1003700070C16A46183331CB31C28022012392000A
:1003800086A800F05FFA194A19482A23EA2101F0E9
:100390001DFD03A986A800F07FFA00280CD169464C
:1003A00086A800F08BFA002811D186A800F000FB87
:1003B0008C239B009D4470BD0D49E92286A800F066
:1003C0009FFA0028EBD086A800F0D7FAE7E70949A2
:1003D000EA2286A800F094FA0028E6D086A800F069
:1003E000CCFAE2E7D0FDFFFFD43E0000B43D0000B0
:1003F000F00000100400001010B5204CA5440023AC
:1004000001938022920006A986A800F029FC00280A
:1004100006D18C239B009D4410BD019AEA2A1FD966
:1004200002A986A800F052FB0028F2D001A986A8F4
:1004300000F04EFC02AB1B78032BEED0042BEFD167
:10044000019AEA2AECD80E4C0100200000F068FF67
:100450000198EA22121A0019002100F069FFDFE773
:10046000084C0100200000F05BFF0198EA22121AFC
:100470000019002100F05CFFD2E7C046D0FDFFFF6D
:1004800004000010F00000100123A021C905024A59
:100490008B50024A137070471C800000DD01001071
:1004A00010B5041E05D0012000F032FD034B1C7076
:1004B00010BD012000F031FDF8E7C046000000103B
:1004C000014B01221A707047DC01001010B500F0DA
:1004D00061FC00F09DF901220C212E4800F096FEEF
:1004E0002D4C200000F096FD0121200000F062FD5F
:1004F0000121200000F07EFD0021200000F051FDD0
:10050000264B802212061A60A021C905244A8B5866
:10051000012003438B501CE00020FFF721FF214BFB
:100520001B78392B08D00133DBB21E4A13701E4AE8
:1005300013780133137008E03023F6E71B4B1B7868
:10054000002B20D10A2000F0BFFD194B1B78002B97
:10055000F4D1012000F00AFD164B1B78002B07D0C8
:10056000144B00221A70144A137801214B40137067
:100570000F4B1B78002BE8D00F4B1B78002BCBD0F8
:10058000FFF7BEFEE1E7094B00221A70FFF734FFC8
:10059000D8E7C0460040044000C0014000E100E050
:1005A00010800000F000001004000010DC010010BA
:1005B00000000010DD010010DE01001030B5050064
:1005C000FC2252000F4B01E001330A00511E002AA9
:1005D00002D01C78032CF7D100290FD0981C597831
:1005E0002960FF2900D030BD032A09DD9A78120264
:1005F0002A60181DDB781A432A60F4E70020F2E72E
:100600000020F0E70881054010B5054C02212000CC
:1006100000F046FEA1214900200000F00EFE10BDB2
:1006200000800540F0B5D6464F4680B583B0040043
:100630000F00019299460AAB20CB1B78002802D00C
:100640000268002A00D100BE3A799246002B3BD1C5
:1006500000267319012552465540EDB26A00521921
:10066000D51863685B19802189008B4243DCA1683F
:10067000994242DB636021680023E36021615346B5
:100680006375237DDB015046000103435BB248469E
:1006900003430B7001281CD04E70CD1C00238B70BF
:1006A000AD18019B032B19D0019B062B1DD0396877
:1006B0003200280000F034FEAD192560012003B09F
:1006C000C0BCBA46B146F0BD386802F0BFFA0600B9
:1006D000BFE74870CD1C731C8B70E1E751332B7062
:1006E000153B33406B700235E1E74F332B703B7A9B
:1006F0006B700235DBE70020E1E70020DFE7FFFF5A
:1007000010B51300D022120694466144020002483C
:1007100000F030FD10BDC0460040034010B5054C50
:10072000200000F08EFD8823184381B2200000F0E5
:1007300084FD10BD0080054010B5074C200000F07E
:1007400080FD8823984381B2200000F076FD034BA2
:10075000012252421A6010BD00800540E4010010E1
:1007600030B583B0040043061CD4002523070DD503
:100770001C4B1B68013309D01A4B1B68032293439F
:10078000194A94466344194A12681A6081235B002F
:100790001C4201D1240601D5FFF7CEFF002D1DD14B
:1007A00003B030BDFFF7C8FF114B1B68082294430C
:1007B0001B041B0C032B01D10025D7E701A8FFF771
:1007C000FDFE002808D0019BC0180A4B9C466044DF
:1007D000044B18600125C9E70025C7E7FFF770FE45
:1007E000DEE7C046E401001000810540E001001092
:1007F00008810540007FFABF10B503490C22034869
:1008000000F08EFD10BDC046F83E0000008105409E
:1008100010B5084B012252421A60FFF7F5FEFFF7B0
:10082000EBFF0549054800F015FD054B80229201BC
:100830001A6010BDE4010010FF01000000800540B7
:1008400000E100E070B504000D001E00002801D09A
:10085000002900D100BEAB0700D000BE0B2A01DD8D
:10086000930700D000BEA26000232361E360A67559
:1008700008490C22280000F053FD002E07D10C235C
:10088000ED180133636025600123237570BD0A23D1
:10089000F6E7C046F83E000000B583B0002902D05C
:1008A0000B68002B00D100BE012301930433009399
:1008B000043B0322FFF7B6FE03B000BD00B583B0D2
:1008C000002902D00B68002B00D100BE0123019348
:1008D00002330093013B0422FFF7A4FE03B000BDE6
:1008E00000B583B0002909D000230193053300939C
:1008F000043B0622FFF796FE03B000BD00BEF3E7FF
:1009000070B504001500002804D00368002B01D046
:10091000002900D100BEE8221201D0231B06CB180B
:1009200093421DD9002063685B1980229200934294
:100930001DDCA2689A421CDBE2685219667D002E1B
:1009400001D0FF2A17DC6360E26000280AD020682B
:100950002A00FFF7D5FE23685B192360012070BDD4
:100960000120E0E720682A0000F0DAFCF3E700202D
:10097000F5E70020F3E70020F1E7002805D0036841
:10098000002B02D00369002B00D100BE03699978C7
:10099000C2685218417D002903D09A700023037564
:1009A000704700219970D970111219715A71F5E7C9
:1009B000F8B5041E02D00368002B00D100BE6668A3
:1009C000A37D002B1BD035000B3D032D07DD2369D4
:1009D000002B17D02269137840210B431370206835
:1009E00009239B1BC018A37D002B18D0FE2D16DDFC
:1009F000023680239B009E4206DD00203BE035004E
:100A00000D3DE2E700BEE5E70023A375811C04303D
:100A10002A0000F089FC23680233236003E0002BE6
:100A200001D1FE2D28DD23685A1C2260FE221A7097
:100A30002768BF1BB30702D003239E4304362760F9
:100A400066601C4B1B68013303D01A4B1B68B34212
:100A50001ED332003900184800F062FCFE2D21DD63
:100A60002B062D02FF22120415402B43134D1D436C
:100A7000134B1D600120F8BD023E0133A375011D1B
:100A800002302A0000F050FC2368023B2360CAE7D2
:100A9000084B1B6803229343FA580A4B1A60FFF76E
:100AA0003DFED6E7064B1B68074A13402D021D4347
:100AB000DEE7C046E40100100081054003FF0000AE
:100AC00008810540E0010010FF00FFFFF0B5D646A9
:100AD0004F464646C0B5002804D0002902D003681E
:100AE000002B00D100BE00234B608B60C3604368C5
:100AF0009C460468002B00D188E004612278072717
:100B00001740BA46082515401026164033005F1ED0
:100B1000BB41520901273A400A739A009B1A0733D6
:100B20006A426A419B1A9C4500DA75E06246D31A14
:100B3000627890461700002E25D0E61CA278002D82
:100B40002DD03478A1460136444614194C44A342B2
:100B500064DB1B1B43605346022B4DD024D8002B73
:100B600030D0012B1ED1012F5CD1731C3478002DA5
:100B700000D04B44013A542C2FD0552C56D14F3C29
:100B80000C705E1C24E0A6783606E2781204164348
:100B9000227912023243A61D64792243CFE7002452
:100BA000A146D1E7002032E0042B09D105230B70C8
:100BB0004E6043468B604644002D09D04E4407E00A
:100BC000002024E04B4644462343134328D10B70B6
:100BD000B6180660C260012019E0513C0C705E1C22
:100BE0001C781B785BB2002B1EDB3F2323404E603A
:100BF0008B60D21AF618EBE704230B704E60434665
:100C00008B604644002DE3D04E44E1E70020E0BC79
:100C1000BA46B146A846F0BD0020F8E70020F6E746
:100C20000020F4E70020F2E70020F0E70020EEE7E4
:100C300070B584B0041E02D00368002B00D100BE42
:100C40006668256801206368002B05DD6946200081
:100C5000FFF73CFF0028F6D16660256004B070BD48
:100C600070B582B004000E001500002801D00029E4
:100C700000D100BEB30700D000BE0B2D01DDAB07D5
:100C800000D000BE01A8FFF799FC002818D0019BF6
:100C9000C1180E4A914215D8AB4215DCA5602660FA
:100CA0001A1E636004D101200023E36002B070BD0E
:100CB0000100300000F034FB2000FFF7B9FFF3E73C
:100CC0000020F3E70020F1E70020EFE7FF82054076
:100CD000002804D0002902D00368002B00D100BEF8
:100CE000C368002B03D00B600068C01A7047002354
:100CF0000B600020FAE7FFFFF8B5244F380000F042
:100D0000A4FA0400380000F095FA06003D6AED05EB
:100D1000ED0D2100380000F09DFA2800FFF720FDBE
:100D2000A30725D5E40517D5F6060AD5184B1B7879
:100D3000002B15D1164B01221A700120FFF7B0FBD2
:100D40000EE0134B1B78002B0AD0114B00221A70B7
:100D50000020FFF7A5FB03E00D4B1B78002B00D014
:100D6000F8BD0B4B01221A700120FFF799FBF7E742
:100D7000E405F5D5064B1B78002BF1D0044B00227F
:100D80001A700020FFF78CFBEAE7C04600800540A0
:100D9000DF01001010B5324C200000F02AFAA0202C
:100DA000C00500F021FA10220021200000F02EFAE8
:100DB00008220121200000F029FA08220221200047
:100DC00000F024FA08220321200000F01FFA082274
:100DD0000421200000F01AFA08220521200000F06A
:100DE00015FA08220621200000F010FA0822072137
:100DF000200000F00BFA08220821200000F006FA7B
:100E000010220921200000F001FA164B1B68164A37
:100E1000934202D0154A934216D1114C08220A215E
:100E2000200000F0F3F908220B21200000F0EEF979
:100E30000F4800F038FA0F4800F06EF90E4800F045
:100E400019FA00F06FF810BD054C0A220A212000A3
:100E500000F0DCF90A220B21200000F0D7F9E7E7C7
:100E600000400440FC020000214365876587214360
:100E7000004005400040034000800540F0B50023DD
:100E8000002B00DDF0BD02001A41D20716D50C4C34
:100E90009A00175DA41866780A001A4101252A40B5
:100EA000A478121B54426241D2B23C04A027FF0531
:100EB000BC466444B540B240AD002A510133DFE77F
:100EC000043F000070B5020000230020002B00DD6D
:100ED00070BD11001941C90715D50C499D006C5C06
:100EE00049194E782404A025ED05AC46644401253B
:100EF000B540AD002C59651EAC418978091B4C42A8
:100F00006141994008430133E0E7C046043F0000D7
:100F100010B50100FFF7B2FF10BD10B50021FFF7BB
:100F2000ADFF10BD70B50024002C03DD0120FFF7DC
:100F3000F4FF70BD002207210A4800F067F90A4A51
:100F4000A1008B5C521855781B04A022D205944650
:100F50006344802000021A580121A9400A431A5014
:100F60000134E1E700400440043F000010B50400F4
:100F7000FFF7A8FFC1432000FFF780FF10BD10B5A9
:100F800004000005000D240B002207E0012323408C
:100F9000911D49008B40184364080132072AF5DD92
:100FA00010BD036804229343012900D0002213439B
:100FB0000360704770B505000C03240B2000FFF799
:100FC000DEFF0100024800F01AF9AC6170BDC046B6
:100FD0000040044070B505000C03240B2000FFF70F
:100FE000CEFF0100024800F00AF9EC6170BDC04676
:100FF0000040044003690222934349000A4013431E
:10100000036170470F230B40836270470F230B402F
:101010004363704710B50400202000F05FF9802082
:10102000400200F06BF800212000FFF7EBFF0F21DA
:101030002000FFF7EBFF00232360202222612362C0
:10104000054B636200212000FFF7B4FF0021200060
:10105000FFF7C0FF10BDC046FFFF0000034B1A6A38
:101060005208072313400120984070470080044035
:1010700010B5FFF7F3FF0100014802F0A9F910BD18
:1010800000127A0010B5041E18D00D4B984200D9FA
:1010900000BEFFF7EDFF01000A4802F099F90100D8
:1010A00063011B1B9B001B19D80002F094F9E13867
:1010B000FF3802B4011C0339FDDC02BC10BDC04680
:1010C00000093D0000CA9A3B10B5040005E009483C
:1010D000FFF7D8FF084B9C466444FA231B019C424F
:1010E000F5DC6001001B80000019C000FFF7CAFF9B
:1010F00010BDC04600093D0060F0FFFF10B5044977
:1011000080228B58034C204003438B5010BDC046B7
:1011100000800440FCBF1D0010B5C0204003FFF755
:10112000EDFF042000F0C6F8082000F0D7F8642096
:10113000FFF7A8FF042000F0C7F8FFF799FF094B5D
:101140009C466044084902F043F90138002806DD56
:10115000064B5861064B012252421A6010BD012015
:10116000F6E7C046D7B80500D8B8050000400340F0
:101170001804001070B50C0016001D00002925DBB6
:10118000002D25DD631980225201934200DD00BE4F
:101190002A00C0239B05E118300000F0C1F80F4B76
:1011A0001868002811DBA04214DA201A0C494118F3
:1011B00030000C4B994208D27619864205D9321A72
:1011C000402A00DD402200F0ABF870BD00BED7E73A
:1011D00000BED7E7001B30180149EAE718040010E9
:1011E000D80300101804001010B54020FFF786FF48
:1011F00010BD10B58020C002FFF780FF10BD802217
:101200008358090109098B438350704770B5060064
:101210000D0014000B2901D9012A04D02402240A4C
:10122000AD00AC5170BD0B000C3B01219940FFF7A4
:10123000E6FFF3E74068C0B27047C905C90D816198
:1012400070478069C005C00D7047C069C005C00DFA
:101250007047FFFF10B5C36908221A40044C236889
:1012600013432360C905C90D4162416210BDC046E8
:10127000E801001070B5040080235B00FE22C2501C
:10128000054D00212800FFF7D8FF04492800FFF78B
:10129000E1FF0023236070BD00800540FF010000D6
:1012A00004310161704710B58020C000FFF726FFB0
:1012B00010BDFFFF03494B680F22024093434B6070
:1012C0007047C0460080044003494B680F2202402B
:1012D00013434B607047C0460080044010B5044C77
:1012E0008E21890063583F2202409343635010BD12
:1012F00000800440BFF34F8F024B034ADA60BFF314
:101300004F8FFEE700ED00E00400FA0510B500BEC7
:10131000FFF7F0FF10B500F097FDFFF7D7F810BD0D
:1013200010B502F0C6FC10BD10B502F0D8FC10BD1F
:1013300010B502F0E2FC10BD10B5425C4318342A2F
:1013400001DC002010BD352A06D11A005478013284
:10135000302CFBD0002CF4D03024013B1A78392AF1
:1013600001D11C70F9E701321A700378302BE8D0F4
:10137000431C002901DA0120E4E7425C5A54013998
:10138000F7E7F8B50A270C008E1F7F420A210500F7
:1013900002F01EF83B0043433035013C5B1963709B
:1013A000B442F3D1F8BDFFFF0EB430B594B017AB23
:1013B00020CB04003C22002105A80493FFF7B8FFCE
:1013C0000A2301220893104B009507930F4B5242BA
:1013D0000293049B05A801930B4B059400F072FD4A
:1013E000079B0400013B0793002B08DB0022059BB1
:1013F0001A70200014B030BC08BC03B0184705A90F
:10140000002001F071FCF4E7FFFFFF7F11140000E2
:10141000F0B5A3B00B930B684C6806930794079B39
:101420001700BA4A1B0C299E0A901340934221D1FF
:101430000023FB70079B069A1B031B0B134301D071
:1014400000F0AFFC079B002B01DA00F0B0FC0B9A18
:10145000AF4B920704D40B9AAE4B520700D5AE4B5C
:1014600069226E2066213A70289A7870B970032537
:10147000136031E320230A9A9A43412A00D1F8E20B
:10148000069807990022002302F062FB041E34D064
:101490008022069B12061800079B9918012315AAA3
:1014A0000C9301F01FFD2E2416901791FA21159D23
:1014B000FF346C43994B8900E01801F089FF98498B
:1014C0000490421B002001F04DFD964B209021918D
:1014D0009C421EDC049B944A5C42944B1C921D93DC
:1014E00001252C421ED11C981D991C9A1D9B01F0B0
:1014F000ADFF64101C901D91F3E700230698079937
:10150000002202F00BFB031E00D0ABE20698079905
:10151000C5E70022864B1C921D93049B002B0BD029
:10152000049CDDE71C981D99209A219B01F08EFFF9
:1015300020902191012CD6D116981799209A219BA1
:1015400002F04CF818901991189819990022794BCB
:1015500002F0FEFA002800D096E0189819990022AF
:10156000754B02F05BFB002800D0A1E01898199998
:1015700002F070FA049B049A05905B420D92002AD7
:1015800000DA0D93049B159C05981C1B02F0B9FA18
:10159000220001F0E7FC1890199100200021049B23
:1015A0001A901B91002B00DB96E05F4A5F4B1C9268
:1015B0001D931E901F911C9A1D9B1C981D99002223
:1015C0001D0014001E9A1F9B0892099322002B00F5
:1015D00002F0BEF8089A099B02F09CF91E901F9138
:1015E0001C941D951C981D990022514B01F02EFF53
:1015F00002000B0000204A4902F0AAF800224C4BDE
:1016000001F0ECFF1E901F9101250D9C2C4200D093
:1016100096E01C981D991E9A1F9B089209931E9A8A
:101620001F9B0E920F9302000B0002F073F9089AB1
:10163000099B02F06FF90E9A0F9B01F007FF1E90B5
:101640001F911C981D991C9A1D9B01F0FFFE1C9078
:101650001D911C9A1D9B1C981D99002208920993AC
:101660001E9A1F9B0E920F93089A099B02F070F826
:101670000E9A0F9B02F04EF9089A099B1E901F913B
:1016800064101C921D93C1E71898199900222B4BE6
:1016900001F0DCFE049B1890199120982199013BE0
:1016A00004930022254B01F099FF209021914BE7F4
:1016B000189819990022214B01F090FF049B189073
:1016C0001991209821990133049300221B4B01F0BA
:1016D000BDFE2090219140E70023154C1C931D94E2
:1016E000002300241E931F94049B002B00D08BE743
:1016F00018981999169A179B02F05AFA002800D0E8
:101700006DE0059B013B05933CE7C046F07F000080
:10171000083F0000883F00000A3F000084EAFFFF06
:101720000000F03F941100009A9999999999C93F46
:1017300000001440006AF84080842E4100002440DC
:10174000189A199B089209931E9A1F9B1C981D9921
:101750000E920F931E9A1F9B109211931A9A1B9B25
:1017600012921393109A119B02F0D4F8129A139BC1
:1017700001F06CFE0E9A0F9B109011910898099938
:1017800001F064FE02000B001098119902F0C2F8FB
:101790001A901B911C981D99189A199B01F056FEDE
:1017A00018901991189A199B189819990022089263
:1017B00009931A9A1B9B0E920F93089A099B01F0AA
:1017C000C7FF0E9A0F9B02F0A5F8089A099B1A9082
:1017D0001B9118921993012C00D01AE788E7189AE8
:1017E000199B1698179901F0B3FF169017911A9A42
:1017F0001B9B1698179901F0ABFF16901791209A32
:10180000219B1698179901F0E9FE169017911698EA
:1018100017990022C54B01F019FE169017911698E2
:10182000179902F017F9169A179B0400089209936A
:1018300002F067F902000B000898099901F088FF8F
:101840000022BA4B01F002FE1690179116981799D4
:1018500002F000F90890089B002B00DABEE0B44BC0
:10186000089A9A4200DDC0E0002C00DAC4E09C42F5
:1018700000DDC7E0AF4A0599914200DDC8E02000D5
:10188000AD4901F0A5FD0A22059B05005343AA4975
:10189000C3180898059301F09BFD0A22A74B5D43EE
:1018A00043432D195543089A44199B180A225A4359
:1018B000049B0892013B049330250598B91D3D70A7
:1018C000FFF75FFD390020000C31FFF75AFD3900AA
:1018D00008981231FFF755FD00233B75049B0C9AC5
:1018E00005330C999B001343FD74954A002908D1D8
:1018F0000B99944A890704D40B99934A490700D558
:10190000924A28990A6001229343DC17023214405C
:10191000E4180A9BA410672B0ADC602B00DDAAE008
:10192000452B00D1CEE1472B04D0412B00D1B0E0B4
:1019300067230A9380230B9A1B011A4333680B9287
:10194000002B01DC012333603168112900DD1121F6
:1019500038000131FFF7F0FC33682418A34200DCA3
:10196000ABE1221D00DAA8E1621C9B1A33608022E1
:101970000B991201114033680491002C00DB32E115
:101980006242059261425A1C8A4200DBEEE030233B
:1019900002253B70023B7B7033682B9A13602B9BB4
:1019A0001B68002B02DD3E237B55013508230B9A73
:1019B0001A401300049A002A00D17BE1013F002B5A
:1019C00000D089E07B5D302B00D171E13E2B00D14E
:1019D0006EE12E3B5A425341ED1A7DE05C4A089B72
:1019E000944663440893013C35E75A49089A8C466B
:1019F00062440892013433E7554AA418059A013A23
:101A0000059231E7534AA418059A013205922EE750
:101A1000059A9A4200DC4FE70A21100001F0D8FC39
:101A20000A235B424343059A494D9B186B431B199C
:101A30000A210D901800059301F0CAFC0A235B42AD
:101A40004343059A04009B185D43089B0A21E8184C
:101A5000053001F0BDFC049B0890013304930D9BFD
:101A6000059329E705235B4204930C942300089413
:101A7000F6E700233CE70A986138062800D957E7C3
:101A800002F058F9070056FF56FF56FF200175FF78
:101A900058FF079B069C18035A00000B520D1ED0DE
:101AA0002D4BD318082135680B9E0E403100294379
:101AB0001FD10A982949612800D12949501E824125
:101AC00038003032FFF770FC079A05001C4B002AE3
:101AD00000DB1D4B289A1360280023B0F0BD069B45
:101AE000034359424B415B421B499B059B0D5B18CD
:101AF000D8E70A9E1B49612E00D11B49561EB241F0
:101B0000029301902B00380030320094FFF74CFC18
:101B1000DAE70125F8E0013D535D302BFBD03E2B89
:101B2000F9D02E3B5A425341ED1AFCE080842E41FD
:101B30003F420F009F860100A08601006079FEFFF2
:101B40000C3F0000083F0000883F00000A3F0000F3
:101B500040420F00C0BDF0FF01FCFFFF163F000038
:101B60000E3F00002D3F00001E3F0000E3189D1CAB
:101B7000122D03DD13252B9A113B1360049B002BC0
:101B80000FD129003800FFF7D7FB002809D0E34325
:101B900001350593013404D17B783B702E237B7093
:101BA000FDE6059B012B17D02B00BA1C002B16DC81
:101BB00030233B70023B7B700E33BB70059B2A9A2F
:101BC000013B02351360EAE6F95CD154013B002B7E
:101BD000FADC30230135E0E72B007A1CF7E7F95CEB
:101BE000D154013BE2E7E3189D1C0593049B122DA1
:101BF00047DD002B05D113213800FFF79DFB00289E
:101C00001FD113231A00133A511E8A411232A242E5
:101C10001ADD3A00791C091950781070013291428E
:101C2000FAD12E213A19517032682B99A218113A23
:101C30001D000A60002A00D1B8E63E220135FA54A0
:101C4000B4E614230134DDE73A00791EC918507850
:101C5000107001329142FAD13C21FA18013A117008
:101C6000E41A2A9A023414602E22FA5432685D1C57
:101C7000002A00D19AE62B990A603E227A559D1CD3
:101C800094E6002B08D129003800FFF755FB002807
:101C900002D0059D013403353B007A1C1219597896
:101CA000197001339A42FAD12E233C1963707DE6F4
:101CB000013D87E6326813438CE6013B33600A9BA3
:101CC000023B0A933368112B04DD2B9A113B1360FE
:101CD0001123336080230B9A1B011A40356804924C
:101CE0000B9A02351A4204D129003800FFF724FB71
:101CF00024187B780B9A3B70304B134032681343A7
:101D000000D106E72E237B702B9B1B68002B02DD86
:101D10003E237B550135049B002B04D00B9B7A1E80
:101D20001B0700D4F8E628226B469B1818786B1C1A
:101D30007919AE1CFB180332002C01DA644202321E
:101D40000870FA211A7089008C420ADB200001F029
:101D50003FFB030003353033BB552E00184B434384
:101D6000E418632C0CDD2000642101F031FB03003A
:101D70003033BB556423751C2E005B424343E4188B
:101D800020000A2101F024FBC3B20A201A004042BD
:101D9000584330323034BA55B51C0419BE1974702A
:101DA0009AE66E2261201100064BFFF75CFB692268
:101DB0006E206621044BFFF756FBC0460808000062
:101DC00018FCFFFF883F00000C3F00000CB430B54A
:101DD00005000C0097B0002803D100292CD1013454
:101DE00005AD1BAB3C22002107A80693FFF7A0FA24
:101DF0000A23079500250A93114B621E0993114B84
:101E000007A80293069B01931A9B00932B0000F0F6
:101E100059F8099B0400013B0993AB4207DB079B80
:101E20001D70200017B030BC08BC02B01847280055
:101E300007A900F059FFF4E701246442F1E7C04626
:101E4000FFFFFF7F1114000070B5184C18492200E5
:101E5000002000F0DFFF802380225B0000212000B3
:101E6000D20000F0CDFE134C134D220029000120BA
:101E700000F0D0FF802380225B0000212000D200F0
:101E800000F0BEFE0D4B1B68022B0DDD0C4C290033
:101E90002200022000F0BEFF8023802200212000CB
:101EA0005B00D20000F0ACFE70BDC046F80100102F
:101EB0003C3F0000340200103E3F00008C3F000019
:101EC00070020010F0B5C9B00A924F9A070006924E
:101ED00000220B934E9B079218785A1C0C920028F4
:101EE00002D1079849B0F0BD252837D100260C9AB9
:101EF00011000D7801322B2D63D04BD8202D62D0EC
:101F0000232D62D02A2D49D1069B01CB08900028B1
:101F100003DA4042089001204640023115780C91C6
:101F20000693089B089ADB43DB171A4000231392A1
:101F30000D932E2D5CD10C9B1D782A2D4AD00A20A2
:101F400001332A00303AD1B20C9309294BD80D9CA9
:101F50001D78444312190D920133F2E7079B0B9A47
:101F6000DB179A4208DC03D10A9B079A934203D8F5
:101F7000079B013307935DE0BB68013BBB60002B0F
:101F800004DB3B685A1C3A601870F1E7390000F036
:101F9000ABFEEDE72D2D11D0302D18D000230A20F7
:101FA00008932B00303BD9B20C920929B9D8089973
:101FB000157841435B1808930132F2E701231E4371
:101FC00096E70223FBE70423F9E70823F7E78023DA
:101FD0009B00F4E7069B04CB0D920C9A069313002A
:101FE000557802330C930D9B002B25DB10231E43E9
:101FF0006C2D09D10C9B1D786C2D20D15D78602350
:102000001E430C9B02330C93712D4DD01DDC682DAB
:1020100051D06A2D00D1B2E04C2D45D0572D1CDC9B
:10202000412D00D1A6E300DDAEE0002D56D10C9B82
:10203000013B0C930C9B4FE700230D93D8E70C9BBF
:1020400001330C9320231E43DEE7742D00D198E06A
:102050007A2D00D195E0782D40DC280058382028D2
:102060003CD801F06FFEDB013B003B003B003B0036
:102070003B003B003B003B0087033B00AE004D03B1
:102080009600960096003B004D033B003B003B0052
:102090003B00F800EF0245023B003B0019013B000A
:1020A0001A033B003B000B020C9B1D7860231E4370
:1020B0000C9B013309E00C9B1D78682D07D1802310
:1020C0005B001E430C9B5D7802330C9304E00C9B79
:1020D00001330C9380231E43782D9FDD139B320028
:1020E000013B0D9301231A4012921E421DD1202460
:1020F000B60500D51034079B1C93DB171D930D9B71
:10210000013B62D5139B002B00DC0123079A013BA6
:10211000D3180793139B08999A1E0023994202DD56
:10212000139901335B1A9B180D93079B0B9A5E1C46
:10213000DB179A4204DC0CD10A9B079A934208D918
:10214000BB68013BBB60002B60DB3B685A1C3A60FC
:102150001D70129B0796002B00D16BE70124002510
:10216000F3171F930D9B1E960793079B013B52D5B8
:102170000D9B0D9ADB43DB1713409B19FAE64023B6
:102180001E430C9B1D7894E702232A009A43452A9C
:10219000A4D18023DB003343F60601D406220D923E
:1021A0000721069A1E0007328A4303CA00230692BB
:1021B00000220492059300233E903F911A0012934F
:1021C0009FE1069B20CB069388E70D931D9A0B9BFE
:1021D000934204DC0CD10A9B1C9A934208D9BB6839
:1021E000013BBB60002B0CDB3B685A1C3A601C7047
:1021F00001201C9A1D9B002112184B411C921D931B
:102200007DE73900200000F06FFDF1E7390028007C
:1022100000F06AFD9DE707931F9A0B9B934204DC35
:102220000DD10A9B1E9A934209D9BB68013BBB6042
:10223000002B0BDB3B685A1C3A6020221A701E9A56
:102240001F9B12196B411E921F938EE739002020AD
:1022500000F04AFDF3E7069B1A1D730607D5069B9F
:1022600007991B681960C91759600692E2E6B30620
:1022700004D5069B07991B681960F6E7F30504D59A
:10228000069B07991B681970EFE7069B07991B6867
:102290003606F1D51980E8E7069B04CB12923493F9
:1022A000002A01D18B4B1293129800F0CFFC0690BC
:1022B000F30603D50D9A904200DD0692139B069A11
:1022C0009B1A0893320001231A4013921E421AD11E
:1022D0002024B60500D5103401250026079B249341
:1022E000DB172593089B0D930D9B013B36D5089B6F
:1022F000089ADB43DB171340079AD2180792089A13
:10230000013AD31A0893002601240025079B229343
:10231000DB172393069B9E423FDBDB43069ADB17CA
:102320001340079AD3180793349B0693139B002BF3
:1023300000D17FE601240025079B089E2093DB1730
:102340002193013E4BD5089B089ADB43DB171340D2
:10235000079AD3180793349B06936BE60D93259A3F
:102360000B9B934204DC0CD10A9B249A934208D91C
:10237000BB68013BBB60002B0ADB3B685A1C3A6020
:102380001C70249A259B5219734124922593ABE724
:102390003900200000F0A8FCF3E70B9B239A93423E
:1023A00004DC0ED10A9B229A93420AD9BB68013BF6
:1023B000BB60002B0DDB3B685A1C3A60129A925DA1
:1023C0001A70229A239B12196B4101362292239391
:1023D000A0E7129B3900985D00F086FCF1E70B9BAB
:1023E000219A934204DC0DD10A9B209A934209D989
:1023F000BB68013BBB60002B0BDB3B685A1C3A609F
:1024000020221A70209A219B12196B41209221934D
:1024100097E73900202000F067FCF3E74023320003
:102420001A401E421DD00722069B07339343190012
:102430000CC9049205930691802332001A401E4273
:1024400015D06B461B8A049300230593224A330759
:1024500000D5224A224B1293F10652D521490E4053
:102460004FE0069B059202CB04910693E4E7F30547
:10247000ECD56B461B7C05920493E7E740233200C2
:102480001A401E4218D00722069B073393431900B7
:102490000CC9049205930691802332001A401E4213
:1024A00010D06B461B8A0493002305930A4A330716
:1024B00000D50D4A0D4BCEE7069B059202CB049149
:1024C0000693E9E7F305F1D56B461B7C059204936F
:1024D000ECE7C046403F0000883F0000473F000057
:1024E0004F3F0000FFFDFFFF4A3F0000603F00003C
:1024F000069B04CB049200220693A84B0592A84A9F
:102500001293079B3B923893DB1701220A980B9991
:102510003993389B399CC01AA141524208900991C5
:102520003C923D92552000220D9B40A93A93505475
:102530000132202AFBD18222D200164201D101228F
:102540003A926E2D00DD1DE1472D00DDB5E12A0038
:102550005123413AD340012219001140134200D0C7
:10256000EDE10D9180233200DB001A4034921E42CF
:1025700000D1F6E100233A933C9B002B01DD013BA7
:102580003A933D9B3A9A002B02DD013B9B183A930C
:102590000D9B3A9C3B981C1900F058FB139B1C1B8D
:1025A000231A12930123334035937E4B1E4200D1F0
:1025B00004E20023012400251493DB1715933B9BB1
:1025C0005A1C3B921B781393002B00D0F9E1359BEA
:1025D000149C002B13D12025B60500D51035E31728
:1025E000129E16941793013E00D409E2129B129A90
:1025F000DB43DB171340013AE418D31A1293349BE0
:10260000002B00D07EE2E3171094002501241193E3
:102610003A9B013B3A93002B00DB92E20124002518
:10262000109B13931893DB1719930D9B5E1E002BC1
:1026300000DDA5E20D9B0D9ADB43DB171340139AD7
:102640009C1863E2402332001A401E4218D0072231
:10265000069B0733934319000CC904920593069116
:10266000802332001A401E4210D06B461B8A04930E
:10267000002305934C4A330700D54C4A0023EAE671
:10268000069B059202CB04910693E9E7F305F1D589
:102690006B461B7C05920493ECE7402332001A4002
:1026A0001E4220D00722069B0733934319000CC912
:1026B000049205930691802332001A401E4218D0DE
:1026C0006B461B8A04930023059310213300364880
:1026D0000B40020012930E4200D112E7344B1E4011
:1026E000002312930DE7069B059202CB04910693FB
:1026F000E1E7F305E9D56B461B7C05920493E4E71B
:1027000073061CD50722069B0733934319000CC997
:102710000E920F930691330618D56B4638229B5EB6
:102720000E93DB170F930F9B002B17DA0E980F9960
:10273000002342428B41049205931E4A9EE7069B6A
:1027400004CB0E92D2170F920693E4E7F305EAD575
:102750006B4638229B181B785BB2E1E70E9A0F9B01
:1027600004920593144AB30788D40F4A730785D59A
:10277000124A83E710231E4200D00AE51E43033BA2
:102780000D9306E528006F38092800D9E7E001F02D
:10279000C9FAD28BE6E6E6E617E6E68B603F000074
:1027A0004A3F000001020000883F00004D3F00004A
:1027B000FFFDFFFF0C3F0000083F00000A3F000044
:1027C00000230D93049B059A134300D1CAE6049C91
:1027D000059D059B049ADB0752081A43059B2E9220
:1027E0005B082F93049A059B92089B071A43059B4D
:1027F00030929B083193309831992E9A2F9B121862
:102800004B41190710090843190928902991289864
:10281000299912184B411906100A0843190A2A90DF
:102820002B912A982B9912184B411904100C08432C
:10283000190C2C902D912C982D9912184B41002198
:10284000369337913698379912184B415907DB0860
:102850002793D0080023062208432690A4185D4140
:10286000269827990A22002301F00CFA241A8D4198
:102870002B0722091A432B09329233930A22269BF3
:10288000279C32983399C018614128254243049B04
:102890000D9C30339B1A36AA52191355230001336D
:1028A000049005910D938DE700220F2040A9049C10
:1028B000059B1C4319D10D9254E628005838112865
:1028C0004DD801F037FAF1FF4C004C004C004C00A1
:1028D0004C004C004C004C003C004C004C007DFF78
:1028E0003C003C003C004C007DFF049C129B0440DB
:1028F0001C5D059B54541B079C46049B01321D091B
:10290000059B1C0963462B4304930594CFE7049869
:102910000840303098540598013345070498C4089E
:1029200005982543C008049505900498059C20430C
:10293000EDD10D9316E60023072140AAF5E73DAB44
:1029400003933CAB02933AAB01933BAB009328005B
:102950003300509C40AA3EA9A0470D9002E60023F8
:10296000E7E73A9B0D9A9B1A00D410E6349B0EE6DB
:10297000099BAB4203DC0CD1089BA34209D9BB687D
:10298000013BBB60002B14DB3B685A1C3A602022E1
:102990001A7001220023A4185D41129B5A1E131BBA
:1029A000E6D5129B1299DB43DB170B40D21A129229
:1029B00000E63900202000F097F9EAE7002400251E
:1029C000EBE7099B159A934204DC0DD1089B149AFE
:1029D000934209D9BB68013BBB60002B0BDB3B6812
:1029E0005A1C3A60139A1A70149A159B12196B416B
:1029F00014921593E3E53900139800F075F9F3E7A5
:102A0000099B179A934204DC0CD1089B169A9342B7
:102A100008D9BB68013BBB60002B0CDB3B685A1C30
:102A20003A601D700120169A179B002112184B4125
:102A300016921793D7E53900280000F055F9F1E711
:102A4000139A40ABD05CE3173C281ED03E2845D1FA
:102A500025001E003D9B013B3D93002B1CDB099B89
:102A6000B34203DC0CD1089BAB4209D9BB68013BE4
:102A7000BB60002B2DDB3B685A1C3A6030221A7079
:102A800001230024ED186641E4E725001E003C9B6D
:102A9000013B3C93002B01DA2C0030E0099BB34250
:102AA00003DC0CD1089BAB4209D9BB68013BBB607E
:102AB000002B09DB3B685A1C3A6030221A70012354
:102AC0000024ED186641E2E73900302000F00CF9EF
:102AD000F5E73900302000F007F9D1E7099A934271
:102AE00003DB0BD1089BA34208D9BB68013BBB6049
:102AF000002B22DB3B685A1C3A6018700134139B90
:102B0000013313930D9B139A934299DC359B002B51
:102B10000FD001250026E3171B93129B1A940D93E7
:102B20000D9B013B4CD5129B129ADB43DB171340E4
:102B3000E418079B1B19FFF71DFA390000F0D4F8C1
:102B4000DCE7099B119A934204DC0DD1089B109A93
:102B5000934209D9BB68013BBB60002B0BDB3B6890
:102B60005A1C3A6030221A70109A119B12196B414C
:102B7000109211934CE53900302000F0B5F8F3E7DE
:102B8000099B199A934204DC0ED1089B189A934230
:102B90000AD9BB6840AA013BB05CBB60002B0BDBD1
:102BA0003B685A1C3A601870189A199B12196B41AD
:102BB00018921993330039E5390000F095F8F3E7DE
:102BC0000D931B9A099B934204DC0DD1089B1A9A22
:102BD000934209D9BB68013BBB60002B0BDB3B6810
:102BE0005A1C3A6020221A701A9A1B9B5219734180
:102BF0001A921B9394E73900202000F075F8F3E750
:102C0000F0B5C56804000120AE070CD0802080001C
:102C1000824213D08020C000824205D08020400034
:102C200082420BD0FF38F0BD21000123243115432F
:102C3000002021612160E361E560F4E7024F5E1E40
:102C40000120BE42F3D9EEE7FEFFFF00030003219F
:102C500010B51A000B4219D1114C136811495918BB
:102C60009943214219D0DCB2511C002C0BD0FF2417
:102C70002402911C234206D0FF2109040B40591E57
:102C80008B41D318D91C0130081A05E001335C1EB2
:102C90002478002CDDD1101A10BD0432DDE7C046C7
:102CA00080808080FFFEFEFE2022C36810B5934323
:102CB000C3608269836A04009A420CD000F0E4F891
:102CC000E268074B1A4010231343E360A36AA36131
:102CD0002369E3622360E368024A1340E36010BDA6
:102CE000EFCFFFFFBFBFFFFFF8B5474ACB68050036
:102CF0001A400C00CA609B0602D50800FFF7D4FFFB
:102D0000A268E668531C0FDAB3050DD402235B42B8
:102D10009B1AA36090235B023343E36023685A1C31
:102D200022601D70E8B20AE0384A3240022A07D019
:102D30000023A36080333343E36001204042F8BDA9
:102D40008021334B090233408B420AD100212000FD
:102D500000F046FAE3689B0602D52000FFF7A4FFC7
:102D6000E6689023F0225B0233431201E3601642CF
:102D700010D1802760697F0000F0FEFF380000F06E
:102D8000D1F99423E2685B0233431A432061206047
:102D9000E761E26090210901226826690B4216D0A2
:102DA000E36A9A4200D91300991BB34208D1731CFD
:102DB000E3622360E3695A1EA26023633570B1E7C2
:102DC0002200300000F0FAF80028F0D0B5E7511CDE
:102DD000E8B221601070E26A21688A4200D91100CD
:102DE000E269891B22635B0503D40A2801D08A4269
:102DF00098DC002322003000E6622660A36000F029
:102E0000DDF8002899D18DE7FFFFF7FF8A10000059
:102E100010A00000F7B50D0001901000140000F0A4
:102E200091F92B78722B1CD0772B1DD0612B26D1DA
:102E3000144A593B0220691C0327844604260125B5
:102E400008782B2813D0622816D0E260019A6261BC
:102E50001B0704D502220021200000F0C1F9200048
:102E6000FEBD00230122E5E704230222E2E76046DB
:102E70003A4303430131E3E732432B43FAE70024AB
:102E8000EDE7C0460280000070B50400134AE36815
:102E900005691A400168C06AE26082221A40022A6B
:102EA00002D00120404270BDDB030CD5814200D22C
:102EB00001008D4209D10023094AA360E368E5625D
:102EC00013402560E3600020EDE722002800491B45
:102ED00000F074F80028EED0E3E7C046FFFFF7FFEC
:102EE000FFFFFEFFF7B500230192002204000D0052
:102EF00000F014FE002806D0002300200021019AD3
:102F0000136003B0F0BD144A6B0094465B0D2000C3
:102F100029009C44002B16D127002A03120BFE0F18
:102F20005300334380261B031B0B7F003603B24242
:102F300004D20122524294441A00F0E72A0D1205ED
:102F40001A43110038006346019A1360034B044A88
:102F50000B401A431100D4E702FCFFFFFFFF0F8074
:102F60000000E03F70B500231600002204000D00B1
:102F700000F0D4FD002802D00020002170BD6A00BE
:102F8000520D0A4B921920009A4205DD2222084B6D
:102F9000002008491A60F1E7002AEDDD064B5205D2
:102FA00052082B4013431900E8E7C046FE07000013
:102FB000EC0100100000F07FFFFF0F80F7B5D5682F
:102FC0000F00140056690190EB0205D51023300064
:102FD0001D4300F0CBFEA061104B1D420FD030000E
:102FE000A16900F0D5FE002806DA80230120E268FE
:102FF00040421343E3600FE0094B1D40E5603A0097
:103000003000019900F0D0FE4300A2695B08FB1A72
:10301000D318A3610028E8D1FEBDC046100002000D
:10302000EFFFFDFFF7B50027324EC21C346895084C
:10303000B84214D02B000A330093EB1C0193002CF0
:103040000FD10C3000F072F9431C08D080239B058F
:10305000036045608460002F4AD1306021E0002089
:10306000FEBD8021236849058B423ED1A768636875
:10307000002F0DD039688C46802149058C4507D139
:10308000796803338C4663446360BB68A360EDE7F3
:103090009D4208DC0199994205DB80239B05236052
:1030A00020000C30DCE700998B4211D98021890582
:1030B0002160032120008A4380210C305B1B821891
:1030C0004905033B6560A260116053609760C7E7E4
:1030D000002F0AD19B00C01A00F028F90130BED0A1
:1030E00080239B0523606560DAE72700A468A6E7D4
:1030F000B860D6E7F401001010B5002811D0802187
:103100000C38490501608268002A0AD013688B4296
:1031100007D14368546803331B1943609368836085
:10312000F1E710BD10B5FFF77DFF041E05D1172292
:10313000034900F039FE00F00DFE200010BDC0462E
:10314000713F0000F0B5C56804004769066989B0A1
:10315000AB0720D02B0716D400F022F8380000F07F
:10316000FFFD2B0502D53000FFF7C6FF0B4BAD0D61
:10317000AD059D4207D120226846216A00F00EFE6F
:10318000684600F0C9F83C2200212000FEF7D0F884
:10319000002009B0F0BD01204042FAE7000080ADF8
:1031A000F8B5002812D000F0E3F805002800F8BDBB
:1031B00038006043084BC01800F0DAF8002801D04E
:1031C00001256D420134A642F2DCEFE7034B040017
:1031D00005003C271E68F6E7F80100108C3F000050
:1031E000F7B54369C6680193364B04000D000092A1
:1031F0001E420BD0019800F0BFFD071E06D1009BB8
:10320000012B06D0022B2DD0002B06D00227380030
:10321000FEBD200000F05AF82D18002DF6DBB30497
:1032200004D52368E26A9A4200D2E362A369AB4202
:103230000EDCE16A22688A4200D20A002169D018B5
:103240000091401AA84203DB206B1918A94228DC20
:1032500020231E430023A562A36063601A4B1E4017
:10326000E660D4E7019800F081FDE268002804DA06
:10327000802313430127E360C9E7E16A2368994289
:1032800000D90B00A1695B1821695B1A920603D56E
:10329000A26A934200DA1300834200DA0300ED18B9
:1032A000BBE7EB1AB50701D5181AA060F00703D5E4
:1032B0000099521A9A1A6260009AD118202321604C
:1032C0009E43CBE703001000BFCFF7FFC1680200A9
:1032D0008B0705D1212201200E4B40421A60704716
:1032E00020230B4009030AD5002B02D0806A013845
:1032F000F5E793690068C0181369C01AF7E7002B57
:1033000001D0806AEBE70368816900695B18181ACD
:10331000E5E7C046EC01001010B50400FFF796FC8D
:103320000100200000F02EFD10BDFFFF70B50D4D17
:1033300004002B68002B01D10B4B2B6003232E685C
:1033400003349C433419200000F036F8002802D1E1
:103350002C60300070BD0C220126044B76421A60AE
:10336000F7E7C046F00100101C040010EC0100104B
:10337000C36870B503221E0004001640134211D02A
:103380009B0611D5856AFFF78FFCE368094A200088
:103390001340E360FFF778FD0022060029002000BB
:1033A000FFF71EFF300070BD83690568ED180369E3
:1033B000ED1AEAE7FFCFFFFF03000448002803D01F
:1033C00000228342524110007047C04600000000B6
:1033D00003000B4321D4002931D00122D207030975
:1033E00001E0090112099942FBD9430801E04900B3
:1033F00052089942FBD900E04908401A07D35241CC
:10340000FAD301461046704749084018F7D292187F
:10341000FAD34018014610467047CB0F00D04942FE
:10342000021000D54042534008B5FFF7D4FF0CBC52
:10343000521000D34042002A00D549421847F446B2
:10344000002000F001F860477047FFFFF0B51D0055
:103450008BB002900391039B14005A002B00039938
:10346000520D4B40DB0FDB070693002A0DD053496A
:103470008A4204D06B005B0D01D08B421CD1039BB0
:103480004F4A5B00934200D991E04D4A6B00934252
:1034900000D889E04B4A6B00934200D98BE04A4B3D
:1034A000039A0020134200D186E02B4200D183E032
:1034B000069A1A4311006FE0D3180793039B620D1D
:1034C0001F0380233F0B5B031F43EB021343802248
:1034D00012061A43002338001900089200F0D2FBAC
:1034E0000023E2020490059138001900150000F055
:1034F000C9FB0023009101930099019A049B059C4C
:103500005B185441002704930594029B06001A009F
:1035100028003B00390000F0B5FB0C003B003900EF
:10352000029A0990089800F0ADFB2200049C059DCA
:103530003B0080185941801979410A0080211219F5
:103540006B41099C4903A7080743204C07980419BD
:103550008B420CD21E4904008C46100019008018C2
:103560005941FD0F05432A000B0064447F000021F0
:10357000F80F80185941802203001206974203D1A8
:10358000012302009A431300124A944206D81800FD
:10359000069A24050A43A1180BB0F0BD002C03DBEA
:1035A000069A094B1A43069200200699F4E7054A49
:1035B000934200D16EE700200749EDE7FF070000C6
:1035C000FFFFDFFF0000E0FF0000F07F01FCFFFFD6
:1035D00000FCFFFFFD0700000000F87FF0B587B09A
:1035E0000292039300900191019B039A5F00534064
:1035F0007F0D059318D1019B5E00039B5D004D4B31
:103600009C469D421ED8019F039B4B4C1F43274263
:1036100018D02000059BDF0F019BFF0718401C42BC
:1036200000D072E0390067E0444DAF4205D0039B03
:103630005C00640D01D0AC4206D1019B3D4C5E00A4
:10364000A642DAD9002072E0019B3F1BD902009B01
:10365000029A5C0D80231B069C46009B2143DC02E2
:1036600063460B43510D62461D00039BDB020B4377
:103670001343029AD202AB4202D81BD1A24219D9FB
:103680002F4950087F18D9070843352259080023CD
:103690005B00A94206D801D1A04203D80126241A12
:1036A0008D41334324196D41561E212A0CD132001D
:1036B0000493EDE7E9078C4666466008690806430F
:1036C0000D0034001F49DCE7321EE1D1A94208D8C1
:1036D00001D1A04205D801335A425A4104998A18AF
:1036E0000492059A1849D20FD2078F4206D81800C3
:1036F0003F05BF18049AB91807B0F0BD002F01DBD1
:103700000D4B1A4300201100F6E72200039B002016
:103710001A401C4203D13C4321001000ECE76545F0
:1037200002D03C432100E7E73900AE42E4D107492B
:10373000E2E7C0460000E0FF0000F07FFF07000066
:10374000FD030000FE030000FD0700000000F87FFD
:10375000F7B51E0014004E401D000F000200B446D5
:103760000194002E07DA8026360622009B1900F00D
:10377000D1F803B0F0BD8B4204D8019E86420AD333
:103780008B4208D180230F0011001B066344019A6D
:103790005F4001916B405B485B4E390D1D0D4C1B2A
:1037A0000840B04204D13B0300D1A5E00020A7E0CF
:1037B000844204D1002C33D039001000D9E7802690
:1037C00038031B037603000B1B0B304333431F2CC2
:1037D00050D81E00E640801B019E2035E6406C1A42
:1037E000A3403343D51AAA429241019B5242A340BF
:1037F000801A002B05D0013D6A1C544262415B4295
:10380000801AC0225203104253D14000EA0F0243F3
:1038100010006D00DB0F2B4318430239002807D13D
:1038200000200021A5E7180E120202431B020839EE
:10383000500BF8D0500C04D1180F120102431B0199
:103840000439D00C04D1980F920002439B00023936
:10385000100D04D1D80F520002435B000139C80A91
:10386000FF0FB84203D10C051800A11881E7002012
:10387000F9077EE71500352C1BD81F00203CE740D8
:10388000D51BAA4292415242801A2022121B934019
:10389000019AE2401343019A160608D0FF2213430F
:1038A000013D6A1C544262415B42801A01E0002BD8
:1038B000F6D1C20209D401394C050ED0EA0F4000FE
:1038C00010436D00DA0F15435B00104A0C050240EF
:1038D000002B06DB280011194BE70B05200019000F
:1038E00047E70135694269415218802109068B4238
:1038F000F0D101239D43EDE70020002C00D05BE7D1
:10390000034936E7FFF7FFFFFF070000FFFFEFFF68
:103910000000F87FF0B50D0085B01F001600040010
:10392000019028000B003A0031000297039678407E
:1039300009D5802000063B18320020002900FFF73F
:1039400007FF05B0F0BDAF4204D8039A0199019278
:103950002A00029B3B4C3C48160D1F0DF51B3440C2
:10396000844204D1130306D000203849E9E7A54278
:1039700004D1002D61D008001100E2E7802014037B
:103980001B034003240B1B0B044303431F2D28D8A8
:103990001800E840203784460198BF1BE840BB4030
:1039A0000343C91899429B4164445B42E418019B5C
:1039B000BB40A0022FD54D1C694269416418002B01
:1039C00001D102339D43120D63081205D218204B1A
:1039D000510099421BD86D08E4072C4311002000C8
:1039E000AFE7352DE5D81F00203DEF40C919B9429A
:1039F000BF417F42E419202701987F1BE840BB406C
:103A0000034301980006D4D0FF200343D1E70136D9
:103A10000020310595E7013E002B09DA01314A42C9
:103A20004A41A41880221206934201D101239943EE
:103A3000360533190800190083E7D20F2800D10793
:103A40007FE7C046FFF7FFFFFF0700000000F87F99
:103A5000FFFFDFFF0B00400DC9020143802000067D
:103A600008430D4910B51C0D091BC840FF2912D988
:103A7000E024E400404221420DD08021C905080025
:103A80001840194207D0054C00205900A14202D825
:103A9000D80F034BC01810BD1E0400000000E0FF4B
:103AA000FFFFFF7F10B5002828D0030C12D10004BF
:103AB000030E13D10002030F14D10001830F15D19F
:103AC0008000002816DB4000C41263184205100075
:103AD000190010BD80235B04C918E9E780231B048B
:103AE000C918E8E78023DB03C918E7E780239B03B5
:103AF000C918E6E780235B03C918E5E70020002129
:103B0000E7E7C30F10B5D907002B00D04042802350
:103B1000DB05C918FFF7C6FF10BDFFFFF7B51D0095
:103B2000140000900191009E019B6A0032435900ED
:103B3000224301200A4307D00020AB4204D1A64211
:103B400002D1024B8B424041FEBDC0460000E0FF67
:103B5000F7B50F00190006001448394384460DD408
:103B600000205900614508D801309F4205D300204C
:103B70009F4202D1964280414042FEBD7900002022
:103B800001916145F9D859006145F6D80198314352
:103B900011430143081EF0D001209F42EDD80020C0
:103BA0009F42EAD1B24292415042E6E70000E0FF74
:103BB000F0B585B0009001911D000199009B1400A3
:103BC0009C460B00144E03942B430ED400206B0034
:103BD000B34208D80130A94205D30020A94202D13E
:103BE00062469442404105B0F0BD019B00205F0059
:103BF000B742F8D86B00B342F5D80130A942F2D8E9
:103C000002D1039A9445EED2009A134323433B43D7
:103C100058425841E7E7C0460000E0FFF0B585B0E4
:103C2000009001911D000199009B140003930B006B
:103C30000020134F4E002B430DD4BE4209D8013053
:103C4000A94206D80020A94203D12200039B934237
:103C5000404105B0F0BDBE42FBD86B00BB42F8D876
:103C60000130A942F5D303D100202300039AEEE7E7
:103C7000009A13432343334358425841E9E7C0466F
:103C80000000E0FF10B543435143C918040C130C66
:103C90005C43091992B2040C544380B2434350432D
:103CA0002204240C801861411A041B0C801859410D
:103CB00010BD8446830708D18B0706D1131F04D398
:103CC00004C904C0043BFBD21A1D524205D0891A14
:103CD000801A8B5C83540132FBD160467047884266
:103CE00007D98B18834204D9013A8B5C8354FBD1EA
:103CF000704700B5FFF7DDFF00BD8446043A09D3E5
:103D0000830707D109060B0A19430B0C1943043A20
:103D100002C0FCD2043203D001700130013AFBD161
:103D2000604670478C4671460139095C49008E44F3
:103D3000614670478C46411E7144095E49008E44BD
:103D4000614670478C46411E7144095A49008E44B1
:103D50006146704718200149ABBE7047260002003B
:103D600003B469460220ABBE02B0704703B4694693
:103D70000C20ABBE02B0704703B469460920ABBE4D
:103D800002B0704703B469460E20ABBE02B0704764
:103D900003B469460A20ABBE02B070470FB469464F
:103DA0000D20ABBE04B070470FB469460520ABBE12
:103DB00004B07047302048656C6C6F20576F726C90
:103DC00064202564000000006E6873333178782F1A
:103DD0006578616D706C652E6E646566000000002C
:103DE000656E00FF6E78702E636F6D2F4E544147E5
:103DF000534D41525453454E534F52000000000062
:103E000000000000000000000000000000000000B2
:103E100000000000000000000000000000000000A2
:103E20000000000000000000000000000000000092
:103E30000000000000000000000000000000000082
:103E40000000000000000000000000000000000072
:103E50000000000000000000000000000000000062
:103E60000000000000000000000000000000000052
:103E70000000000000000000000000000000000042
:103E80000000000000000000000000000000000032
:103E90000000000000000000000000000000000022
:103EA0000000000000000000000000000000000012
:103EB0000000000000000000000000000000000002
:103EC00000000000000000000000000000000000F2
:103ED000000000FF000000000100000001000000E1
:103EE000E03D00000100000000000000C83D0000AF
:103EF00001000000000000000103E80E46FD010083
:103F000003000000000701072B0020002D0030787F
:103F1000256370256400305825635025640030788F
:103F200025632E252E2A6C6C787025640030582568
:103F3000632E252E2A6C6C58502564007200770081
:103F4000286E756C6C2900305800307800300030D5
:103F500031323334353637383941424344454600EF
:103F600030313233343536373839616263646566EF
:103F7000002A2A2A205F437379735F616C6C6F6338
:103F8000206661696C65640A00FFFFFF080000009D
:103F900001FFFFFF00AABBCCDDEE00000000000027
:103FA0000000000000000000000000000000000011
:103FB0000000000000000000000000000000000001
:103FC00000000000000000000000000000000000F1
:103FD00000000000000000000000000000000000E1
:103FE00000000000000000000000000000000000D1
:103FF00000000000000000000000000000000000C1
:1040000000000000000000000000000000000000B0
:1040100000000000000000000000000000000000A0
:104020000000000000000000000000000000000090
:104030000000000000000000000000000000000080
:104040000000000000000000000000000000000070
:104050000000000000000000000000000000000060
:104060000000000000000000000000000000000050
:104070000000000000000000000000000000FFFF42
:10408000302048656C6C6F20576F726C64000000C4
:104090000000000000000000000000000000000020
:1040A0000000000000000000000000000000000010
:1040B0000000000000000000000000000000000000
:1040C00000000000000000000000000000000000F0
:1040D00000000000000000000000000000000000E0
:1040E00000000000000000000000000000000000D0
:1040F00000000000000000000000000000000000C0
:1041000000000000000000000000000000000000AF
:10411000000000000000000000000000000000009F
:10412000000000000000000000000000000000008F
:10413000000000000000000000000000000000007F
:10414000000000000000000000000000000000006F
:10415000000000000000000000000000000000005F
:0C41600000000000000000000000FFFF55
:0400000300000139BF
:00000001FF
