:10000000F01F001039010000F5170000F51700007F
:10001000F5170000F5170000F5170000F5170000B0
:10002000F5170000F5170000F5170000F5170000A0
:10003000F5170000F5170000F5170000F517000090
:10004000F5170000F5170000F5170000F517000080
:10005000F5170000F5170000F5170000F517000070
:10006000F5170000F5170000F5170000F517000060
:10007000F5170000210D0000F5170000F51700002E
:10008000F5170000F5170000F5170000F517000040
:10009000F5170000F5170000F5170000F517000030
:1000A0002D030000F5170000F5170000F5170000FC
:1000B000F5170000F5170000F5170000F517000010
:1000C000A021000000000010D8010000D80100109D
:1000D000F801000010B5002302E010C810C104337D
:1000E0009342FAD310BD002302E0002204C004337F
:1000F0008B42FAD3704710B50C4B07E0186859686B
:100100001C000C349A68FFF7E5FF2300084A93426D
:10011000F4D306E018681C0008345968FFF7E3FFC1
:100120002300044A9342F5D310BDC046C00000002E
:10013000CC000000D400000010B5FFF7DCFF01F098
:100140008FFB00BE01F04AFBFFFFFFFFFFFFFFFF39
:10015000FFFFFFFFFFFFFFFFFFFFFFFFFFFFFFFFAF
:10016000FFFFFFFFFFFFFFFFFFFFFFFFFFFFFFFF9F
:10017000FFFFFFFFFFFFFFFFFFFFFFFFFFFFFFFF8F
:10018000FFFFFFFFFFFFFFFFFFFFFFFFFFFFFFFF7F
:10019000FFFFFFFFFFFFFFFFFFFFFFFFFFFFFFFF6F
:1001A000FFFFFFFFFFFFFFFFFFFFFFFFFFFFFFFF5F
:1001B000FFFFFFFFFFFFFFFFFFFFFFFFFFFFFFFF4F
:1001C000FFFFFFFFFFFFFFFFFFFFFFFFFFFFFFFF3F
:1001D000FFFFFFFFFFFFFFFFFFFFFFFFFFFFFFFF2F
:1001E000FFFFFFFFFFFFFFFFFFFFFFFFFFFFFFFF1F
:1001F000FFFFFFFFFFFFFFFFFFFFFFFFFFFFFFFF0F
:10020000FFFFFFFFFFFFFFFFFFFFFFFFFFFFFFFFFE
:10021000FFFFFFFFFFFFFFFFFFFFFFFFFFFFFFFFEE
:10022000FFFFFFFFFFFFFFFFFFFFFFFFFFFFFFFFDE
:10023000FFFFFFFFFFFFFFFFFFFFFFFFFFFFFFFFCE
:10024000FFFFFFFFFFFFFFFFFFFFFFFFFFFFFFFFBE
:10025000FFFFFFFFFFFFFFFFFFFFFFFFFFFFFFFFAE
:10026000FFFFFFFFFFFFFFFFFFFFFFFFFFFFFFFF9E
:10027000FFFFFFFFFFFFFFFFFFFFFFFFFFFFFFFF8E
:10028000FFFFFFFFFFFFFFFFFFFFFFFFFFFFFFFF7E
:10029000FFFFFFFFFFFFFFFFFFFFFFFFFFFFFFFF6E
:1002A000FFFFFFFFFFFFFFFFFFFFFFFFFFFFFFFF5E
:1002B000FFFFFFFFFFFFFFFFFFFFFFFFFFFFFFFF4E
:1002C000FFFFFFFFFFFFFFFFFFFFFFFFFFFFFFFF3E
:1002D000FFFFFFFFFFFFFFFFFFFFFFFFFFFFFFFF2E
:1002E000FFFFFFFFFFFFFFFFFFFFFFFFFFFFFFFF1E
:1002F000FFFFFFFFFFFFFFFFFFFFFFFFFFFFFFFF0E
:1003000080B582B000AF0200FB1D1A70FB1D1B7888
:100310001A001F23134001229A40034B1A60C04663
:10032000BD4602B080BDC04600E100E080B500AF30
:100330000D4B180001F0DAF803001A0001231340F6
:100340000ED0094B180001F054F803001A00802366
:100350009B00134004D0044B0121180001F0CAF89F
:10036000C046BD4680BDC0460080064080B582B014
:1003700000AF0200FB1D1A70FB1D1B78002B03D081
:10038000012000F0B3FD02E0012000F0B4FD044BB9
:10039000FA1D12781A70C046BD4602B080BDC04634
:1003A000D601001080B500AF024B01221A70C04682
:1003B000BD4680BDD8010010B0B53A4CA54400AF91
:1003C0007860394B8E2292009B18DB19374A13CA8A
:1003D00013C380239A001823F91886239B00F8186A
:1003E000012300F07BFB00238D229200BA181360DA
:1003F0002EE08D24A4003B191B689B007A68D3185B
:100400001B688C25AD007A1913607B191B68642169
:10041000180001F0B3FC03001A003B191B685B00D5
:100420000333D1B2224AD1547B191B6864211800CE
:1004300001F0A4FC0B001A003B191B6802335B009F
:10044000D1B21B4AD1543B191B6801333A191360CE
:100450008D239B00FB181B68092BCADD0C23FA189F
:100460008624A4003B191100180000F061FB031E54
:100470000BD00F493B19E922180000F06BFB031E5B
:1004800003D03B19180000F0A2FB86239B00FB1849
:10049000180000F0B7FBC046BD468E239B009D446C
:1004A000B0BDC046C8FDFFFFD4FDFFFF481F0000E0
:1004B0000000001080B590B002AF00F07FFC00F0AB
:1004C000F3FA00F0D1F8564B180000F003FE0220BA
:1004D00001F078F9534B180000F0A4FD514B0121B5
:1004E000180000F065FD4F4B0121180000F047FD9A
:1004F0004C4B0021180000F039FD4A4B0121180037
:1005000000F066FD484B01220C21180001F003F8B1
:10051000464A444B1100180000F06AFD424B01228C
:100520001021180000F0F7FF414B180000F0AEFF5B
:100530003F480223009301230922002100F02EFFEF
:100540003B4B1021180000F03DFF394B01211800F2
:1005500000F0C8FF1820FFF7D3FE0A2000F0F4FDDA
:1005600000237B633DE000233B631EE0304B18001B
:1005700000F038FF01F05AF82D4B180000F04AFF48
:100580000300BB62B86A02230122092100F046FF82
:1005900003002849180001F0F1FB03001A00FB6A70
:1005A0009B18FB623B6B01333B633B6B042BDDDD34
:1005B000FB6A0521180001F0E1FB030019003B0074
:1005C0007A6B9200D1500023FB623B007A6B920061
:1005D000D258194B1100180000F0ECF87B6B013376
:1005E0007B637B6B092BBEDD144B1B78DBB2002BCE
:1005F000B6D03B001800FFF7DFFE114B1B78392BFC
:1006000004D00F4B1B780133DAB200E030220C4BE0
:100610001A700C4B1B780133DAB20A4B1A709FE741
:1006200040420F0000C0014000400440DC050000D3
:100630000080064010270000541F0000D601001063
:1006400000000010EC00001000E001300378002BE7
:1006500007D0203BDBB2192B03D8024ADA40D2077D
:10066000F3D470470140FF0330B583B0134D10221F
:100670000921280000F04FFF114C200001F05EF826
:100680002368FF229343E53A1343236096218901AF
:10069000200001F02BF8636802221343636001A974
:1006A00001235B420B80200000F0DAFF11220921B8
:1006B000280000F030FF03B030BDC04600400440C9
:1006C00000000440F0B585B007000E00002404E0EF
:1006D000520069460C4800F0C3FFB4420ED200221B
:1006E0003D5D0A4B6D00E95A5300684619520134CA
:1006F0000132A642ECD9072AF2DDE9E7024BDB68BA
:10070000DB07FBD505B0F0BD00000440641F00000E
:1007100010B50300002101E0013301311A78002AED
:10072000FAD1FFF7CFFF10BD10B50248FFF7F0FF79
:1007300010BDC0465C1F000030B585B004000D0040
:10074000002817DB01AB0022DA729D720E256D4482
:10075000013D0A21200001F011FB303129700A21EE
:10076000200001F00BFB041EF2D12800FFF7D0FFA0
:1007700005B030BD0248FFF7CBFF6442E2E7C04658
:10078000601F000000B585B0020001AB0020587268
:10079000197203A803E030330370120906D00F2347
:1007A00013400138092BF6D93733F5E7FFF7B0FFCF
:1007B00005B000BD0FB410B582B004AB01CB0193FE
:1007C0003AE00130FFF740FF04000378642B18D0B3
:1007D0000BD8002B1DD0582B1CD1019B1A1D019248
:1007E00018680021FFF7CEFF1AE0732B02D0782B98
:1007F000F3D00FE0019B1A1D01921868FFF788FFE4
:100800000EE0019B1A1D019218680021FFF794FF6A
:1008100006E0013C019B1A1D01921868FFF784FF56
:10082000601C09E0013401312378002B01D0252B15
:10083000F8D1FFF747FF20000378002B04D0252BC9
:10084000BFD004000021EFE702B010BC08BC04B028
:100850001847FFFF30B50500FC2252000F4B01E0A6
:1008600001330A00511E002A02D01C78032CF7D154
:1008700000290FD0981C59782960FF2900D030BD7D
:10088000032A09DD9A7812022A60181DDB781A43C0
:100890002A60F4E70020F2E70020F0E70881054035
:1008A00010B5054C0221200000F07EFEA121490078
:1008B000200000F047FE10BD00800540F0B5D64690
:1008C0004F4680B583B004000F00019299460AABF1
:1008D00020CB1B78002802D00268002A00D100BE7D
:1008E0003A799246002B3BD10026731901255246D6
:1008F0005540EDB26A005219D51863685B19802122
:1009000089008B4243DCA168994242DB6360216825
:100910000023E360216153466375237DDB0150466C
:10092000000103435BB2484603430B7001281CD00F
:100930004E70CD1C00238B70AD18019B032B19D07A
:10094000019B062B1DD039683200280000F08EFF75
:10095000AD192560012003B0C0BCBA46B146F0BD58
:10096000386800F0F3FF0600BFE74870CD1C731C29
:100970008B70E1E751332B70153B33406B700235C0
:10098000E1E74F332B703B7A6B700235DBE70020D9
:10099000E1E70020DFE7FFFF10B51300D0221206C9
:1009A000944661440200024800F050FC10BDC0466D
:1009B0000040034010B5054C200000F0C7FD88231F
:1009C000184381B2200000F0BDFD10BD008005403D
:1009D00010B5074C200000F0B9FD8823984381B280
:1009E000200000F0AFFD034B012252421A6010BDFF
:1009F00000800540E001001030B583B004004306DC
:100A00001CD4002523070DD51C4B1B68013309D0CE
:100A10001A4B1B6803229343194A94466344194AAC
:100A200012681A6081235B001C4201D1240601D5A3
:100A3000FFF7CEFF002D1DD103B030BDFFF7C8FF7B
:100A4000114B1B68082294431B041B0C032B01D180
:100A50000025D7E701A8FFF7FDFE002808D0019B7D
:100A6000C0180A4B9C466044044B18600125C9E736
:100A70000025C7E7FFF796FCDEE7C046E00100105F
:100A800000810540DC01001008810540007FFABFAD
:100A900010B503490C22034800F0E8FE10BDC04623
:100AA000642100000081054010B5084B012252422C
:100AB0001A60FFF7F5FEFFF7EBFF0549054800F068
:100AC0004DFD054B802292011A6010BDE00100101F
:100AD000FF0100000080054000E100E070B5040067
:100AE0000D001E00002801D0002900D100BEAB0778
:100AF00000D000BE0B2A01DD930700D000BEA2602B
:100B000000232361E360A67508490C22280000F049
:100B1000ADFE002E07D10C23ED1801336360256074
:100B20000123237570BD0A23F6E7C0466421000047
:100B300000B583B0002902D00B68002B00D100BEA5
:100B40000123019304330093043B0322FFF7B6FE15
:100B500003B000BD70B504001500002804D0036880
:100B6000002B01D0002900D100BEE8221201D023C1
:100B70001B06CB1893421DD9002063685B198022A5
:100B8000920093421DDCA2689A421CDBE268521973
:100B9000667D002E01D0FF2A17DC6360E26000282A
:100BA0000AD020682A00FFF7F7FE23685B1923604C
:100BB000012070BD0120E0E720682A0000F056FE09
:100BC000F3E70020F5E70020F3E70020F1E7002835
:100BD00005D00368002B02D00369002B00D100BEB2
:100BE00003699978C2685218417D002903D09A7030
:100BF00000230375704700219970D9701112197183
:100C00005A71F5E7F8B5041E02D00368002B00D135
:100C100000BE6668A37D002B1BD035000B3D032D65
:100C200007DD2369002B17D02269137840210B437D
:100C30001370206809239B1BC018A37D002B18D0BC
:100C4000FE2D16DD023680239B009E4206DD00202D
:100C50003BE035000D3DE2E700BEE5E70023A3756C
:100C6000811C04302A0000F005FE23680233236053
:100C700003E0002B01D1FE2D28DD23685A1C2260E1
:100C8000FE221A702768BF1BB30702D003239E43BE
:100C90000436276066601C4B1B68013303D01A4B77
:100CA0001B68B3421ED332003900184800F0DEFD45
:100CB000FE2D21DD2B062D02FF22120415402B43B1
:100CC000134D1D43134B1D600120F8BD023E01333F
:100CD000A375011D02302A0000F0CCFD2368023B01
:100CE0002360CAE7084B1B6803229343FA580A4B58
:100CF0001A60FFF75FFED6E7064B1B68074A1340F2
:100D00002D021D43DEE7C046E001001000810540D2
:100D100003FF000008810540DC010010FF00FFFF19
:100D2000F8B5244F380000F015FC0400380000F03E
:100D300006FC06003D6AED05ED0D2100380000F0CF
:100D40000DFC2800FFF758FEA30725D5E40517D5AD
:100D5000F6060AD5184B1B78002B15D1164B01222D
:100D60001A700120FFF702FB0EE0134B1B78002BDB
:100D70000AD0114B00221A700020FFF7F7FA03E0A7
:100D80000D4B1B78002B00D0F8BD0B4B01221A70C5
:100D90000120FFF7EBFAF7E7E405F5D5064B1B78E2
:100DA000002BF1D0044B00221A700020FFF7DEFA6E
:100DB000EAE7C04600800540D901001010B5324C6A
:100DC000200000F09BFBA020C00500F091FA10224B
:100DD0000021200000F09FFB08220121200000F0EC
:100DE0009AFB08220221200000F095FB0822032133
:100DF000200000F090FB08220421200000F08BFB73
:100E000008220521200000F086FB08220621200090
:100E100000F081FB08220721200000F07CFB082263
:100E20000821200000F077FB10220921200000F0AB
:100E300072FB164B1B68164A934202D0154A934226
:100E400016D1114C08220A21200000F064FB082270
:100E50000B21200000F05FFB0F4800F0EFFB0F4874
:100E600000F0C6F90E4800F089FB00F049F810BD0B
:100E7000054C0A220A21200000F04DFB0A220B211A
:100E8000200000F048FBE7E700400440FC020000BF
:100E900021436587658721430040054000400340AA
:100EA00000800540F0B50023002B00DDF0BD0200FE
:100EB0001A41D20716D50C4C9A00175DA418667813
:100EC0000A001A4101252A40A478121B54426241AB
:100ED000D2B23C04A027FF05BC466444B540B240F2
:100EE000AD002A510133DFE77021000010B5010089
:100EF000FFF7D8FF10BD10B50021FFF7D3FF10BDDD
:100F000070B50024002C03DD0120FFF7F4FF70BD55
:100F1000002207210A4800F0FEFA0A4AA1008B5C71
:100F2000521855781B04A022D205944663448020B1
:100F300000021A580121A9400A431A500134E1E77E
:100F4000004004407021000010B504000005000DB1
:100F5000240B002207E001232340911D49008B4010
:100F6000184364080132072AF5DD10BD0368042226
:100F70009343012900D000221343036070470368A4
:100F800008229343012900D00022134303607047D5
:100F900070B505000C03240B2000FFF7D5FF0100FE
:100FA000024800F0B1FAAC6170BDC0460040044098
:100FB00070B505000C03240B2000FFF7C5FF0100EE
:100FC000024800F0A1FAEC6170BDC0460040044048
:100FD00003690222934349000A40134303617047A7
:100FE000036822229343203A134303607047FFFFB4
:100FF00010B580235B01994203DA002902DA00214F
:1010000000E003490905090D8160FFF7E9FF10BD04
:10101000FF0F00000F230B40836270470F230B402C
:101020004363704710B50400202000F0BFFB802010
:10103000400200F0CFF800212000FFF7EBFF0F2166
:101040002000FFF7EBFF00232360202222612362B0
:10105000054B636200212000FFF79AFF002120006A
:10106000FFF7A6FF10BDC046FFFF000010B5041E2D
:1010700002DD012805DC00E000BE00F021F90028B7
:1010800003D0802C17DC002306E000F029F90028AB
:10109000F7DC00BEF5E701336410FCD1074A546267
:1010A000116A0E2081435B001840014311625462B3
:1010B0000123536210BD8024E5E7C0460080044050
:1010C000034B1A6A520807231340012098407047C7
:1010D0000080044010B5011E05DD044800F04EFEFE
:1010E000FFF7C4FF10BD00BEF7E7C04600127A004C
:1010F00010B5FFF7E5FF0100014800F03FFE10BD0D
:1011000000127A0010B5041E18D00D4B984200D979
:1011100000BEFFF7EDFF01000A4800F02FFE0100BE
:1011200063011B1B9B001B19D80000F02AFEE1384D
:10113000FF3802B4011C0339FDDC02BC10BDC046FF
:1011400000093D0000CA9A3B10B5040005E00948BB
:10115000FFF7D8FF084B9C466444FA231B019C42CE
:10116000F5DC6001001B80000019C000FFF7CAFF1A
:1011700010BDC04600093D0060F0FFFF002803DB02
:10118000FF2802DDFF2002E000BE022801DDFE2371
:101190001840024A9423D0507047C0460080044053
:1011A000044A9423D358FF201840022801DDFE2072
:1011B000184070470080044010B5FFF7F1FF0100B0
:1011C0004010034B9C46604400F0D8FD10BDC04663
:1011D00000127A0010B5044980228B58034C20403D
:1011E00003438B5010BDC04600800440FCBF1D006F
:1011F00010B5C0204003FFF7EDFF042000F0C2FA55
:10120000082000F0D3FA6420FFF77CFF042000F0F0
:10121000C3FAFFF76DFF094B9C466044084900F094
:10122000ADFD0138002806DD064B5861064B012252
:1012300052421A6010BD0120F6E7C046D7B805003B
:10124000D8B80500004003401004001070B50C0031
:1012500016001D00002925DB002D25DD63198022E5
:101260005201934200DD00BE2A00C0239B05E11815
:10127000300000F0FBFA0F4B1868002811DBA04289
:1012800014DA201A0C49411830000C4B994208D24C
:101290007619864205D9321A402A00DD402200F034
:1012A000E5FA70BD00BED7E700BED7E7001B3018D7
:1012B0000149EAE710040010D003001010040010E8
:1012C000054B1868C0231B031840044B9C46604420
:1012D000431E9841C0B2704700C003400000F4FFB5
:1012E000024B1B69FF2018407047C04600C00340F6
:1012F00010B54020FFF76EFF10BDFFFF002801D0A2
:10130000014870470148FCE7A025260050C30000B3
:101310000338C3B2082B03D89800084B1B589F46CC
:1013200064207047FA208000FBE73220F9E70A20AA
:10133000F7E70120F5E7C820F3E7C0467421000075
:1013400010B504000005000D240B002207E0012366
:101350002340911D49008B40184364080132072A3D
:10136000F5DD10BD03680422934389000A4013434E
:10137000036070470F230B4083617047C3684022AE
:10138000934389010A401343C3607047C36807222F
:101390001343C3600904090C0161704770B5040070
:1013A00016001D00FFF7DEFF31002000FFF7E2FF0F
:1013B00029002000FFF7E2FF04992000FFF7E6FF75
:1013C00070BDFFFF70B505000C000800FFF7B8FF07
:1013D0000100034800F098F82403240BEC6170BD71
:1013E00000400440036803229343023A134303601E
:1013F000704702000068000280235B001840D36A37
:101400005B02802189000B4018439268032313403C
:101410001843704740680004000C7047F8B504009A
:101420000F0010001E1E27DDFFF768FFC117220006
:10143000002300F00DFDC8225200002300F008FD3B
:1014400004000D003800FFF763FFC11732000023CE
:1014500000F0FEFCFA229200002300F0F9FC0200EA
:101460000B00C90756080E435F0830003900001909
:10147000694100F0BFFCF8BD00BED5E70904090CC6
:10148000016270470904090C4162704710B582B0CF
:101490000400102000F08AF980200002FFF79AFE75
:1014A00000232360A362073363630C4B63616423EF
:1014B0000093633B012200212000FFF76FFF002112
:1014C0002000FFF77FFF00212000FFF7D7FF04492E
:1014D0002000FFF7D7FF02B010BDC046E7030000B1
:1014E000FFFF000007230B4083627047C36A072099
:1014F0001840704707230B404363704710B58020A6
:10150000C002FFF767FE10BD802283580901090958
:101510008B438350704770B506000D0014000B29F3
:1015200001D9012A04D02402240AAD00AC5170BDB7
:101530000B000C3B01219940FFF7E6FFF3E7406801
:10154000C0B27047C905C90D816170478069C00587
:10155000C00D7047C069C005C00D704710B5C369A4
:1015600008221A40044C236813432360C905C90D9F
:101570004162416210BDC046E401001070B5040034
:1015800080235B00FE22C250054D00212800FFF79A
:10159000D9FF04492800FFF7E1FF0023236070BD55
:1015A00000800540FF010000043101617047FFFF2A
:1015B000F0B5C64600B504000E0090460C4B9842AC
:1015C00012D00C4D0C4F22002900380000F034F9E5
:1015D0000300B3434246134322002900380000F0C1
:1015E0001CF980BCB846F0BD90231B011E43E8E700
:1015F00000800340E80100102080034010B5140073
:10160000084390221201024305490648FFF7D0FF24
:10161000054B1A6904218A4322431A6110BDC04652
:10162000FF3FF1FF0080034000ED00E010B5002215
:1016300000210020FFF7E2FF30BF10BD10B5802071
:10164000C000FFF7C7FD10BD10B50368034C234071
:101650000906090C19430160026110BDFF00FFFF7C
:1016600070B5030000E09868DC680425280020407D
:101670002542F8D103241C621C6824072FD40500DE
:101680000600964201D395422ED2DC68A40705D508
:10169000964203D20C789C60013101369C69E407C4
:1016A0001CD4DC686407ECD59542EAD29C6801350D
:1016B000F7E79C680235DC686407FAD4964201D3E8
:1016C00095420FD2DC68A40705D5964203D20C8858
:1016D0009C60023102369C69E407ECD570BD0500C0
:1016E0000600EBE73000F9E73000F7E7F8B5CE4643
:1016F000474680B581460D00FFF75EFD8046022714
:1017000001204042002600E02600A8420CD9741CAB
:1017100039006143404600F034FB8542F5D2FF2C8E
:10172000F2D902370026F0E73A0031004846FFF7C9
:101730008BFFC0BCB946B046F8BDFFFF10B5040032
:101740000E4B984200D000BE8020FFF743FDFFF70C
:10175000B7FCFFF713FD012000F01EF863680422B8
:10176000934363602368FB329343F83A1343236047
:1017700003492000FFF7BAFF10BDC0460000044037
:10178000A086010003494B680F22024093434B603F
:101790007047C0460080044003494B680F22024056
:1017A00013434B607047C0460080044010B5044CA2
:1017B0008E21890063583F2202409343635010BD3D
:1017C0000080044010B5044C8E21890063583F22EC
:1017D00002401343635010BD00800440BFF34F8F9D
:1017E000024B034ADA60BFF34F8FFEE700ED00E0E3
:1017F0000400FA0510B500BEFFF7F0FF00220368F1
:10180000DB0705D4F4239B009A4201DA0632F6E79F
:101810000368DB0700D400BE7047F8B504000D0074
:1018200016001F00FFF7EAFF2B6801332B603760BB
:101830002000FFF7E3FFF8BDF8B506000C00150027
:101840000B6801330B603000FFF7D8FF27682B6867
:101850003000FFF7D3FF28682368BB42F3D1F8BDFF
:1018600010B500F00FF8FEF725FE10BD10B500F022
:1018700006FB10BD10B500F018FB10BD10B500F050
:1018800022FB10BD70B5184C18492200002000F052
:101890008BF8802380225B0000212000D20000F022
:1018A0002FF8134C134D22002900012000F07CF882
:1018B000802380225B0000212000D20000F020F86D
:1018C0000D4B1B68022B0DDD0C4C29002200022061
:1018D00000F06AF880238022002120005B00D20003
:1018E00000F00EF870BDC046F00100109821000015
:1018F0002C0200109A2100009C21000068020010B8
:10190000F0B5C56804000120AE070CD0802080002F
:10191000824213D08020C000824205D08020400047
:1019200082420BD0FF38F0BD210001232431154342
:10193000002021612160E361E560F4E7024F5E1E53
:101940000120BE42F3D9EEE7FEFFFF0003000321B2
:1019500010B51A000B4219D1114C136811495918CE
:101960009943214219D0DCB2511C002C0BD0FF242A
:101970002402911C234206D0FF2109040B40591E6A
:101980008B41D318D91C0130081A05E001335C1EC5
:101990002478002CDDD1101A10BD0432DDE7C046DA
:1019A00080808080FFFEFEFEF7B50D0001901000E4
:1019B000140000F033F82B78722B1CD0772B1DD03D
:1019C000612B26D1144A593B0220691C0327844607
:1019D0000426012508782B2813D0622816D0E2604F
:1019E000019A62611B0704D502220021200000F049
:1019F00063F82000FEBD00230122E5E70423022254
:101A0000E2E760463A4303430131E3E732432B43C5
:101A1000FAE70024EDE7C04602800000F0B5C56893
:101A200004004769066989B0AB0720D02B0716D49C
:101A300000F022F8380000F05BFA2B0502D53000E8
:101A400000F066F90B4BAD0DAD059D4207D120228C
:101A50006846216A00F06AFA684600F0C9F83C223C
:101A600000212000FFF70AFF002009B0F0BD01208F
:101A70004042FAE7000080ADF8B5002812D000F02F
:101A8000C1F805002800F8BD38006043084BC018B5
:101A900000F0B8F8002801D001256D420134A642BB
:101AA000F2DCEFE7034B040005003C271E68F6E775
:101AB000F00100109C210000F7B54369C66801934E
:101AC000364B04000D0000921E420BD0019800F02E
:101AD0001BFA071E06D1009B012B06D0022B2DD02E
:101AE000002B06D002273800FEBD200000F05AF877
:101AF0002D18002DF6DBB30404D52368E26A9A4260
:101B000000D2E362A369AB420EDCE16A22688A423A
:101B100000D20A002169D0180091401AA84203DBC4
:101B2000206B1918A94228DC20231E430023A5623C
:101B3000A36063601A4B1E40E660D4E7019800F092
:101B4000DDF9E268002804DA802313430127E3600B
:101B5000C9E7E16A2368994200D90B00A1695B18C3
:101B600021695B1A920603D5A26A934200DA130038
:101B7000834200DA0300ED18BBE7EB1AB50701D585
:101B8000181AA060F00703D50099521A9A1A6260D9
:101B9000009AD118202321609E43CBE70300100058
:101BA000BFCFF7FFC16802008B0705D121220120BA
:101BB0000E4B40421A60704720230B4009030AD5A0
:101BC000002B02D0806A0138F5E793690068C018DD
:101BD0001369C01AF7E7002B01D0806AEBE70368AE
:101BE000816900695B18181AE5E7C046EC0100102E
:101BF00010B50400FFF7AAFE0100200000F08AF9EA
:101C000010BDFFFFC36870B503221E00040016401C
:101C1000134211D09B0611D5856A00F08FF8E36856
:101C2000094A20001340E36000F010F8002206008B
:101C300029002000FFF740FF300070BD8369056870
:101C4000ED180369ED1AEAE7FFCFFFFF70B5040056
:101C5000134AE36805691A400168C06AE26082229B
:101C60001A40022A02D00120404270BDDB030CD58D
:101C7000814200D201008D4209D10023094AA360AC
:101C8000E368E56213402560E3600020EDE7220091
:101C90002800491B00F008F80028EED0E3E7C04612
:101CA000FFFFF7FFFFFFFEFFF7B5D5680F00140039
:101CB00056690190EB0205D5102330001D4300F05A
:101CC0001DF9A061104B1D420FD03000A16900F03A
:101CD00027F9002806DA80230120E26840421343F6
:101CE000E3600FE0094B1D40E5603A0030000199C8
:101CF00000F022F94300A2695B08FB1AD318A36124
:101D00000028E8D1FEBDC04610000200EFFFFDFF35
:101D100010B5002811D080210C3849050160826877
:101D2000002A0AD013688B4207D1436854680333F2
:101D30001B19436093688360F1E710BD2022C368DC
:101D400010B59343C3608269836A04009A420CD041
:101D5000FFF77CFFE268074B1A4010231343E36050
:101D6000A36AA3612369E3622360E368024A134024
:101D7000E36010BDEFCFFFFFBFBFFFFF03000B43CA
:101D800021D4002931D00122D207030901E0090141
:101D900012099942FBD9430801E0490052089942CF
:101DA000FBD900E04908401A07D35241FAD3014653
:101DB0001046704749084018F7D29218FAD34018D5
:101DC000014610467047CB0F00D04942021000D5A3
:101DD0004042534008B5FFF7D4FF0CBC521000D36B
:101DE0004042002A00D549421847F446002000F03E
:101DF0002EF86047F0B517001F4323D00126440892
:101E0000CF073C434D08A71A2F469F4103D3921892
:101E10005B410136F7E70024002505E05208DF07A3
:101E20003A435B0824196D41871A0F469F4102D33C
:101E3000801A99410134013EF0D102460B462046FA
:101E40002946F0BD0020002100F001F8F0BD7047E8
:101E500010B543435143C918040C130C5C430919D2
:101E600092B2040C544380B2434350432204240CE6
:101E7000801861411A041B0C8018594110BD84461A
:101E8000830708D18B0706D1131F04D304C904C0EC
:101E9000043BFBD21A1D524205D0891A801A8B5C72
:101EA00083540132FBD160467047884207D98B18B2
:101EB000834204D9013A8B5C8354FBD1704700B54F
:101EC000FFF7DDFF00BD8446043A09D3830707D13D
:101ED00009060B0A19430B0C1943043A02C0FCD241
:101EE000043203D001700130013AFBD160467047E3
:101EF00003B469460220ABBE02B0704703B4694622
:101F00000C20ABBE02B0704703B469460920ABBEDB
:101F100002B0704703B469460E20ABBE02B07047F2
:101F200003B469460A20ABBE02B070470FB46946DD
:101F30000D20ABBE04B070470FB469460520ABBEA0
:101F400004B07047656E0000441F000001000000EF
:101F50000000000025640D0A00FFFFFF3F3F000066
:101F60002D00FFFF0300030203010303830083022C
:101F7000830183034300430243014303C300C302BD
:101F8000C301C3032300230223012303A300A302ED
:101F9000A301A3036300630263016303E300E3029D
:101FA000E301E303130013021301130393009302ED
:101FB000930193035300530253015303D300D302FD
:101FC000D301D3033300330233013303B300B3022D
:101FD000B301B3037300730273017303F300F302DD
:101FE000F301F3030B000B020B010B038B008B02BD
:101FF0008B018B034B004B024B014B03CB00CB02FD
:10200000CB01CB032B002B022B012B03AB00AB022C
:10201000AB01AB036B006B026B016B03EB00EB02DC
:10202000EB01EB031B001B021B011B039B009B022C
:102030009B019B035B005B025B015B03DB00DB023C
:10204000DB01DB033B003B023B013B03BB00BB026C
:10205000BB01BB037B007B027B017B03FB00FB021C
:10206000FB01FB0307000702070107038700870244
:10207000870187034700470247014703C700C7029C
:10208000C701C7032700270227012703A700A702CC
:10209000A701A7036700670267016703E700E7027C
:1020A000E701E703170017021701170397009702CC
:1020B000970197035700570257015703D700D702DC
:1020C000D701D7033700370237013703B700B7020C
:1020D000B701B7037700770277017703F700F702BC
:1020E000F701F7030F000F020F010F038F008F029C
:1020F0008F018F034F004F024F014F03CF00CF02DC
:10210000CF01CF032F002F022F012F03AF00AF020B
:10211000AF01AF036F006F026F016F03EF00EF02BB
:10212000EF01EF031F001F021F011F039F009F020B
:102130009F019F035F005F025F015F03DF00DF021B
:10214000DF01DF033F003F023F013F03BF00BF024B
:10215000BF01BF037F007F027F017F03FF00FF02FB
:10216000FF01FF030103E80E46FD0100030000002C
:10217000000701073613000020130000241300009D
:10218000201300002A130000201300002E1300006B
:1021900020130000321300007200770008000000D6
:1021A00041414242434344444545464647474848E7
:1021B000000000000000000000000000000000001F
:1021C000000000000000000000000000000000000F
:1021D00000000000000000000000000000000000FF
:1021E00000000000000000000000000000000000EF
:1021F00000000000000000000000000000000000DF
:1022000000000000000000000000000000000000CE
:1022100000000000000000000000000000000000BE
:1022200000000000000000000000000000000000AE
:10223000000000000000000000000000000000009E
:10224000000000000000000000000000000000008E
:10225000000000000000000000000000000000007E
:10226000000000000000000000000000000000006E
:10227000000000000000000000000000000000005E
:1022800000000000000000000000FFFF00AABBCC1F
:10229000DDEE000000000000000000000000000073
:1022A000000000000000000000000000000000002E
:1022B000000000000000000000000000000000001E
:1022C000000000000000000000000000000000000E
:1022D00000000000000000000000000000000000FE
:1022E00000000000000000000000000000000000EE
:1022F00000000000000000000000000000000000DE
:1023000000000000000000000000000000000000CD
:1023100000000000000000000000000000000000BD
:1023200000000000000000000000000000000000AD
:10233000000000000000000000000000000000009D
:10234000000000000000000000000000000000008D
:10235000000000000000000000000000000000007D
:10236000000000000000000000000000000000006D
:0823700000000000000001FF65
:0400000300000139BF
:00000001FF
