:10000000F01F001039010000D5110000D5110000CB
:10001000D5110000D5110000D5110000D511000048
:10002000D5110000D5110000D5110000D511000038
:10003000D5110000D5110000D5110000D511000028
:10004000D5110000D5110000D5110000D511000018
:10005000D5110000D5110000D5110000D511000008
:10006000D5110000D5110000D5110000D5110000F8
:10007000D5110000B5050000D5110000D511000014
:10008000D5110000D5110000D5110000D5110000D8
:10009000D5110000D5110000D5110000D5110000C8
:1000A0005D050000D5110000D5110000D51100003C
:1000B000D5110000D5110000D5110000D5110000A8
:1000C0003C1900000000001020000000200000107B
:1000D0002002000010B5002302E010C810C1043354
:1000E0009342FAD310BD002302E0002204C004337F
:1000F0008B42FAD3704710B50C4B07E0186859686B
:100100001C000C349A68FFF7E5FF2300084A93426D
:10011000F4D306E018681C0008345968FFF7E3FFC1
:100120002300044A9342F5D310BDC046C00000002E
:10013000CC000000D400000010B5FFF7DCFF01F098
:100140007FF800BE01F03AF8FFFFFFFFFFFFFFFF5F
:10015000FFFFFFFFFFFFFFFFFFFFFFFFFFFFFFFFAF
:10016000FFFFFFFFFFFFFFFFFFFFFFFFFFFFFFFF9F
:10017000FFFFFFFFFFFFFFFFFFFFFFFFFFFFFFFF8F
:10018000FFFFFFFFFFFFFFFFFFFFFFFFFFFFFFFF7F
:10019000FFFFFFFFFFFFFFFFFFFFFFFFFFFFFFFF6F
:1001A000FFFFFFFFFFFFFFFFFFFFFFFFFFFFFFFF5F
:1001B000FFFFFFFFFFFFFFFFFFFFFFFFFFFFFFFF4F
:1001C000FFFFFFFFFFFFFFFFFFFFFFFFFFFFFFFF3F
:1001D000FFFFFFFFFFFFFFFFFFFFFFFFFFFFFFFF2F
:1001E000FFFFFFFFFFFFFFFFFFFFFFFFFFFFFFFF1F
:1001F000FFFFFFFFFFFFFFFFFFFFFFFFFFFFFFFF0F
:10020000FFFFFFFFFFFFFFFFFFFFFFFFFFFFFFFFFE
:10021000FFFFFFFFFFFFFFFFFFFFFFFFFFFFFFFFEE
:10022000FFFFFFFFFFFFFFFFFFFFFFFFFFFFFFFFDE
:10023000FFFFFFFFFFFFFFFFFFFFFFFFFFFFFFFFCE
:10024000FFFFFFFFFFFFFFFFFFFFFFFFFFFFFFFFBE
:10025000FFFFFFFFFFFFFFFFFFFFFFFFFFFFFFFFAE
:10026000FFFFFFFFFFFFFFFFFFFFFFFFFFFFFFFF9E
:10027000FFFFFFFFFFFFFFFFFFFFFFFFFFFFFFFF8E
:10028000FFFFFFFFFFFFFFFFFFFFFFFFFFFFFFFF7E
:10029000FFFFFFFFFFFFFFFFFFFFFFFFFFFFFFFF6E
:1002A000FFFFFFFFFFFFFFFFFFFFFFFFFFFFFFFF5E
:1002B000FFFFFFFFFFFFFFFFFFFFFFFFFFFFFFFF4E
:1002C000FFFFFFFFFFFFFFFFFFFFFFFFFFFFFFFF3E
:1002D000FFFFFFFFFFFFFFFFFFFFFFFFFFFFFFFF2E
:1002E000FFFFFFFFFFFFFFFFFFFFFFFFFFFFFFFF1E
:1002F000FFFFFFFFFFFFFFFFFFFFFFFFFFFFFFFF0E
:1003000080B582B000AF0200FB1D1A70FB1D1B7888
:100310001A001F23134001229A40034B1A60C04663
:10032000BD4602B080BDC04600E100E080B582B0AD
:1003300000AF0200FB1D1A70FB1D1B781A001F2363
:10034000134001229A401300034A19008023D15020
:10035000C046BD4602B080BD00E100E090B583B06C
:1003600000AF02003960FB1D1A70FB1D1B787F2B4C
:1003700032D92F4AFB1D1B7819000F230B40083B75
:100380009B0806339B00D31804331B68FA1D1278B0
:10039000110003220A40D200FF2191400A00D243FB
:1003A0001A4011003B689B01FF221A40FB1D1B787D
:1003B000180003230340DB009A401D48FB1D1B78F7
:1003C0001C000F232340083B9B080A4306339B0075
:1003D000C31804331A6027E0164AFB1D1B785BB272
:1003E0009B08C0339B009B58FA1D12781100032212
:1003F0000A40D200FF2191400A00D2431A40110066
:100400003B689B01FF221A40FB1D1B781800032349
:100410000340DB009A400748FB1D1B785BB29B083A
:100420000A43C0339B001A50C046BD4603B090BD7E
:1004300000ED00E000E100E080B582B000AF786040
:1004400008001100FB1C021C1A70BB1C0A1C1A704D
:10045000FB1C1B781B047A68D21880231B02D1581E
:10046000BB1C1B7801229A401300FA1C127812045C
:1004700078688218194380231B02D150C046BD46BC
:1004800002B080BD80B582B000AF78600800110076
:10049000FB1C021C1A70BB1C0A1C1A70BB1C1978AE
:1004A000FB1C1B781B047A68D318BA1C1278012035
:1004B000904002000120884001009200D150C046C7
:1004C000BD4602B080BD80B582B000AF7860080044
:1004D0001100FB1C021C1A70BB1C0A1C1A70FB1CAE
:1004E0001B781B047A68D318BA1C1278012191403A
:1004F0000A0092000021D150C046BD4602B080BD26
:1005000090B583B000AF786008001100FB1C021C9E
:100510001A70BB1C0A1C1A70FB1C1B781B047A681F
:10052000D318BA1C1278012191400A009200D058C9
:10053000BB1C1B7801229A401100FB1C1B781B047A
:100540007A68D318BA1C12780124944022004140E2
:100550009200D150C046BD4603B090BD80B500AFFB
:10056000124B180000F03AFD03001A00012313405B
:1005700018D00E4B180000F0B4FC03001A008023C2
:100580009B0013400ED0094B0121180000F02AFDFA
:10059000A023DB05092200211800FFF794FF044B7C
:1005A00001221A70C046BD4680BDC046008006408C
:1005B0004C00001090B583B000AFA023DB050222F1
:1005C00000211800FFF79CFF0D20FFF7AFFEBC1CB9
:1005D000174B180000F02FFD03002380154B00225D
:1005E0001A70154B180000F029F800237B6007E013
:1005F000114B7A6892000021D1507B6801337B60F7
:100600007B68092BF4DDA023DB0502220021180002
:10061000FFF776FFBB1C1B88054A1900100000F08D
:100620000FFD0D20FFF76CFEC046BD4603B090BD28
:1006300000800540200000102400001080B584B028
:1006400000AF78601F4BBB600023FB6026E0FB68B7
:100650009B007A68D3181B686421180001F07AF8AF
:1006600003001900FB685B001A00BB689B18CAB244
:100670001A70FB689B007A68D3181B686421180005
:1006800001F068F80B001900FB685B000133BA68E1
:10069000D318CAB21A70FB680133FB60FB68092BE0
:1006A000D5DD094A09490A48082300F0F3FCA023D4
:1006B000DB05012200211800FFF722FFC046BD46DE
:1006C00004B080BD0A000010000000100081054049
:1006D0000080054080B586B002AF00F051F900F00F
:1006E00035F9854B180000F0D3FA022000F05AFDCE
:1006F0000D20FFF705FE814B8021180000F097FCCC
:1007000080235B007E481A00092100F07CFC8023D6
:100710005B007B481A00012100F075FC80235B0020
:1007200077481A00022100F06EFCA023DB050922A5
:1007300000211800FFF780FEA023DB050122002125
:100740001800FFF779FEA023DB0502220021180024
:10075000FFF772FEA023DB05092200211800FFF736
:1007600091FEA023DB05092200211800FFF7ABFE54
:10077000A023DB05012200211800FFF783FEA02340
:10078000DB05012200211800FFF79DFEA023DB05F9
:10079000022200211800FFF775FEA023DB050222CC
:1007A00000211800FFF78FFE564B180000F018FAD2
:1007B000544B0121180000F0D9F9524B01211800C7
:1007C00000F0BBF94F4B0021180000F0ADF94D4B84
:1007D0000121180000F0DAF9494B01220C21180020
:1007E00000F011FC9623DB00464A1900100000F0CF
:1007F000DDF9434B01221021180000F004FC424BAC
:10080000180000F0BBFB404803230093012309229A
:10081000002100F03BFB3C4B1021180000F04AFB8C
:10082000394B0121180000F0D5FB1820FFF768FDB7
:100830000A2000F067FA00211820FFF78FFD012140
:100840000D20FFF78BFD0023FB6050E00023BB6011
:1008500033E02E4B00221A702B4B180000F03AFBAD
:10086000A023DB05092200211800FFF70BFE00F092
:100870006BFC01E030BFC046244B1B78DBB2012289
:100880005340DBB2002BF5D11F4B180000F03AFBB0
:1008900003003B60386803230122092100F036FB86
:1008A00003006421180000F055FF03001A007B6864
:1008B0009B187B60BB680133BB60BB68042BC8DD41
:1008C000134BFA689200D258FB6864214B43D3184B
:1008D0001049180000F03EFF0B0019000C4BFA689D
:1008E0009200D15000237B60FB680133FB60FB6802
:1008F000092BABDDA7E7C04640420F000080054052
:100900000040044000C00140008006404C00001040
:10091000240000101027000010B5054C0221200013
:1009200000F0B4FBA1214900200000F080FB10BDC5
:100930000080054010B503490C22034800F086FCF6
:1009400010BDC046001900000081054010B5084BDD
:10095000012252421A60FFF7DFFFFFF7EBFF054964
:10096000054800F06DFB054B802292011A6010BD16
:1009700050000010FF0100000080054000E100E091
:1009800010B5324C200000F031FBA020C00500F073
:1009900027FA10220021200000F035FB0822012157
:1009A000200000F030FB08220221200000F02BFB89
:1009B00008220321200000F026FB08220421200049
:1009C00000F021FB08220521200000F01CFB08227A
:1009D0000621200000F017FB08220721200000F06C
:1009E00012FB08220821200000F00DFB1022092133
:1009F000200000F008FB164B1B68164A934202D0F9
:100A0000154A934216D1114C08220A21200000F009
:100A1000FAFA08220B21200000F0F5FA0F4800F046
:100A20009BFB0F4800F096F90E4800F019FB00F010
:100A300045F810BD054C0A220A21200000F0E3FA17
:100A40000A220B21200000F0DEFAE7E70040044014
:100A5000FC02000021436587658721430040054073
:100A60000040034000800540F0B50023002B00DD6E
:100A7000F0BD02001A41D20716D50C4C9A00175D42
:100A8000A41866780A001A4101252A40A478121B8E
:100A900054426241D2B23C04A027FF05BC466444E4
:100AA000B540B240AD002A510133DFE70C19000018
:100AB00010B50021FFF7D8FF10BDFFFF70B500246F
:100AC000002C03DD0120FFF7F3FF70BD002207219A
:100AD0000A4800F098FA0A4AA1008B5C521855782F
:100AE0001B04A022D20594466344802000021A58B9
:100AF0000121A9400A431A500134E1E700400440B3
:100B00000C19000010B504000005000D240B002294
:100B100007E001232340911D49008B4018436408DE
:100B20000132072AF5DD10BD036804229343012931
:100B300000D00022134303607047036808229343E8
:100B4000012900D0002213430360704770B50500EF
:100B50000C03240B2000FFF7D5FF0100024800F032
:100B60004BFAAC6170BDC0460040044070B5050052
:100B70000C03240B2000FFF7C5FF0100024800F022
:100B80003BFAEC6170BDC04600400440036902229C
:100B9000934349000A4013430361704703682222CC
:100BA0009343203A134303607047FFFF10B580233F
:100BB0005B01994203DA002902DA002100E00349CF
:100BC0000905090D8160FFF7E9FF10BDFF0F000067
:100BD0000F230B40836270470F230B404363704722
:100BE00010B50400202000F0D1FA8020400200F06F
:100BF000A3F800212000FFF7EBFF0F212000FFF7F3
:100C0000EBFF00232360202222612362054B6362F5
:100C100000212000FFF79AFF00212000FFF7A6FF28
:100C200010BDC046FFFF000010B5041E02DD012804
:100C300005DC00E000BE00F0BBF8002803D0802CEB
:100C400017DC002306E000F0C3F80028F7DC00BE44
:100C5000F5E701336410FCD1074A5462116A0E2093
:100C600081435B00184001431162546201235362C7
:100C700010BD8024E5E7C04600800440034B1A6A9B
:100C80005208072313400120984070470080044019
:100C900010B5011E05DD044800F05CFDFFF7C4FF40
:100CA00010BD00BEF7E7C04600127A0010B5FFF78E
:100CB000E5FF0100014800F04DFD10BD00127A0073
:100CC00010B5041E18D00D4B984200D900BEFFF796
:100CD000EDFF01000A4800F03DFD010063011B1B10
:100CE0009B001B19D80000F038FDE138FF3802B432
:100CF000011C0339FDDC02BC10BDC04600093D00EB
:100D000000CA9A3B10B5040005E00948FFF7D8FF78
:100D1000084B9C466444FA231B019C42F5DC6001AD
:100D2000001B80000019C000FFF7CAFF10BDC046BD
:100D300000093D0060F0FFFF10B5044980228B5888
:100D4000034C204003438B5010BDC046008004403C
:100D5000FCBF1D0010B5C0204003FFF7EDFF0420CD
:100D600000F000FA082000F011FA6420FFF7A8FF55
:100D7000042000F001FAFFF799FF094B9C466044FC
:100D8000084900F0E7FC0138002806DD064B5861F1
:100D9000064B012252421A6010BD0120F6E7C04600
:100DA000D7B80500D8B80500004003408002001005
:100DB000054B1868C0231B031840044B9C46604435
:100DC000431E9841C0B2704700C003400000F4FFCA
:100DD000024B1B69FF2018407047C04600C003400B
:100DE00010B54020FFF7A8FF10BDFFFF002801D07D
:100DF000014870470148FCE7A025260050C30000C9
:100E00000338C3B2082B03D89800084B1B589F46E1
:100E100064207047FA208000FBE73220F9E70A20BF
:100E2000F7E70120F5E7C820F3E7C04610190000F6
:100E300010B504000005000D240B002207E001237B
:100E40002340911D49008B40184364080132072A52
:100E5000F5DD10BD03680422934389000A40134363
:100E6000036070470F230B4083617047C3684022C3
:100E7000934389010A401343C3607047C368072244
:100E80001343C3600904090C0161704770B5040085
:100E900016001D00FFF7DEFF31002000FFF7E2FF24
:100EA00029002000FFF7E2FF04992000FFF7E6FF8A
:100EB00070BDFFFF70B505000C000800FFF7B8FF1C
:100EC0000100034800F098F82403240BEC6170BD86
:100ED00000400440036803229343023A1343036033
:100EE000704702000068000280235B001840D36A4C
:100EF0005B02802189000B40184392680323134052
:100F00001843704740680004000C7047F8B50400AF
:100F10000F0010001E1E27DDFFF768FFC11722001B
:100F2000002300F081FCC8225200002300F07CFC6A
:100F300004000D003800FFF763FFC11732000023E3
:100F400000F072FCFA229200002300F06DFC020017
:100F50000B00C90756080E435F083000390000191E
:100F6000694100F033FCF8BD00BED5E70904090C67
:100F7000016270470904090C4162704710B582B0E4
:100F80000400102000F002F980200002FFF7D4FED8
:100F900000232360A362073363630C4B6361642304
:100FA0000093633B012200212000FFF76FFF002127
:100FB0002000FFF77FFF00212000FFF7D7FF044943
:100FC0002000FFF7D7FF02B010BDC046E7030000C6
:100FD000FFFF000007230B4083627047C36A0720AE
:100FE0001840704707230B404363704710B58020BB
:100FF000C002FFF7A1FE10BD802283580901090934
:101000008B438350704770B506000D0014000B2908
:1010100001D9012A04D02402240AAD00AC5170BDCC
:101020000B000C3B01219940FFF7E6FFF3E7C905F0
:10103000C90D81617047C069C005C00D7047FFFFD1
:1010400010B5C36908221A40044C23681343236077
:10105000C905C90D4162416210BDC046540000106F
:1010600070B5040080235B00FE22C250054D0021B4
:101070002800FFF7DCFF04492800FFF7E1FF002309
:10108000236070BD00800540FF0100000431016154
:101090007047FFFF70B50400080011000A4A0025E0
:1010A00015600835656265629A0000F0CFF8E36963
:1010B0001D4205D1044B1B68002B03D1012070BDDC
:1010C0000020FCE70020FAE754000010F0B5C64607
:1010D00000B504000E0090460C4B984212D00C4D07
:1010E0000C4F22002900380000F096F80300B343AB
:1010F0004246134322002900380000F07EF880BCED
:10110000B846F0BD90231B011E43E8E70080034072
:10111000580000102080034010B5140008439022AE
:101120001201024305490648FFF7D0FF054B1A6933
:1011300004218A4322431A6110BDC046FF3FF1FFDC
:101140000080034000ED00E010B5002200210020E7
:10115000FFF7E2FF30BF10BD10B58020C000FFF7E1
:10116000EBFD10BD03494B680F22024093434B60D7
:101170007047C0460080044003494B680F2202407C
:1011800013434B607047C0460080044010B5044CC8
:101190008E21890063583F2202409343635010BD63
:1011A0000080044010B5044C8E21890063583F2212
:1011B00002401343635010BD00800440BFF34F8FC3
:1011C000024B034ADA60BFF34F8FFEE700ED00E009
:1011D0000400FA0510B500BEFFF7F0FF0022036817
:1011E000DB0705D4F4239B009A4201DA0632F6E7C6
:1011F0000368DB0700D400BE7047F8B504000D009B
:1012000016001F00FFF7EAFF2B6801332B603760E1
:101210002000FFF7E3FFF8BDF8B506000C0015004D
:101220000B6801330B603000FFF7D8FF27682B688D
:101230003000FFF7D3FF28682368BB42F3D1F8BD25
:1012400010B500F00BF8FFF745FA10BD10B500F02F
:1012500002FB10BD10B500F014FB10BD70B5184CAA
:1012600018492200002000F08BF8802380225B00C8
:1012700000212000D20000F02FF8134C134D220063
:101280002900012000F07CF8802380225B000021EF
:101290002000D20000F020F80D4B1B68022B0DDD62
:1012A0000C4C29002200022000F06AF880238022E2
:1012B000002120005B00D20000F00EF870BDC04697
:1012C00060000010341900009C0000103619000066
:1012D00038190000D8000010F0B5C56804000120DE
:1012E000AE070CD080208000824213D08020C00046
:1012F000824205D08020400082420BD0FF38F0BDF2
:101300002100012324311543002021612160E36184
:10131000E560F4E7024F5E1E0120BE42F3D9EEE71E
:10132000FEFFFF000300032110B51A000B4219D184
:10133000114C1368114959189943214219D0DCB254
:10134000511C002C0BD0FF242402911C234206D0F8
:10135000FF2109040B40591E8B41D318D91C0130C1
:10136000081A05E001335C1E2478002CDDD1101A28
:1013700010BD0432DDE7C04680808080FFFEFEFEA7
:10138000F7B50D0001901000140000F033F82B7831
:10139000722B1CD0772B1DD0612B26D1144A593BC0
:1013A0000220691C032784460426012508782B287F
:1013B00013D0622816D0E260019A62611B0704D53F
:1013C00002220021200000F063F82000FEBD00236F
:1013D0000122E5E704230222E2E760463A430343A1
:1013E0000131E3E732432B43FAE70024EDE7C0463F
:1013F00002800000F0B5C56804004769066989B03D
:10140000AB0720D02B0716D400F022F8380000F0EC
:101410004DFA2B0502D5300000F066F90B4BAD0DEF
:10142000AD059D4207D120226846216A00F05CFA92
:10143000684600F0C9F83C2200212000FFF70AFFAF
:10144000002009B0F0BD01204042FAE7000080AD65
:10145000F8B5002812D000F0C1F805002800F8BD4A
:1014600038006043084BC01800F0B8F8002801D0DD
:1014700001256D420134A642F2DCEFE7034B040084
:1014800005003C271E68F6E76000001038190000D0
:10149000F7B54369C6680193364B04000D0000920E
:1014A0001E420BD0019800F00DFA071E06D1009BDA
:1014B000012B06D0022B2DD0002B06D0022738009E
:1014C000FEBD200000F05AF82D18002DF6DBB30405
:1014D00004D52368E26A9A4200D2E362A369AB4270
:1014E0000EDCE16A22688A4200D20A002169D01823
:1014F0000091401AA84203DB206B1918A94228DC8E
:1015000020231E430023A562A36063601A4B1E4084
:10151000E660D4E7019800F0CFF9E268002804DA29
:10152000802313430127E360C9E7E16A23689942F6
:1015300000D90B00A1695B1821695B1A920603D5DB
:10154000A26A934200DA1300834200DA0300ED1826
:10155000BBE7EB1AB50701D5181AA060F00703D551
:101560000099521A9A1A6260009AD11820232160B9
:101570009E43CBE703001000BFCFF7FFC168020016
:101580008B0705D1212201200E4B40421A60704783
:1015900020230B4009030AD5002B02D0806A0138B2
:1015A000F5E793690068C0181369C01AF7E7002BC4
:1015B00001D0806AEBE70368816900695B18181A3B
:1015C000E5E7C0465C00001010B50400FFF7AAFE76
:1015D0000100200000F07CF910BDFFFFC36870B56A
:1015E00003221E0004001640134211D09B0611D5A1
:1015F000856A00F08FF8E368094A20001340E36031
:1016000000F010F80022060029002000FFF740FF3C
:10161000300070BD83690568ED180369ED1AEAE7CB
:10162000FFCFFFFF70B50400134AE36805691A4055
:101630000168C06AE26082221A40022A02D00120B8
:10164000404270BDDB030CD5814200D201008D42C7
:1016500009D10023094AA360E368E56213402560CD
:10166000E3600020EDE722002800491B00F008F8A5
:101670000028EED0E3E7C046FFFFF7FFFFFFFEFFC5
:10168000F7B5D5680F00140056690190EB0205D537
:10169000102330001D4300F00FF9A061104B1D42D4
:1016A0000FD03000A16900F019F9002806DA802374
:1016B0000120E26840421343E3600FE0094B1D4004
:1016C000E5603A003000019900F014F94300A26986
:1016D0005B08FB1AD318A3610028E8D1FEBDC04601
:1016E00010000200EFFFFDFF10B5002811D080218F
:1016F0000C38490501608268002A0AD013688B42C1
:1017000007D14368546803331B19436093688360AF
:10171000F1E710BD2022C36810B59343C36082690E
:10172000836A04009A420CD0FFF77CFFE268074B03
:101730001A4010231343E360A36AA3612369E362A1
:101740002360E368024A1340E36010BDEFCFFFFF60
:10175000BFBFFFFF03000B4321D4002931D001227A
:10176000D207030901E0090112099942FBD9430894
:1017700001E0490052089942FBD900E04908401AAB
:1017800007D35241FAD30146104670474908401822
:10179000F7D29218FAD34018014610467047CB0F83
:1017A00000D04942021000D54042534008B5FFF72F
:1017B000D4FF0CBC521000D34042002A00D549424D
:1017C0001847F446002000F02EF86047F0B51700E7
:1017D0001F4323D001264408CF073C434D08A71AD6
:1017E0002F469F4103D392185B410136F7E700244F
:1017F000002505E05208DF073A435B0824196D41D4
:10180000871A0F469F4102D3801A99410134013E45
:10181000F0D102460B4620462946F0BD00200021AB
:1018200000F001F8F0BD704710B543435143C918AB
:10183000040C130C5C43091992B2040C544380B29B
:10184000434350432204240C801861411A041B0CAA
:101850008018594110BD8446830708D18B0706D1F3
:10186000131F04D304C904C0043BFBD21A1D524207
:1018700005D0891A801A8B5C83540132FBD16046F3
:1018800070478446043A09D3830707D109060B0A37
:1018900019430B0C1943043A02C0FCD2043203D0A2
:1018A00001700130013AFBD16046704703B46946CC
:1018B0000220ABBE02B0704703B469460C20ABBE39
:1018C00002B0704703B469460920ABBE02B070474E
:1018D00003B469460E20ABBE02B0704703B469463C
:1018E0000A20ABBE02B070470FB469460D20ABBEF4
:1018F00004B070470FB469460520ABBE04B0704712
:101900000103E80E46FD0100030000000007010787
:10191000260E0000100E0000140E0000100E000035
:101920001A0E0000100E00001E0E0000100E000027
:0C193000220E000072007700080000008A
:10193C00031CD101185402656EFF0000000000006A
:10194C000000000000000000000000000000FE008D
:0400000300000139BF
:00000001FF
