:10000000F01F001039010000F9120000F912000081
:10001000F9120000F9120000F9120000F9120000B4
:10002000F9120000F9120000F9120000F9120000A4
:10003000F9120000F9120000F9120000F912000094
:10004000F9120000F9120000F9120000F912000084
:10005000F9120000F9120000F9120000F912000074
:10006000F9120000F9120000F9120000F912000064
:10007000F9120000C1090000F9120000F912000095
:10008000F9120000F9120000F9120000F912000044
:10009000F9120000F9120000F9120000F912000034
:1000A00089030000F9120000F9120000F9120000A3
:1000B000F9120000F9120000F9120000F912000014
:1000C000941A000000000010DC010000DC010010A8
:1000D000F801000010B5002302E010C810C104337D
:1000E0009342FAD310BD002302E0002204C004337F
:1000F0008B42FAD3704710B50C4B07E0186859686B
:100100001C000C349A68FFF7E5FF2300084A93426D
:10011000F4D306E018681C0008345968FFF7E3FFC1
:100120002300044A9342F5D310BDC046C00000002E
:10013000CC000000D400000010B5FFF7DCFF01F098
:1001400011F900BE01F0CCF8FFFFFFFFFFFFFFFF3A
:10015000FFFFFFFFFFFFFFFFFFFFFFFFFFFFFFFFAF
:10016000FFFFFFFFFFFFFFFFFFFFFFFFFFFFFFFF9F
:10017000FFFFFFFFFFFFFFFFFFFFFFFFFFFFFFFF8F
:10018000FFFFFFFFFFFFFFFFFFFFFFFFFFFFFFFF7F
:10019000FFFFFFFFFFFFFFFFFFFFFFFFFFFFFFFF6F
:1001A000FFFFFFFFFFFFFFFFFFFFFFFFFFFFFFFF5F
:1001B000FFFFFFFFFFFFFFFFFFFFFFFFFFFFFFFF4F
:1001C000FFFFFFFFFFFFFFFFFFFFFFFFFFFFFFFF3F
:1001D000FFFFFFFFFFFFFFFFFFFFFFFFFFFFFFFF2F
:1001E000FFFFFFFFFFFFFFFFFFFFFFFFFFFFFFFF1F
:1001F000FFFFFFFFFFFFFFFFFFFFFFFFFFFFFFFF0F
:10020000FFFFFFFFFFFFFFFFFFFFFFFFFFFFFFFFFE
:10021000FFFFFFFFFFFFFFFFFFFFFFFFFFFFFFFFEE
:10022000FFFFFFFFFFFFFFFFFFFFFFFFFFFFFFFFDE
:10023000FFFFFFFFFFFFFFFFFFFFFFFFFFFFFFFFCE
:10024000FFFFFFFFFFFFFFFFFFFFFFFFFFFFFFFFBE
:10025000FFFFFFFFFFFFFFFFFFFFFFFFFFFFFFFFAE
:10026000FFFFFFFFFFFFFFFFFFFFFFFFFFFFFFFF9E
:10027000FFFFFFFFFFFFFFFFFFFFFFFFFFFFFFFF8E
:10028000FFFFFFFFFFFFFFFFFFFFFFFFFFFFFFFF7E
:10029000FFFFFFFFFFFFFFFFFFFFFFFFFFFFFFFF6E
:1002A000FFFFFFFFFFFFFFFFFFFFFFFFFFFFFFFF5E
:1002B000FFFFFFFFFFFFFFFFFFFFFFFFFFFFFFFF4E
:1002C000FFFFFFFFFFFFFFFFFFFFFFFFFFFFFFFF3E
:1002D000FFFFFFFFFFFFFFFFFFFFFFFFFFFFFFFF2E
:1002E000FFFFFFFFFFFFFFFFFFFFFFFFFFFFFFFF1E
:1002F000FFFFFFFFFFFFFFFFFFFFFFFFFFFFFFFF0E
:10030000F0B51E4CA544070001AA1D4B31CB31C2EC
:1003100080220123920004A984A800F02FFA00246F
:1003200011E0A300FE586421300001F0A9FA630037
:100330000333144DE8546421300001F0A1FAA31CEA
:100340005B00E9540134092CEBDD01A984A800F01D
:100350003FFA002806D184A800F0A4FA8B239B0062
:100360009D44F0BD0749E92284A800F043FA002823
:10037000F1D084A800F07BFAEDE7C046D4FDFFFF82
:100380004C1A0000F000001010B5084800F0CEFE36
:10039000C00700D410BD054800F04BFE8005F9D51C
:1003A0000121024800F0C6FEF4E7C0460080064086
:1003B000014B18707047C04600000010014B01222D
:1003C0001A707047DC010010F0B58DB000F046FBEC
:1003D00000F0BAF93F4800F0C9FC022000F074FFB9
:1003E0003D4C200000F06AFC0121200000F02CFCB4
:1003F0000121200000F00FFC0021200000F002FC91
:100400000121200000F030FC344D01220C21280095
:1004100000F0A1FE9621C900200000F035FC012269
:100420001021280000F097FE2D4C200000F04EFE19
:1004300003230093023B09220021200000F0CEFD9F
:100440001021200000F0DEFD0121200000F06AFEF6
:10045000244B802252041A600A2000F0C1FC25E0DF
:100460001F4D280000F0DEFD00F000FF280000F026
:10047000F1FD03230122092100F0F0FD642101F0C8
:10048000FFF936180134042CEADD0521300001F0B3
:10049000F7F9BB0002AAD0500137092F02DC002671
:1004A0000024F0E7104B1B78002B01D10027F4E764
:1004B00002A8FFF725FF0D4B1B78392B08D001331D
:1004C000DBB20A4A13700A4A137801331370EDE75E
:1004D0003023F6E740420F0000C0014000400440D6
:1004E0000080064000E100E000000010F000001075
:1004F0000400001030B50500FC2252000F4B01E053
:1005000001330A00511E002A02D01C78032CF7D1B7
:1005100000290FD0981C59782960FF2900D030BDE0
:10052000032A09DD9A7812022A60181DDB781A4323
:100530002A60F4E70020F2E70020F0E70881054098
:1005400010B5054C0221200000F04EFEA12149000B
:10055000200000F017FE10BD00800540F0B5D64623
:100560004F4680B583B004000F00019299460AAB54
:1005700020CB1B78002802D00268002A00D100BEE0
:100580003A799246002B3BD1002673190125524639
:100590005540EDB26A005219D51863685B19802185
:1005A00089008B4243DCA168994242DB6360216889
:1005B0000023E360216153466375237DDB015046D0
:1005C000000103435BB2484603430B7001281CD073
:1005D0004E70CD1C00238B70AD18019B032B19D0DE
:1005E000019B062B1DD039683200280000F0C0FEA8
:1005F000AD192560012003B0C0BCBA46B146F0BDBC
:10060000386800F025FF0600BFE74870CD1C731C5A
:100610008B70E1E751332B70153B33406B70023523
:10062000E1E74F332B703B7A6B700235DBE700203C
:10063000E1E70020DFE7FFFF10B51300D02212062C
:10064000944661440200024800F020FC10BDC04600
:100650000040034010B5054C200000F097FD8823B2
:10066000184381B2200000F08DFD10BD00800540D0
:1006700010B5074C200000F089FD8823984381B213
:10068000200000F07FFD034B012252421A6010BD92
:1006900000800540E401001030B583B0040043063B
:1006A0001CD4002523070DD51C4B1B68013309D032
:1006B0001A4B1B6803229343194A94466344194A10
:1006C00012681A6081235B001C4201D1240601D507
:1006D000FFF7CEFF002D1DD103B030BDFFF7C8FFDF
:1006E000114B1B68082294431B041B0C032B01D1E4
:1006F0000025D7E701A8FFF7FDFE002808D0019BE1
:10070000C0180A4B9C466044044B18600125C9E799
:100710000025C7E7FFF752FEDEE7C046E401001000
:1007200000810540E001001008810540007FFABF0C
:1007300010B503490C22034800F01AFE10BDC04654
:10074000581A00000081054010B5084B01225242A2
:100750001A60FFF7F5FEFFF7EBFF0549054800F0CB
:100760001DFD054B802292011A6010BDE4010010AE
:10077000FF0100000080054000E100E070B50400CA
:100780000D001E00002801D0002900D100BEAB07DB
:1007900000D000BE0B2A01DD930700D000BEA2608E
:1007A00000232361E360A67508490C22280000F0AD
:1007B000DFFD002E07D10C23ED18013363602560A7
:1007C0000123237570BD0A23F6E7C046581A0000BE
:1007D00000B583B0002902D00B68002B00D100BE09
:1007E0000123019304330093043B0322FFF7B6FE79
:1007F00003B000BD70B504001500002804D00368E4
:10080000002B01D0002900D100BEE8221201D02324
:100810001B06CB1893421DD9002063685B19802208
:10082000920093421DDCA2689A421CDBE2685219D6
:10083000667D002E01D0FF2A17DC6360E26000288D
:100840000AD020682A00FFF7F7FE23685B192360AF
:10085000012070BD0120E0E720682A0000F088FD3B
:10086000F3E70020F5E70020F3E70020F1E7002898
:1008700005D00368002B02D00369002B00D100BE15
:1008800003699978C2685218417D002903D09A7093
:1008900000230375704700219970D97011121971E6
:1008A0005A71F5E7F8B5041E02D00368002B00D199
:1008B00000BE6668A37D002B1BD035000B3D032DC9
:1008C00007DD2369002B17D02269137840210B43E1
:1008D0001370206809239B1BC018A37D002B18D020
:1008E000FE2D16DD023680239B009E4206DD002091
:1008F0003BE035000D3DE2E700BEE5E70023A375D0
:10090000811C04302A0000F037FD23680233236085
:1009100003E0002B01D1FE2D28DD23685A1C226044
:10092000FE221A702768BF1BB30702D003239E4321
:100930000436276066601C4B1B68013303D01A4BDA
:100940001B68B3421ED332003900184800F010FD76
:10095000FE2D21DD2B062D02FF22120415402B4314
:10096000134D1D43134B1D600120F8BD023E0133A2
:10097000A375011D02302A0000F0FEFC2368023B33
:100980002360CAE7084B1B6803229343FA580A4BBB
:100990001A60FFF75FFED6E7064B1B68074A134055
:1009A0002D021D43DEE7C046E40100100081054032
:1009B00003FF000008810540E0010010FF00FFFF79
:1009C000F8B5244F380000F0E5FB0400380000F0D3
:1009D000D6FB06003D6AED05ED0D2100380000F064
:1009E000DDFB2800FFF758FEA30725D5E40517D542
:1009F000F6060AD5184B1B78002B15D1164B012291
:100A00001A700120FFF7D4FC0EE0134B1B78002B6B
:100A10000AD0114B00221A700020FFF7C9FC03E036
:100A20000D4B1B78002B00D0F8BD0B4B01221A7028
:100A30000120FFF7BDFCF7E7E405F5D5064B1B7871
:100A4000002BF1D0044B00221A700020FFF7B0FCFD
:100A5000EAE7C04600800540DD01001010B5324CC9
:100A6000200000F06BFBA020C00500F061FA10220E
:100A70000021200000F06FFB08220121200000F07F
:100A80006AFB08220221200000F065FB08220321F6
:100A9000200000F060FB08220421200000F05BFB36
:100AA00008220521200000F056FB08220621200024
:100AB00000F051FB08220721200000F04CFB082227
:100AC0000821200000F047FB10220921200000F03F
:100AD00042FB164B1B68164A934202D0154A9342BA
:100AE00016D1114C08220A21200000F034FB082204
:100AF0000B21200000F02FFB0F4800F0BFFB0F4838
:100B000000F096F90E4800F059FB00F045F810BDD2
:100B1000054C0A220A21200000F01DFB0A220B21AD
:100B2000200000F018FBE7E700400440FC02000052
:100B3000214365876587214300400540004003400D
:100B400000800540F0B50023002B00DDF0BD020061
:100B50001A41D20716D50C4C9A00175DA418667876
:100B60000A001A4101252A40A478121B544262410E
:100B7000D2B23C04A027FF05BC466444B540B24055
:100B8000AD002A510133DFE7641A000010B50021DF
:100B9000FFF7D8FF10BDFFFF70B50024002C03DD68
:100BA0000120FFF7F3FF70BD002207210A4800F083
:100BB000D2FA0A4AA1008B5C521855781B04A02275
:100BC000D20594466344802000021A580121A940AE
:100BD0000A431A500134E1E700400440641A00005F
:100BE00010B504000005000D240B002207E00123CE
:100BF0002340911D49008B40184364080132072AA5
:100C0000F5DD10BD036804229343012900D00022C2
:100C1000134303607047036808229343012900D0FF
:100C2000002213430360704770B505000C03240BCA
:100C30002000FFF7D5FF0100024800F085FAAC6103
:100C400070BDC0460040044070B505000C03240B85
:100C50002000FFF7C5FF0100024800F075FAEC61C3
:100C600070BDC0460040044003690222934349001E
:100C70000A40134303617047036822229343203ADA
:100C8000134303607047FFFF10B580235B01994257
:100C900003DA002902DA002100E003490905090D01
:100CA0008160FFF7E9FF10BDFF0F00000F230B402D
:100CB000836270470F230B404363704710B50400F5
:100CC000202000F0F5FA8020400200F0A3F8002177
:100CD0002000FFF7EBFF0F212000FFF7EBFF0023C1
:100CE0002360202222612362054B636200212000E1
:100CF000FFF79AFF00212000FFF7A6FF10BDC046B6
:100D0000FFFF000010B5041E02DD012805DC00E035
:100D100000BE00F0F5F8002803D0802C17DC00237B
:100D200006E000F0FDF80028F7DC00BEF5E701332F
:100D30006410FCD1074A5462116A0E2081435B00A3
:100D400018400143116254620123536210BD802494
:100D5000E5E7C04600800440034B1A6A52080723A7
:100D600013400120984070470080044010B5011ED8
:100D700005DD044800F084FDFFF7C4FF10BD00BE90
:100D8000F7E7C04600127A0010B5FFF7E5FF010053
:100D9000014800F075FD10BD00127A0010B5041E68
:100DA00018D00D4B984200D900BEFFF7EDFF0100AF
:100DB0000A4800F065FD010063011B1B9B001B1925
:100DC000D80000F060FDE138FF3802B4011C03399F
:100DD000FDDC02BC10BDC04600093D0000CA9A3BC4
:100DE00010B5040005E00948FFF7D8FF084B9C4602
:100DF0006444FA231B019C42F5DC6001001B800067
:100E00000019C000FFF7CAFF10BDC04600093D0031
:100E100060F0FFFF10B5044980228B58034C20403E
:100E200003438B5010BDC04600800440FCBF1D0032
:100E300010B5C0204003FFF7EDFF042000F024FAB6
:100E4000082000F035FA6420FFF7A8FF042000F026
:100E500025FAFFF799FF094B9C466044084900F0CA
:100E60000FFD0138002806DD064B5861064B0122B4
:100E700052421A6010BD0120F6E7C046D7B80500FF
:100E8000D8B80500004003401404001070B50C00F1
:100E900016001D00002925DB002D25DD63198022A9
:100EA0005201934200DD00BE2A00C0239B05E118D9
:100EB000300000F05DFA0F4B1868002811DBA042EB
:100EC00014DA201A0C49411830000C4B994208D210
:100ED0007619864205D9321A402A00DD402200F0F8
:100EE00047FA70BD00BED7E700BED7E7001B301839
:100EF0000149EAE714040010D403001014040010A0
:100F0000054B1868C0231B031840044B9C466044E3
:100F1000431E9841C0B2704700C003400000F4FF78
:100F2000024B1B69FF2018407047C04600C00340B9
:100F300010B54020FFF76EFF10BDFFFF002801D065
:100F4000014870470148FCE7A025260050C3000077
:100F50000338C3B2082B03D89800084B1B589F4690
:100F600064207047FA208000FBE73220F9E70A206E
:100F7000F7E70120F5E7C820F3E7C046681A00004C
:100F800010B504000005000D240B002207E001232A
:100F90002340911D49008B40184364080132072A01
:100FA000F5DD10BD03680422934389000A40134312
:100FB000036070470F230B4083617047C368402272
:100FC000934389010A401343C3607047C3680722F3
:100FD0001343C3600904090C0161704770B5040034
:100FE00016001D00FFF7DEFF31002000FFF7E2FFD3
:100FF00029002000FFF7E2FF04992000FFF7E6FF39
:1010000070BDFFFF70B505000C000800FFF7B8FFCA
:101010000100034800F098F82403240BEC6170BD34
:1010200000400440036803229343023A13430360E1
:10103000704702000068000280235B001840D36AFA
:101040005B02802189000B40184392680323134000
:101050001843704740680004000C7047F8B504005E
:101060000F0010001E1E27DDFFF768FFC1172200CA
:10107000002300F06FFCC8225200002300F06AFC3D
:1010800004000D003800FFF763FFC1173200002392
:1010900000F060FCFA229200002300F05BFC0200EA
:1010A0000B00C90756080E435F08300039000019CD
:1010B000694100F021FCF8BD00BED5E70904090C28
:1010C000016270470904090C4162704710B582B093
:1010D0000400102000F0ECF880200002FFF79AFED8
:1010E00000232360A362073363630C4B63616423B3
:1010F0000093633B012200212000FFF76FFF0021D6
:101100002000FFF77FFF00212000FFF7D7FF0449F1
:101110002000FFF7D7FF02B010BDC046E703000074
:10112000FFFF000007230B4083627047C36A07205C
:101130001840704707230B404363704710B5802069
:10114000C002FFF767FE10BD80228358090109091C
:101150008B438350704770B506000D0014000B29B7
:1011600001D9012A04D02402240AAD00AC5170BD7B
:101170000B000C3B01219940FFF7E6FFF3E74068C5
:10118000C0B27047C905C90D816170478069C0054B
:10119000C00D7047C069C005C00D704710B5C36968
:1011A00008221A40044C236813432360C905C90D63
:1011B0004162416210BDC046E801001070B50400F4
:1011C00080235B00FE22C250054D00212800FFF75E
:1011D000D9FF04492800FFF7E1FF0023236070BD19
:1011E00000800540FF010000043101617047FFFFEE
:1011F000F0B5C64600B504000E0090460C4B984270
:1012000012D00C4D0C4F22002900380000F096F847
:101210000300B3434246134322002900380000F084
:101220007EF880BCB846F0BD90231B011E43E8E762
:1012300000800340EC0100102080034010B5140032
:10124000084390221201024305490648FFF7D0FFE8
:10125000054B1A6904218A4322431A6110BDC04616
:10126000FF3FF1FF0080034000ED00E010B50022D9
:1012700000210020FFF7E2FF30BF10BD10B5802035
:10128000C000FFF7C7FD10BD03494B680F220240A5
:1012900093434B607047C0460080044003494B684D
:1012A0000F22024013434B607047C0460080044049
:1012B00010B5044C8E21890063583F2202409343AD
:1012C000635010BD0080044010B5044C8E2189008D
:1012D00063583F2202401343635010BD0080044016
:1012E000BFF34F8F024B034ADA60BFF34F8FFEE725
:1012F00000ED00E00400FA0510B500BEFFF7F0FFB6
:1013000000220368DB0705D4F4239B009A4201DA2C
:101310000632F6E70368DB0700D400BE7047F8B575
:1013200004000D0016001F00FFF7EAFF2B680133D1
:101330002B6037602000FFF7E3FFF8BDF8B506002B
:101340000C0015000B6801330B603000FFF7D8FF6D
:1013500027682B683000FFF7D3FF28682368BB425B
:10136000F3D1F8BD10B500F00FF8FFF72DF810BD60
:1013700010B500F006FB10BD10B500F018FB10BD55
:1013800010B500F022FB10BD70B5184C18492200B2
:10139000002000F08BF8802380225B0000212000D9
:1013A000D20000F02FF8134C134D22002900012029
:1013B00000F07CF8802380225B0000212000D20016
:1013C00000F020F80D4B1B68022B0DDD0C4C2900A2
:1013D0002200022000F06AF88023802200212000F1
:1013E0005B00D20000F00EF870BDC046F4010010A2
:1013F0008C1A0000300200108E1A0000901A0000B3
:101400006C020010F0B5C56804000120AE070CD0D6
:1014100080208000824213D08020C000824205D00C
:101420008020400082420BD0FF38F0BD2100012314
:1014300024311543002021612160E361E560F4E778
:10144000024F5E1E0120BE42F3D9EEE7FEFFFF0011
:101450000300032110B51A000B4219D1114C136877
:10146000114959189943214219D0DCB2511C002C62
:101470000BD0FF242402911C234206D0FF21090433
:101480000B40591E8B41D318D91C0130081A05E0B6
:1014900001335C1E2478002CDDD1101A10BD0432FB
:1014A000DDE7C04680808080FFFEFEFEF7B50D00C0
:1014B00001901000140000F033F82B78722B1CD030
:1014C000772B1DD0612B26D1144A593B0220691C71
:1014D000032784460426012508782B2813D0622888
:1014E00016D0E260019A62611B0704D50222002136
:1014F000200000F063F82000FEBD00230122E5E794
:1015000004230222E2E760463A4303430131E3E762
:1015100032432B43FAE70024EDE7C0460280000087
:10152000F0B5C56804004769066989B0AB0720D0EB
:101530002B0716D400F022F8380000F05BFA2B05D8
:1015400002D5300000F066F90B4BAD0DAD059D42A4
:1015500007D120226846216A00F06AFA684600F046
:10156000C9F83C2200212000FFF70AFF002009B043
:10157000F0BD01204042FAE7000080ADF8B5002838
:1015800012D000F0C1F805002800F8BD3800604313
:10159000084BC01800F0B8F8002801D001256D42B2
:1015A0000134A642F2DCEFE7034B040005003C27C0
:1015B0001E68F6E7F4010010901A0000F7B54369C1
:1015C000C6680193364B04000D0000921E420BD0FA
:1015D000019800F01BFA071E06D1009B012B06D0D4
:1015E000022B2DD0002B06D002273800FEBD200094
:1015F00000F05AF82D18002DF6DBB30404D523684B
:10160000E26A9A4200D2E362A369AB420EDCE16A6D
:1016100022688A4200D20A002169D0180091401A3B
:10162000A84203DB206B1918A94228DC20231E43A3
:101630000023A562A36063601A4B1E40E660D4E7F6
:10164000019800F0DDF9E268002804DA80231343F2
:101650000127E360C9E7E16A2368994200D90B00DA
:10166000A1695B1821695B1A920603D5A26A9342AD
:1016700000DA1300834200DA0300ED18BBE7EB1A2F
:10168000B50701D5181AA060F00703D50099521AC2
:101690009A1A6260009AD118202321609E43CBE7FA
:1016A00003001000BFCFF7FFC16802008B0705D110
:1016B000212201200E4B40421A60704720230B402C
:1016C00009030AD5002B02D0806A0138F5E7936937
:1016D0000068C0181369C01AF7E7002B01D0806AB0
:1016E000EBE70368816900695B18181AE5E7C046F3
:1016F000F001001010B50400FFF7AAFE0100200061
:1017000000F08AF910BDFFFFC36870B503221E0008
:1017100004001640134211D09B0611D5856A00F0D3
:101720008FF8E368094A20001340E36000F010F8E6
:101730000022060029002000FFF740FF300070BDA6
:1017400083690568ED180369ED1AEAE7FFCFFFFF2B
:1017500070B50400134AE36805691A400168C06A5D
:10176000E26082221A40022A02D00120404270BD6B
:10177000DB030CD5814200D201008D4209D1002348
:10178000094AA360E368E56213402560E360002036
:10179000EDE722002800491B00F008F80028EED0F1
:1017A000E3E7C046FFFFF7FFFFFFFEFFF7B5D56891
:1017B0000F00140056690190EB0205D5102330008C
:1017C0001D4300F01DF9A061104B1D420FD03000E9
:1017D000A16900F027F9002806DA80230120E268D9
:1017E00040421343E3600FE0094B1D40E5603A00BF
:1017F0003000019900F022F94300A2695B08FB1A4E
:10180000D318A3610028E8D1FEBDC0461000020035
:10181000EFFFFDFF10B5002811D080210C384905DD
:1018200001608268002A0AD013688B4207D143689E
:10183000546803331B19436093688360F1E710BD5C
:101840002022C36810B59343C3608269836A040091
:101850009A420CD0FFF77CFFE268074B1A40102336
:101860001343E360A36AA3612369E3622360E3682F
:10187000024A1340E36010BDEFCFFFFFBFBFFFFF81
:1018800003000B4321D4002931D00122D2070309E0
:1018900001E0090112099942FBD9430801E049001E
:1018A00052089942FBD900E04908401A07D3524137
:1018B000FAD301461046704749084018F7D29218EB
:1018C000FAD34018014610467047CB0F00D049426A
:1018D000021000D54042534008B5FFF7D4FF0CBCBE
:1018E000521000D34042002A00D549421847F4461E
:1018F000002000F02EF86047F0B517001F4323D0FA
:1019000001264408CF073C434D08A71A2F469F41A4
:1019100003D392185B410136F7E70024002505E068
:101920005208DF073A435B0824196D41871A0F46B6
:101930009F4102D3801A99410134013EF0D1024601
:101940000B4620462946F0BD0020002100F001F89A
:10195000F0BD704710B543435143C918040C130C34
:101960005C43091992B2040C544380B24343504380
:101970002204240C801861411A041B0C8018594160
:1019800010BD8446830708D18B0706D1131F04D3EB
:1019900004C904C0043BFBD21A1D524205D0891A67
:1019A000801A8B5C83540132FBD1604670478842B9
:1019B00007D98B18834204D9013A8B5C8354FBD13D
:1019C000704700B5FFF7DDFF00BD8446043A09D338
:1019D000830707D109060B0A19430B0C1943043A74
:1019E00002C0FCD2043203D001700130013AFBD1B5
:1019F0006046704703B469460220ABBE02B0704730
:101A000003B469460C20ABBE02B0704703B469460C
:101A10000920ABBE02B0704703B469460E20ABBECE
:101A200002B0704703B469460A20ABBE02B07047EB
:101A30000FB469460D20ABBE04B070470FB46946C1
:101A40000520ABBE04B07047656E00FF481A000069
:101A500001000000000000000103E80E46FD010047
:101A60000300000000070107760F0000600F000070
:101A7000640F0000600F00006A0F0000600F00009C
:101A80006E0F0000600F0000720F00007200770000
:041A9000080000004A
:101A940001FFFFFF00AABBCCDDEE00000000000048
:101AA4000000000000000000000000000000000032
:101AB4000000000000000000000000000000000022
:101AC4000000000000000000000000000000000012
:101AD4000000000000000000000000000000000002
:101AE40000000000000000000000000000000000F2
:101AF40000000000000000000000000000000000E2
:101B040000000000000000000000000000000000D1
:101B140000000000000000000000000000000000C1
:101B240000000000000000000000000000000000B1
:101B340000000000000000000000000000000000A1
:101B44000000000000000000000000000000000091
:101B54000000000000000000000000000000000081
:101B64000000000000000000000000000000000071
:101B74000000000000000000000000000000FFFF63
:101B84004141424243434444454546464747484809
:101B94000000000000000000000000000000000041
:101BA4000000000000000000000000000000000031
:101BB4000000000000000000000000000000000021
:101BC4000000000000000000000000000000000011
:101BD4000000000000000000000000000000000001
:101BE40000000000000000000000000000000000F1
:101BF40000000000000000000000000000000000E1
:101C040000000000000000000000000000000000D0
:101C140000000000000000000000000000000000C0
:101C240000000000000000000000000000000000B0
:101C340000000000000000000000000000000000A0
:101C44000000000000000000000000000000000090
:101C54000000000000000000000000000000000080
:0C1C640000000000000000000000FFFF76
:0400000300000139BF
:00000001FF
