:10000000F01F001021060000AD4D0000AD4D0000B6
:10001000AD4D0000AD4D0000AD4D0000AD4D0000F8
:10002000AD4D0000AD4D0000AD4D0000AD4D0000E8
:10003000AD4D0000AD4D0000AD4D0000AD4D0000D8
:10004000F9040000AD4D0000AD4D0000AD4D0000C5
:10005000AD4D0000AD4D0000AD4D0000AD4D0000B8
:10006000AD4D0000AD4D0000AD4D0000AD4D0000A8
:10007000AD4D0000B92E0000AD130000AD4D0000E5
:10008000C9140000AD4D0000AD4D0000AD4D0000A5
:10009000AD4D000091160000AD4D0000AD4D0000CB
:1000A000AD4D0000AD4D0000AD4D0000AD4D000068
:1000B000AD4D0000AD4D0000AD4D0000AD4D000058
:1000C0002453000000000010C4000000C400001011
:1000D0005C000000F0B5114B11498B4204D30020A5
:1000E00010498B420ED3F0BD00221D685F689868EE
:1000F000BE18AC18904201D80C33EEE724680432E5
:100100003460F5E700221E685C68B518944201D897
:100110000833E6E728600432F7E7C046C000000075
:10012000CC000000D400000010B5FFF7D3FF04F0AE
:1001300081FEBFF34F8F034B034ADA60BFF34F8F4B
:10014000FEE7C04600ED00E00400FA05B0B586B059
:1001500000AF434B1A683A619A88BA829A79BA75A5
:100160009A68BA609A89BA819B7BBB730023BB8073
:100170003C4B1B78002B10D13B4B1B68032B52D000
:1001800034DC012B12DD022B46D1374A01331360D8
:1001900007221023F9185B2010E0324B00241C705A
:1001A000002002F009FC304B1C60E5E7002B33DB3C
:1001B0002D4A01331360002200214820951C1300B2
:1001C0000933DB08DB006C46E31A9D466C46207061
:1001D00000236370002902D0A01C04F01FFE210040
:1001E000280000F0FBFEBD4606B0B0BD042B13D1C5
:1001F0001E4B1B68002B1EDD1C4B1B68002B1FDDDC
:10020000E72B25DD194AE83B1360184B1B88BB80A0
:100210000222391D4620D1E7134A01331360002220
:1002200000210120CAE7104A013313600722082386
:10023000F9185B20C2E702F037F80C4B1860DBE7D7
:10024000094A136801331360002200210120B5E739
:10025000064B00221A60044A136801331360D4E786
:100260000050000000000010C8000010C400001082
:1002700070B584B0060000F01BFA040083691B0708
:100280003ED50023039303AB0093002300220021FB
:10029000032003F0D7FA039B002B00D100BE0028F7
:1002A00000D100BE254804F069FC039D451B62890E
:1002B000A3891B04134303D0002D26DBAB422BDDA7
:1002C000A48801F0F1FF60430130A84202DA012C5A
:1002D00000DD013C200001F091F800F0BDFE002E91
:1002E00020D000F0C9FE0290012102A802F05CF8C3
:1002F00001281CD1029800B201F03EF904B070BD93
:100300000121082000F02EFABBE70121902000F027
:1003100029FA01F0A1F8E0E784200121800000F033
:1003200021FAF6E70021052000F09EFED9E788209B
:100330000121400000F016FADCE7C046004005400D
:1003400030B587B0012803D0032805D000242FE062
:100350000020FFF78DFFF9E700F0AEF90028F5D097
:100360000121042000F0FEF90020FFF781FFEDE7F6
:10037000204802A902F08AFC00280CD002AB1B78AE
:10038000042BF5D11B4801A902F082FD0100019860
:1003900000F024FEECE7184B1B78DDB2002B18D1DF
:1003A00001F074F800281DD101F0C8F800281DD113
:1003B000124B1B78DDB2002BEDD0104B00221A70CF
:1003C0000F490C48443202F02BFD041ED0D12C0002
:1003D000E1E7094B00221A7002F0C8FAFFF7B6FEF7
:1003E0002C00DDE70120FFF743FFDDE7200007B029
:1003F00030BDC04620010010CC000010CD00001020
:100400003801001010B500F029F910BDF0B583B027
:10041000019000F051F90400050000F061F90600B8
:1004200000F078F9070034430443E4B2002C19D1FA
:1004300000F07CF90400FFF7E5FF01211A4804F001
:1004400063F902F083FA012001F050F8002D19D170
:100450003E43F6B2002E1DD1019B002B1ED104F0AD
:10046000EDFAFEE7012004F0F3FA04F039FB040092
:10047000002004F0EDFAA406DAD50121802000F076
:1004800071F9D5E7012004F0EDFA200004F0A6FA96
:1004900003B0F0BD200004F0A1FAF9E7FA20C00093
:1004A00004F060F8DBE7C0460040034010B500F000
:1004B000BBF900F079FD084B01221A70FFF746FEE8
:1004C00000F0FAF8002800D110BD044B01221A6098
:1004D000012004F0D1FBF7E70000001000E100E08C
:1004E00010B50021022000F0BFFD02F04BFA00F031
:1004F00077FFFFF7DBFF10BD10B5012004F0C6FB4E
:1005000000F0DAF8002800D110BD0121042000F02D
:1005100029F9012000F072FFF6E710B5002803D09A
:10052000142000F0E3FF10BD012000F0DFFFFAE728
:1005300010B5034B01221A70142000F0D7FF10BD34
:10054000CD00001010B5034B01221A70142000F0EA
:10055000CDFF10BDCC00001030B50C4CA5441500EB
:100560000B4B994200D000BE0A4C23006A460100A2
:10057000094804F0CDF823002A002100684603F062
:10058000B1FDC000054B9D4430BDC046FCFBFFFFE4
:10059000ED1F0000FE0300000040034004040000C3
:1005A00070B5CC1D074DE317072119400919C91073
:1005B0002B0003F0EDFDA84201D0002070BD0248E1
:1005C000FCE7C046FE030000ED1F000070B5FFF71A
:1005D00087FF04F013FA040014E0012017E0012063
:1005E00015E0012500E001252000FFF7A9FE002805
:1005F00000D000252800FFF709FF03F0CBFEFFF72E
:100600006FFF0324022CE8D0FF2CE8D0002000F07C
:100610006DFFFF2CE7D0022CE3D00025E4E7FFFFBD
:1006200010B5074803F06AFF03F0B4FEA023DB0512
:100630005B68002BFAD0FFF74DFDFFF7C7FFC04600
:1006400080841E0003204042984280414042033390
:1006500002D8019B009A1A607047FFFF00B589B06D
:1006600000F078FF01F0D0FD02F0E8FF20236A4699
:1006700004210C4804F04CF80B482022694604F091
:10068000DDFB002806D109480122002104F0F4F91D
:1006900009B000BD044A20230421024804F064F894
:1006A000F1E7C046004003407C0100109C010010AF
:1006B000004870477C010010084B9A691E231340C4
:1006C000981E42425041C0B2022B00D07047034BEB
:1006D0009B889BB2002BF9D100BEF7E77C0100108C
:1006E0000B4B9B690C221A420BD0094B9B69DB0612
:1006F00009D4074B9B889BB2002B06D100BE01207A
:1007000000E0002070470020FCE70120FAE7C04627
:100710007C010010044B986980235B001840431E45
:100720009841C0B27047C0467C010010034B9B69E2
:1007300080201840431E9841C0B270477C010010D1
:10074000074B5B8A1BB2834201DD054B5882044B89
:100750009B8A1BB2834201DA014B98827047C046E4
:100760007C01001070B582B005001B4B9B69060030
:100770009E430E23334202D0184B01221A700029E7
:1007800000D0350000240CE000230193042201A9CD
:10079000200002F08DFF002800D100BE0134E4B239
:1007A0006D08002D0ED0EB07F8D5631FDBB2012BCF
:1007B000EAD900220021200002F07AFF0028EDD1C2
:1007C00000BEEBE7044A936933439361300000F0C5
:1007D00045FF02B070BDC0467C0100109C010010B6
:1007E00010B5011E14D00D4C1222200004F016FB8F
:1007F0000023A361E361094B094A5A82094A9A829C
:10080000012002F0E5FE01210120FFF7ABFF10BD42
:100810000248202204F00AFBEDE7C0467C010010EC
:10082000FF7F00000080FFFF30B583B0042301AAE2
:100830000021264803F06CFF019A254B1B689A4261
:1008400023D0234A214C04230021200003F08CFFF5
:10085000202300220421200003F08EFF01F004FC7D
:10086000002001F031FD0020FFF7BAFF194B0022F4
:100870001A7001250024184800F066FE01212800A6
:10088000FFF770FF200003B030BD144A202304217D
:100890000E4803F03DFF01F0E7FB002002F098FE58
:1008A0000C480122002104F001F9FFF719FF041E92
:1008B00006D0084B1B78002B05D01C000125DAE779
:1008C00001250124D7E79125D5E7C0460040034024
:1008D000040000109C010010980100107C01001021
:1008E00070B515001C00012800D000BE080001F002
:1008F000C5FD002801D1002070BD2900200001F0B5
:1009000029FE4000F8E7FFFF70B50400042901D07C
:10091000144870BD1378012B01D01348F9E75378C0
:10092000002B01D01148F4E7114D2B6013782B7187
:1009300053786B719178D3781B020B43EB8010785E
:100940009378D178090219432B000833E822FFF786
:10095000C7FF010008312A00200002F049FB0020F7
:10096000D7E7C0460D0001000E0001001000010095
:10097000E8030010F8B505001400072901D01C4851
:10098000F8BD127863781B0213431A4A1380A278C9
:10099000E3781B021343227912041A4363791B067E
:1009A000134300D1144B134E1A04120C72801B0C0B
:1009B000B380A379B371114802F06CFE070023786D
:1009C00060780002184301213200494202F0D6FE4D
:1009D000380002F05FFE3188227863781B021343EF
:1009E00033803200280002F003FB0020C8E7C04635
:1009F0000D000100E8030010FFFF7F00010A000066
:100A0000F8B5CE46474680B51500099C002C00D1AC
:100A100000BE9A1C00D19EE05A1C00D1ADE0654A90
:100A20001268002A00D1B4E0634A1288013A92B2F7
:100A3000ED267600B24200D900BE002900DAAAE015
:100A4000A678E27812023243267936041643627998
:100A50001206324391461600C640F60700D484E0E1
:100A6000564E3768013737602678B44666783602C6
:100A700062461643B74278DDA67901273A00324034
:100A80009446374200D088E00027B20700D50437EB
:100A9000720700D50137360702D5002D00D07F1927
:100AA000454E3688F719EE225200974200DB76E079
:100AB000E779227A12023A43013297B2B946FF2708
:100AC0003A40E2714A46170A27726246002A08D065
:100AD000384A126893551B0A771CD3550236364B99
:100AE0001E80A3799B071AD5324B1E68324B98465D
:100AF0001A88089BB3541B0A9C46531C6746F7543C
:100B0000089B1B0C9C46931C6746F754D31C9C46C1
:100B1000089B1B0E6746F355043243461A80A3799F
:100B20005B0706D5244A1388224E3668F0540133F9
:100B30001380A3791B0718D5002D16D01D4B1A68FA
:100B40001D4E3388D2182B001D4803F0E1FD338879
:100B5000ED18358009E0174B1C60184B00221A6015
:100B6000E2712272144B09321A8006202056C043CB
:100B7000C00FC0BCB946B046F8BD0E4B00221A608B
:100B80000E4B1A600C4B19782170597861701A80DD
:100B9000EBE700BE48E7002552E7022775E7802310
:100BA0004A461A43A270110AE170110C2171120E0B
:100BB0006271DAE7D4000010CE000010D0000010FF
:100BC0000040034010B582B004000C4B0193FFF7C6
:100BD00073FD002802D1019802B010BD012104204C
:100BE000FFF7C0FD012000F009FC0023019301AADA
:100BF0000421200002F0FCF9EDE7C0460F000100DF
:100C000010B582B00400012902D00A4802B010BD1C
:100C10001078831EDBB2052B01D90748F6E700F0F8
:100C200023FA019001AA0421200002F0E1F900203A
:100C3000ECE7C0460D0001000E00010030B583B0A6
:100C400005001400122902D0294803B030BD1378E2
:100C5000527812021A43A3781B041343E178090661
:100C6000194300D10131234803F094FF00F0F4FB55
:100C70000023019301AA0421280002F0B9F9012000
:100C800001F022FB00F068FC2000FFF7A9FD2279AB
:100C900063791B02134301D10020D6E70121022012
:100CA000FFF760FDA279E3791B021343227A120455
:100CB0001A43637A1B061343013312D00121042027
:100CC000FFF750FDA379E27912021A43237A1B043D
:100CD0001343607A0006184300D1013000F08EFB08
:100CE000DAE7054B01221A60012003F0C5FFD3E7C4
:100CF0000D0001000040054000E100E070B58EB03D
:100D00000600FFF7D5FC040004AD282200212800CE
:100D100004F08CF823680593A3882B81E18822894D
:100D20001A236B4419805A806189A2891E236B445F
:100D300019805A800E22A35E6B821022A35EAB82C2
:100D40001222A35EEB821422A35E2B83A3690B9372
:100D500001F0AAFA68830023039303AB00930023F6
:100D600000220021032002F06DFD039B0C93064836
:100D700003F004FF0D902A002821300002F038F91A
:100D800000200EB070BDC0460040054070B50500A3
:100D90001400022901D0124870BD124E00233360A6
:100DA000127863781B021343B380F01D03220021E5
:100DB00004F03CF8237861780902194333000A33C0
:100DC000E8220120FFF78CFD0100C30F1B185B1008
:100DD000B3710A313200280002F00AF9DBE7C0469D
:100DE0000D000100E8030010F0B585B006000C000E
:100DF0005F4B1D780B78022B08D00A2B10D05C4B70
:100E00001B78002B16D1280005B0F0BD102800D0AB
:100E100000BE58483200210004F000F80125EEE73A
:100E20000A2800D000BE54483200210003F0F6FF2B
:100E30000125E4E74E4B00221A7080324F4950489A
:100E40000023920001F0DAFD2378482B0DD001A990
:100E500000230B714B4B0193494801F00BFE002816
:100E60007AD1474801F060FECDE701A9473B0B71FD
:100E7000454B0193424801F0FDFD00282ED101AB06
:100E800001221A71414B0193684600F095F9070061
:100E9000009B002B2DDC684600F0E4F90700009B66
:100EA000002B37DC684600F047FA0700009B002B58
:100EB00041DC01A901230B71324B0193304801F051
:100EC000D9FD0028C3D02C492D480A2201F0E4FDA9
:100ED0000028BCD02A4801F00BFEB8E72549284875
:100EE000102201F0D9FD0028C9D0254801F000FEEC
:100EF000C5E7234801A901F0ABFD0028CBD0009A3B
:100F00001F48390001F0C8FD0028C4D01C4801F07A
:100F1000EFFDC0E71A4801A901F09AFD0028C1D0F1
:100F2000009A1748390001F0B7FD0028BAD01448DC
:100F300001F0DEFDB6E7124801A901F089FD0028A5
:100F4000B7D0009A0E48390001F0A6FD0028B0D0B5
:100F50000B4801F0CDFDACE709483200210001F05B
:100F60009BFD002800D17CE7054801F0C1FD78E732
:100F7000D8000010C4030010B8030010A001001036
:100F8000A0030010105000004400001008000010E2
:100F900010B50B2801D0012010BDFFF7A1FB0123E4
:100FA0005840C0B2F8E7FFFF10B582B002F008F871
:100FB000094802F017F801AC0023238002332370A4
:100FC0002100022002F066FA0A2323702100022089
:100FD00002F060FA02B010BDE90D000010B5034B3D
:100FE00001221A7002F056FA10BDC046D800001057
:100FF00000B583B000280AD0002300936B46998087
:101000006A460621502001F0F3FF03B000BD014BFA
:10101000F3E7C0460E00010010B5022900D000BE63
:101020000A498A4204DB0A498A4202DD084A00E092
:10103000064A08490A60002B00D110BD11B20132E6
:10104000531E9A41D0B2FFF7D3FFF6E770FEFFFFC1
:101050005203000058000010014B024A1A6070470A
:10106000580000105303000010B50B0000220221AD
:1010700000F03AFB10BDFFFF10B50021034803F05C
:101080005FFEC005F9D4024B186810BD0000064091
:101090005800001070B504000E0015000120801AE1
:1010A0000818202103F0C2FE302333700CE00A211F
:1010B000200003F02FFF30313170013E0A21200063
:1010C00003F028FF0400013D002D01DD002CEEDCC3
:1010D00070BDF8B505000C0000281BDB01270A21B4
:1010E000280003F017FF080001222100FFF7D2FFBC
:1010F000631E2E221A70A61E0A21280003F00AFF82
:1011000003223100FFF7C6FF002F02D1043C2D233C
:101110002370F8BD45420027E1E7FFFFF8B5CE4652
:10112000474680B50400884691461D00B3281BDD64
:101130001A4B984206DC3C2103F0ECFE0400072623
:10114000174F13E0174B984207DCE121090103F028
:10115000E1FE04000526144F08E0144903F0DAFE0E
:1011600004000426124F01E00726124F089B9E42FE
:1011700000DD1E00089A2021280003F057FE3200EF
:101180003900280003F04AFE4A4641462000FFF796
:1011900081FFC0BCB946B046F8BDC0462F2A00004A
:1011A000485200007FF403004052000080510100CB
:1011B0003852000050520000F0B585B00600FFF72D
:1011C00077FA042400E0013C002C04D0826901235A
:1011D000A3401342F7D001F067F807001C4D2E2200
:1011E0000021280003F022FE1A4BA200D15828004B
:1011F00003F040FE032C06D0042C22D02E233360B3
:10120000134805B0F0BD0023039303AB0093002304
:1012100000220021032002F015FB0F4803F0AEFC72
:10122000039BC01A0D4CA11E072300932300032229
:10123000FFF774FF21000D3105223800FFF72AFF68
:10124000DCE7074905223800FFF724FFD6E7C04650
:101250004407001058520000004005405407001099
:1012600051070010F0B5C64600B584B00700FFF77F
:101270001FFA80460024039403AB0093002300224E
:101280000021032002F0DEFAA122294E52000021A3
:10129000300003F0CBFD3C60053419E0039B029362
:1012A00002AB0093002300220021200002F0CAFAC2
:1012B000204BAD00E958300003F0DCFD052C17D0C1
:1012C000062C22D02E363B682E333B600134E4B22C
:1012D0000B2C27D843469A6925000123A3401342CB
:1012E000F4D03B68002BD9DD731E0A221A70D5E7B3
:1012F0000298039BC01A3100243107230093330066
:1013000026330322FFF70AFFDCE70298039BC01A8B
:101310000723009333002533032231002331FFF7E5
:10132000FDFECFE7024804B080BCB846F0BDC04621
:10133000000600105852000070B50500FFF7B8F91C
:10134000040016483B22002103F070FD1223E25EE8
:101350001421635E9A421BDA1149104E300003F0EB
:1013600089FD1223E05E31002931FFF7B2FE14231C
:10137000E05E31003931FFF7ACFEFFF77DFE094C2E
:101380002100FFF7A6FE3B232B602000193870BD1B
:101390000549024803F06EFDEFE7C046C4050010A2
:1013A00014500000DD0500105050000070B50A4DCB
:1013B000280003F00DFC04000100280003F016FCD7
:1013C000E40700D470BD0121280003F0C9FB034BE2
:1013D00001221A70F6E7C04600400540DA0000100E
:1013E00010B50121034803F0E3FB034B8022D20137
:1013F0001A6010BD0040054000E100E070B5040037
:101400000021124803F09EFB114B00221A70002CA1
:1014100019DD0E4D0321280003F094FB2100280064
:1014200003F09EFB80246401200003F025FC2000D3
:1014300003F02CFC074B8022D2011A600121280006
:1014400003F0B6FB70BD0124E3E7C0460040054051
:10145000DA00001000E100E010B5094C0021200086
:1014600003F070FB074A80238021C901D15000217D
:10147000200003F09DFB044B00221A7010BDC046F3
:101480000040054000E100E0DA000010014B187850
:10149000C0B27047DA00001010B508484368012256
:1014A000934343600649802380246402CC50026049
:1014B00003F005FC034B00221A7010BD00C0004071
:1014C00000E100E0D900001010B5064B1B68DB07F7
:1014D00000D410BD0124034B1C60FFF7DDFF024B5D
:1014E0001C70F6E700C00040D900001010B50400E1
:1014F000802149000E4803F0DDFBFFF7CDFF03F02C
:1015000007F8002C11DD4443640B094B094ADA60EB
:101510009C615A6901210A435A61074A80204002AE
:1015200010605A680A435A6010BDC40C0134ECE7DD
:1015300000C00040FF1F000000E100E0014B1878F0
:10154000C0B27047D9000010014B18607047C04608
:10155000DC0000107047FFFF064B1B68002B07D014
:101560001A7801218A431A70D2B201318A431A7063
:101570007047C046DC00001010B586B00400334B45
:10158000984201D106B010BDFFF7DAF8FFF790F8E6
:101590000E22835E1021425E9342F3DAA34227DCDF
:1015A000A24233DB2A4B1B681B78DA073FD49B0728
:1015B00013D5052001235B4204930F226A440023C4
:1015C0001370009304A902F04AF9049B002B04DB7A
:1015D0000F236B441B78002B2BD11D4B1B681A78F3
:1015E00001218A431A70D2B201318A431A70C9E7C5
:1015F000174C23681B78012119404020FFF7B2F8EF
:101600002268137801210B431370BBE7104C236849
:101610001B78022119404B1E9941C9B22020FFF7C7
:10162000A1F82268137802210B431370AAE7062061
:10163000C0E7084803F0A2FA05900F236B441B781B
:10164000049905AA044803F08FF8C6E75303000085
:10165000DC00001000400540004003407047FFFFE1
:1016600010B504004B015B185B01591A4900064B89
:10167000C818064903F04EFC022C00D010BD0A2108
:1016800003F07CFBFAE7C046500004004D08000060
:1016900070B5104D280003F06DFB01000E4E307840
:1016A000C0B2FFF7DDFF04000C4A802380218903CC
:1016B000D150280003F028FB280003F038FB3178D4
:1016C000C9B2074B1B682200FFF7A6FC054B00229E
:1016D0001A7070BD00000640E400001000E100E058
:1016E000E0000010E5000010F0B583B005000F0029
:1016F00014000193224B1B78002B3CD1204A01336C
:101700001370204E300003F0E7FA2900300003F098
:1017100006FB002C21D01B4803F00DFB002C2DD024
:101720000021184803F00CFB8005F9D5154D280061
:1017300003F020FB01003800FFF792FF0400124A7B
:10174000802380218903D150280003F0DDFA0C4B5F
:1017500000221A70200003B0F0BD0C4B1F700C4B20
:10176000019A1A600121300003F01CFB064B802215
:1017700092031A60CFE701246442EBE70024E9E713
:10178000E50000100000064000E100E0E400001069
:10179000E0000010054B00221A605A601A72013AEC
:1017A0001A61DA605A619A617047C046080C0010ED
:1017B000F0B5CE46474680B501279740FFB2013FBE
:1017C000FCB2A146072A00D900BE002B01DD00258E
:1017D0000CE000BEFBE766463678B0460826B61A2F
:1017E00047463741477001309C420EDA4C19A446F7
:1017F0004E5D964004784F463C40344304700135BA
:10180000EC00A61A9E42EFDAE5E7D21807231A4049
:10181000F8339340DBB2DB43DBB2002B02D002781B
:1018200013400370C0BCB946B046F0BDF0B5D64613
:101830004F464646C0B58A460824A11A8C46012761
:101840008F40013FF9B28946072A00D900BE002B1C
:1018500001DD002503E000BEFBE79E4214DA51469D
:101860004C5D1441E4B204700135EE00B71A9F429A
:10187000F3DA4F5D61468F4049460C403C430470AB
:101880009E42EADA0130E8E707221A40FF2393403C
:10189000DBB2DB43DBB2002B02D0027813400370D3
:1018A000E0BCBA46B146A846F0BDFFFF10B5010046
:1018B000154B1B681B685B031B0F082B01D900200D
:1018C00010BD9A00D2185200D3181333DC17072228
:1018D00010002040C018C010640F1B191A40121BC2
:1018E0000A4BC0180B23FFF763FF074B1868036808
:1018F0005903090F01310F220A40D20304490B405A
:10190000134303600120DBE7F40B0010F80B001019
:10191000FF7FF8FF70B504000800134B1B681B68BD
:101920005B031B0FA3420ADC0F4B1B681B685B03A6
:101930001B0F0120A34200DC0020C0B270BDA30039
:101940001B195B001B191333DD17072211002940F7
:10195000C918C9106D0F5B191A40521B034BC918E7
:101960000B23FFF763FFDFE7F40B0010F80B001009
:1019700010B5074B18680B2103F0CCFA002900D0F2
:1019800000BE034B18680B2103F0C4FA10BDC0461B
:10199000080C0010002200200EE00A4B1B689B017F
:1019A00099189B5C497809020B4307498C466044AF
:1019B0002F335B119B00D218044B5B689342ECDC25
:1019C0007047C046240C0010E7020000080C00100D
:1019D00010B5104B1A6813685B0312D013685B03D1
:1019E0001B0F092B0FD814886404640C0B212000F2
:1019F00003F090FA002908D1074B9C4207D9002038
:101A000000E0002010BD0020FCE70020FAE70120E4
:101A1000F8E7C046F40B0010964700000268134B2D
:101A20009A4201D0002070478268114B9A4201D03F
:101A30000020F8E743680F4A134210D1002B07D06B
:101A40000D4A126892019A18F020C001824208D211
:101A5000002908DB591A4B425941C8B2E3E700207C
:101A6000E1E70020DFE70120DDE7C046FFFF0000DF
:101A7000FFFFFF7F0380FFFF240C001030B583B011
:101A8000040005880B21280003F047FA89B20029D9
:101A900048D1264B9D4201D9002044E004236A46E8
:101AA0002349244802F034FE6B461B88DB439BB27B
:101AB0006A4613805288D24392B269464A8021888E
:101AC0008B4213D0002000282DD1A821042301AA85
:101AD000C900184802F01CFE019B002B1CD16B466C
:101AE0001A88154B9A4208D000201CE063889A425D
:101AF00001D00020E7E70120E5E76B465A880E4B4E
:101B00009A4201D000200EE02388002B06D1638882
:101B1000002B05D0002006E0002004E0002002E0B9
:101B2000012000E0002003B030BDC0469647000011
:101B30007C0E000000400340FFFF000070B590B035
:101B4000194E33880FAD2B80B3886B80174C04235C
:101B50002A001749200002F007FE2B88DB436A4663
:101B600013876B88DB43538704230EAA1149200097
:101B700002F0FAFD3368D917C905C90DC918491211
:101B80008901A823DB009C46614438236A46200073
:101B900002F0BEFDE42138236A460901200002F06C
:101BA000E3FD10B070BDC046080C001000400340BB
:101BB000780E00007C0E0000F8B500AF0D00140098
:101BC00007260640C008A823DB00C118002D19D045
:101BD000002C19DD32190732D017072303409B1858
:101BE000DB10DA1DD208D2006846821A95460748F3
:101BF00002F08EFD2300320069462800FFF716FE32
:101C0000BD46F8BD00BEE3E700BEE3E70040034089
:101C1000F0B5D6464F464646C0B500AF8946904619
:101C2000C3175A0F861807242640B61A1C402418DA
:101C3000E410A823DB009C46644400282DDB4B46BF
:101C4000002B2CD04346002B2BDD4346F3180733E3
:101C5000DA1707251540ED18ED10EB1DDB08DB004A
:101C60006A46D31A9D46104B9A4601236A462100C4
:101C7000504602F04DFD4346320049466846FFF7A4
:101C800097FD2B006A462100504602F06DFDBD46CF
:101C9000E0BCBA46B146A846F0BD00BECFE700BEE4
:101CA000D0E700BED1E7C0460040034000B585B094
:101CB000064B0193064B5A680292064A0392186833
:101CC000602201A9FFF7A4FF05B000BDFFFF0000DF
:101CD000080C0010FFFFFF7FF0B5C64600B582B0CC
:101CE0008046294C00261BE05A1E13406A46D380CA
:101CF00001376B4606331B88002BF5D1234BE318C5
:101D0000DB00DF19103F0B21380003F006F9002932
:101D10001FD0023C002E28D1A923DB009C4224D3F3
:101D20006B469D1D02232A002100194802F0F0FC99
:101D30002A88184B9A42ECD102232A002100083944
:101D4000134802F0E5FC2B885A1C1A42E1D1002707
:101D5000CFE7602241463800FFF72EFF01214942BC
:101D60004046FFF75BFE0600D3E7002E04D03800A4
:101D700002B080BCB846F0BD0C220021404603F002
:101D800055F80027F3E7C046330E0000B8FAFFFF0E
:101D900000400340FFFF000070B504000D00C117B4
:101DA0000F23194009180811A1180139CE17334023
:101DB000591809110B00002C10DD002D10D0002A3D
:101DC00010DD1D2B00D900BEA401960102F010FD0C
:101DD000002809D043425841C0B270BD00BEECE7B4
:101DE00000BEECE700BEECE772B600233200210033
:101DF000280002F033FD62B60028EBD12B680133D6
:101E000006D1002E04D004350434043E2B68F6E7D6
:101E100072B6002332002100280002F033FD62B6C2
:101E2000D8E7FFFFF0B585B04F4B1D68F0235B008E
:101E30009D4203DB0025280005B0F0BD4B4B01227D
:101E400052429A615A68D3173F24210019408918D9
:101E500089116D189B0ED2181440E41A444E2200CA
:101E6000FF21300002F0E2FFA419A61CA8203200D6
:101E70004049C000FEF770FB421E3F4B9A420BD810
:101E8000C21DD11707230B409B18DB1020700212D4
:101E900062700233E4180BE0A821384B3200C9000D
:101EA000374802F035FC3348EAE7FF23237001345A
:101EB0002F4BE31A9906F8D12C4A51682F30C417DA
:101EC0001F2222401218521192008C18890700D04C
:101ED00000BE254A126892011219013AF021C90187
:101EE0008A423FD219003F31C8173F2202405218A0
:101EF0009211002B1BDD1E492800FFF74DFF051E28
:101F000099D01A4B1E6800221A601B7A022B10D03F
:101F1000164B5C60FFF712FE0C22002101A802F0B4
:101F200085FF602201A93000FFF772FE83E700BE43
:101F3000E1E70E4BDB68134A93420BDC0B4F0323A4
:101F40003B72FFF727FD104B9C46604438617B686D
:101F5000FB60DDE7074A934200D000BE034B00223E
:101F6000DA60D5E7002566E7240C0010080C0010A5
:101F700074070010ED1F0000EB1F0000FE030000BF
:101F800000400340EC1F000019FDFFFFF8B50700FB
:101F90000E0000240FE0FFF7EBFC104B984214DC1E
:101FA000610079180E4D28680B22FFF731FE2B686F
:101FB0000B332B600134B44207DAFFF7D9FC094B2D
:101FC0009842E8D1FFF72EFFE5E707490A78E317C3
:101FD0001B1BDB0F13430B702000F8BD81060000B4
:101FE000080C0010E7020000E600001070B50500C4
:101FF000174B1B689B0118185C5D43781B021C4340
:10200000144B9C4222D0144B9B69AB420CD0134B17
:102010009C420DD00230124A2100FEF7C1FA0F4B4C
:1020200098420DD0002012E02F34601180000EE0A5
:10203000811C0B480B4A02F0F1FE8020C00006E034
:10204000054B9D612F346011800000E0002070BDC1
:10205000240C0010FFFF0000080C0010ED1F000012
:1020600074070010FE030000F0B593B05C4A5D4BAE
:102070005D495B1A013B9B18D9173F220A40D318D0
:102080009B115A4A1360FFF785FB594C042201212A
:10209000200002F00BFD574B1C60FFF799FC040079
:1020A000042311AA5449554802F032FB11A8FFF746
:1020B000E5FC0500002C18D1002D2CD1002C3FD0C0
:1020C0004C4B1B681B885B045B0C4D4A13600F9BD9
:1020D0005360002C00D17CE0002D00D17CE0012178
:1020E000464802F011FB13B0F0BD424B1B68188844
:1020F0004004400C60220EA9FFF75EFD002D07D0C2
:1021000011AB59880EA8FFF789FC041ED8D1D3E77C
:1021100001214942F6E711AC2388364A11685B0475
:10212000580C0B88DB0BDB0303430B8060220EA9EA
:10213000FFF742FD61880EA8FFF770FC0400BDE7C1
:102140000EA8FFF7C9FD2B4B1A6843045B0C1088DF
:10215000C00BC0031843108083B25B04591E8B412F
:10216000DCB2002BACD1002D08D1254B0021196029
:102170005960136823490B401360AAE711AB1E880E
:102180001F4B1E60760AB601E4211C4F38236A46B5
:102190000901380002F0BCFAA823DB00F11838234B
:1021A0006A46380002F0E0FA3836F60002E01449D8
:1021B0000B3B0B60124B1B68B342F8DC11AB5A8827
:1021C0000F4B5A600B4B1A6813680E490B40136093
:1021D0007FE7FFF76BFD7FE7FFF7B0FC7FE7C046C7
:1021E000040100102453000000000010240C001013
:1021F000F80B0010F40B0010780E000000400340B4
:10220000080C0010FF7FF8FF00B585B0204B1B685D
:1022100018884004400C602201A9FFF7CDFC012181
:10222000494201A8FFF7FAFB1A4B1B78002B01D19A
:10223000002801D1FFF73AFD04236A4616491748E2
:1022400002F066FA6846FFF719FC154B1B686A46F0
:1022500012889B1A002803D0002B01DB622B01DDC2
:10226000FFF76CFC01210D4802F04EFA0C4B1A6886
:10227000074B19685204520C0B88DB0BDB0313432A
:102280000B8008480422012102F0F6FB05B000BDD6
:10229000F40B0010E6000010780E00000040034030
:1022A000080C0010F80B001010B5064B1B681C68DA
:1022B0006403240FFFF75CFB2418FFF76BFB201867
:1022C00010BDC046F40B001030B585B004002F4B94
:1022D0001A6813682E490B4013600C22002101A8D4
:1022E00002F0A4FD2B4B1868602201A9FFF790FCB7
:1022F000042300222849294802F03EFA002C11D07C
:10230000274B1868F0235B0098420BDA830100E04A
:102310000433244A934202D81A680132F8D0214A81
:10232000934203D9FFF736FA05B030BD00091D21ED
:1023300002F05EFA00280FD1194B1B681C000F3405
:1023400025090F22210091438B4207D3F0235B0024
:102350009C420FD30028E5D000BEE3E772B60139F6
:102360000F4B1868002202F067FA62B60028EDD021
:1023700000BEEBE772B600221D21280002F04AFAE7
:1023800062B60028CED000BEE6E7C046F40B0010CF
:10239000FF7FF8FF080C0010780E0000004003409B
:1023A000240C0010FC770000F0B5CE46474680B5FF
:1023B00087B0071E884601D0002630E000BEFBE74C
:1023C0000134630001AAD1182000FFF7A3FA002806
:1023D000F6D1092C00D000BE0023EA5E01A86300FC
:1023E0001A5201342100FFF7D1FD8146002839D06F
:1023F00001361F4B1A6813681E490B401360050015
:1024000007E00024DDE76B0001AAD018FFF74EFAC1
:102410000135A542F7DB184B1B7A012B0AD0464544
:1024200020DA75007D192800FFF740FA0028E8D06F
:102430000136F4E7104BDB684B4504DB0E4A494696
:102440005B1AD360EBE70C4902220A7208684A461D
:10245000D31A1A07D21A9200D2189200D318C018B1
:10246000C860DCE7300007B0C0BCB946B046F0BD7C
:10247000F40B0010FF7FF8FF080C001070B505008A
:10248000304B00221A72013A1A61DA60002857DBD9
:102490000022002401204042060003E010001A0040
:1024A00026000C00274B5B6893421ADD264B1B6805
:1024B0009B0199189B5C497809020B4323496118D9
:1024C0002F335B119B009B18900700D000BEAC42DD
:1024D000E4DC260010008D4202DB1A000C00E1E76C
:1024E0000C00AE4207DCAC4205DD164B03221A722B
:1024F0001E61D8600DE02A1B93009B185B009B189F
:10250000104A12689A420ADD0E4A022111721561C0
:10251000D3600C4B5D611869C043C00F70BDFFF7FD
:1025200027FA24182C1B0A4B1B681B685B031B0F24
:10253000A342EEDD034B01221A721D61DC60E8E765
:102540000020EBE7080C0010240C0010E70200004C
:10255000F40B0010F8B505000E00002813D05A4BFC
:102560001B69002B00DAA1E0574B1B7A032B0CD020
:102570000024554B1B7A022B70D0534B1B7A012B36
:1025800000D094E087E000BEE9E74F4BD868FFF742
:102590002DFD070000243DE0521A93009B185B00BC
:1025A0009B18D817072211000140C918C910400F05
:1025B0001B181A40121A60002818444BC9180B2324
:1025C000FFF734F90134404A536901335361B4428F
:1025D00006DA3D4B19693E4A88185A699042DBDA9F
:1025E000394A13693A498C466344526993420CDA7A
:1025F000354AD368DB19D3609B0700D000BE324A4E
:10260000136934498C46634413612F4BD868FFF734
:10261000EDFC0700002F06D0B44204DA2A4BDA683A
:102620005B689A42D3DB284BDA685B689A42A0DB8E
:10263000254B02221A720022DA609AE761006918BB
:102640000B22FFF7B9FA01341F4B1A6901321A61E4
:10265000DA680B32DA605A6901325A61B44204DA3C
:10266000194BD8681B689842E8DB174BDA681B687F
:102670009A4282DB144B01221A720022DA607CE754
:102680000134114B1A6901321A61DA680132DA60D9
:102690005A6901325A61B44209DA610069180A4B79
:1026A000D868FFF737F90028EAD100E000240022BB
:1026B00006E051006B5E5B011BB25B116B52013295
:1026C0009442F6DC2000F8BD080C001074070010DE
:1026D000E6020000E702000030B50500FC225200CF
:1026E0000F4B01E001330A00511E002A02D01C7872
:1026F000032CF7D100290FD0981C59782960FF29A5
:1027000000D030BD032A09DD9A7812022A60181D14
:10271000DB781A432A60F4E70020F2E70020F0E7B4
:102720000881054010B5084B00221A70074B1A604B
:10273000074C0221200002F015F9A12149002000D8
:1027400002F0E2F810BDC046EC000010E8000010F6
:1027500000800540F0B5D6464F4680B583B00400F2
:102760000F00019299460AAB20CB1B78002802D0BB
:102770000268002A00D100BE3A799246002B3BD174
:1027800000267319012552465540EDB26A005219D0
:10279000D51863685B19802189008B4243DCA168EE
:1027A000994242DB636021680023E3602161534664
:1027B0006375237DDB015046000103435BB248464D
:1027C00003430B7001281CD04E70CD1C00238B706E
:1027D000AD18019B032B19D0019B062B1DD0396826
:1027E0003200280002F01AFBAD192560012003B069
:1027F000C0BCBA46B146F0BD386802F05DFB0600C9
:10280000BFE74870CD1C731C8B70E1E751332B7010
:10281000153B33406B700235E1E74F332B703B7A49
:102820006B700235DBE70020E1E70020DFE7FFFF08
:1028300010B5054C200002F06BF88823184381B2D4
:10284000200002F061F810BD0080054010B5074C73
:10285000200002F05DF88823984381B2200002F046
:1028600053F8034B012252421A6010BD008005400C
:10287000F400001010B503070CD400060CD50B4B68
:102880001968062909D90A4802F06CF8074B00229A
:102890001A6001E0FFF746FF10BD8521490004489A
:1028A00002F032F8FDF74EFEF6E7C046E8000010F1
:1028B0000080054030B583B0040043061CD40025D9
:1028C00023070DD51C4B1B68013309D01A4B1B681D
:1028D00003229343194A94466344194A12681A60C2
:1028E00081235B001C4201D1240601D5FFF7AEFF16
:1028F000002D1DD103B030BDFFF7A8FF114B1B68A1
:10290000082294431B041B0C032B01D10025D7E79D
:1029100001A8FFF7E1FE002808D0019BC0180A4B70
:102920009C466044044B18600125C9E70025C7E7B1
:10293000FDF7FEFDDEE7C046F40000100081054013
:10294000F000001008810540007FFABF10B500219B
:10295000044801F0D9FF044A802380218901D15025
:1029600010BDC0460080054000E100E010B50349FD
:102970000C22034802F052FA10BDC046B4520000C7
:102980000081054010B5084B012252421A60FFF742
:10299000C9FEFFF7EBFF0549054801F0C1FF054BF4
:1029A000802292011A6010BDF4000010FF010000A7
:1029B0000080054000E100E010B50D4B01221A70C7
:1029C0000C4B1860002800D110BD0B4C02212000D8
:1029D00001F0C8FF200001F09FFF8421014020008A
:1029E00001F09EFFC5214900200001F08DFFEBE7BB
:1029F000EC000010E80000100080054070B50400F5
:102A00000D001E00002801D0002900D100BEAB0738
:102A100000D000BE0B2A01DD930700D000BEA260EB
:102A200000232361E360A67508490C22280002F008
:102A3000F5F9002E07D10C23ED18013363602560F2
:102A40000123237570BD0A23F6E7C046B452000087
:102A500000B583B0002902D00B68002B00D100BE66
:102A60000123019304330093043B0322FFF772FE1A
:102A700003B000BD00B583B0002902D00B68002B65
:102A800000D100BE0123019302330093013B0422D5
:102A9000FFF760FE03B000BD70B50400150000280C
:102AA00004D00368002B01D0002900D100BE636868
:102AB0005B1980229200934214DCA2689A4213DBD5
:102AC000E2685219607D002801D0FF2A0EDC6360A5
:102AD000E26020682A0002F0A1F923685B192360F4
:102AE000012000E0002070BD0020FCE70020FAE794
:102AF000002805D00368002B02D00369002B00D109
:102B000000BE03699978C2685218417D002903D03C
:102B10009A7000230375704700219970D9701112C3
:102B200019715A71F5E7FFFFF0B5C64600B5041EEE
:102B300002D00368002B00D100BE6668A37D002B85
:102B40001BD035000B3D032D07DD2369002B17D06B
:102B50002269137840210B431370206809239B1BC3
:102B6000C018A37D002B18D0FE2D16DD0236802361
:102B70009B009E4206DD002061E035000D3DE2E74E
:102B800000BEE5E70023A375811C04302A0002F093
:102B900049F923680233236003E0002B01D1FE2DA5
:102BA00014DD23685A1C2260FE221A702768BF1B9E
:102BB0002F4B1B78002B17D0012E13DDB21ED1171F
:102BC00003230B409B189B1098460FE0023E0133F5
:102BD000A375011D02302A0002F024F92368023B8C
:102BE0002360DEE700BEE9E700239846B30702D082
:102BF00003239E430436276066601D4B1B78002B21
:102C000007D11C4B1B68013303D01A4B1B68B3421E
:102C100018D332003900184802F000F9144B1B7821
:102C2000002B19D1FE2D1BDD2B062D02FF221204D5
:102C300015402B43114D1D43114B1D60012080BCDD
:102C4000B846F0BD0B4B1B6803229343FA580D4B5B
:102C50001A60FFF7EDFDDCE74046FFF7ADFEE1E768
:102C6000074B1B68084A13402D021D43E4E7C0468A
:102C7000EC000010F40000100081054003FF00008C
:102C800008810540F0000010FF00FFFFF0B5D646B8
:102C90004F464646C0B5002804D0002902D003683C
:102CA000002B00D100BE00234B608B60C3604368E3
:102CB0009C460468002B00D188E004612278072735
:102CC0001740BA46082515401026164033005F1EEF
:102CD000BB41520901273A400A739A009B1A0733F5
:102CE0006A426A419B1A9C4500DA75E06246D31A33
:102CF000627890461700002E25D0E61CA278002DA1
:102D00002DD03478A1460136444614194C44A342D0
:102D100064DB1B1B43605346022B4DD024D8002B91
:102D200030D0012B1ED1012F5CD1731C3478002DC3
:102D300000D04B44013A542C2FD0552C56D14F3C47
:102D40000C705E1C24E0A6783606E2781204164366
:102D5000227912023243A61D64792243CFE7002470
:102D6000A146D1E7002032E0042B09D105230B70E6
:102D70004E6043468B604644002D09D04E4407E028
:102D8000002024E04B4644462343134328D10B70D4
:102D9000B6180660C260012019E0513C0C705E1C40
:102DA0001C781B785BB2002B1EDB3F2323404E6058
:102DB0008B60D21AF618EBE704230B704E60434683
:102DC0008B604644002DE3D04E44E1E70020E0BC98
:102DD000BA46B146A846F0BD0020F8E70020F6E765
:102DE0000020F4E70020F2E70020F0E70020EEE703
:102DF00070B584B0041E02D00368002B00D100BE61
:102E00006668256801206368002B05DD694620009F
:102E1000FFF73CFF0028F6D16660256004B070BD66
:102E200070B582B004000E001500002801D0002902
:102E300000D100BEB30700D000BE0B2D01DDAB07F3
:102E400000D000BE01A8FFF747FC002818D0019B66
:102E5000C1180E4A914215D8AB4215DCA560266018
:102E60001A1E636004D101200023E36002B070BD2C
:102E70000100300001F0D2FF2000FFF7B9FFF3E7B7
:102E80000020F3E70020F1E70020EFE7FF82054094
:102E9000002804D0002902D00368002B00D100BE16
:102EA000C368002B03D00B600068C01A7047002372
:102EB0000B600020FAE7FFFFF8B52A4F380001F059
:102EC0002BFD0400380001F01CFD05003B6ADB050A
:102ED000DE0D2100380001F023FD234B1B78002B71
:102EE00014D1214B1B78002B14D0A3072DD5E4055A
:102EF0001FD5ED0612D51D4B1B78002B1DD11B4B8A
:102F000001221A700120FDF708FB16E03000FFF7E0
:102F1000B1FCE6E73000FFF7CDFCE6E7134B1B788A
:102F2000002B0AD0114B00221A700020FDF7F5FA91
:102F300003E00E4B1B78002B00D0F8BD0B4B012299
:102F40001A700120FDF7E9FAF7E7E405F5D5074B1C
:102F50001B78002BF1D0054B00221A700020FDF7E2
:102F6000DCFAEAE700800540EC000010E700001002
:102F7000BFF34F8F024B034ADA60BFF34F8FFEE778
:102F800000ED00E00400FA05F8B5069F002F01D01F
:102F9000002B01D0002403E000BEFBE70134E4B2C3
:102FA000BC4209DAE5005E195D5D8542F6D17568BF
:102FB000002DF3D0A84700E00048F8BD070001004D
:102FC000044A054B1360054A1360054A136000224A
:102FD0001A70704700010010D4030010FC000010AC
:102FE000F8000010014B18607047C0460401001043
:102FF000F8B5CE46474680B500AF80460C001100BC
:10300000002C34DD002934D0A31C99460733DB089B
:10301000DB006A46D31A9D466D46981C220001F0DB
:10302000FDFE43462B7001236B70344B1B68002B55
:1030300004D0290048469847002859D14B46142B04
:1030400056DC2F4B1A68033410192E4B1B681900DD
:103050001431884203D9FF211170294A13602A4B89
:103060001A68274B1B689A4226D9002108E000BE47
:10307000C8E700BEC8E7244B224A12681A60142130
:103080001F4B18680619204B1B685A18964215D317
:103090001A78FF2AEFD001329B181B4A1360194A95
:1030A000126814329342EBD300D000BE164B154A7F
:1030B00012681A601421E3E71421E1E74B4603701C
:1030C00001304A46290001F0A9FE0D4A13681B1978
:1030D00013600C4A12681432934205D300D000BE2C
:1030E000074B084A12681A60054B1B6800221A70C9
:1030F000BD46C0BCB946B046F8BDC046040100108C
:10310000F800001000010010FC00001010B582B0A3
:10311000040008220021684601F088FE0D4B009350
:103120000C2C00D000BE01F09DFD000702D50098D8
:1031300002B010BD0121084801F0E6FA0023009317
:10314000064B1B6801936A4608212000FFF750FFD9
:10315000EDE7C0460F00010000400340D40F0030EF
:1031600010B584B004000B2800D000BE00230393E8
:1031700003AA04212000FFF73BFF0822002101A839
:1031800001F054FE01F098F8029001AA08212000F5
:10319000FFF72EFF002004B010BDFFFF10B582B076
:1031A00004000A2800D000BE08236A4605490648E4
:1031B00001F0AEFA6A4608212000FFF719FF00204F
:1031C00002B010BD9C0F00000040034010B584B059
:1031D0000400092800D000BE684601F0DDFA6A4606
:1031E00010212000FFF704FF002004B010BDFFFFF6
:1031F00070B582B005000023019372B6082800D094
:1032000000BE154E300001F057FBA024E40520005D
:1032100001F0BDFA80231B02E25810490A40E25037
:10322000E2580F490A40E25002220A21300001F020
:1032300055FB02220B21300001F050FB01AA0421B2
:103240002800FFF7D5FE074B1B78002BFBD162B699
:10325000002002B070BDC04600400440FFFBFFFFED
:10326000FFF7FFFF5C00001010B582B004002529B5
:1032700009D0104B019301AA04212000FFF7B8FEEA
:10328000002002B010BD1379202B02D90A4B019304
:10329000F1E711785078000208439178090401435E
:1032A000D07800060843511D1A0001F0B7FD002335
:1032B0000193E0E70D0001000E00010010B58AB097
:1032C0000400002368460371052909D0114B0093BF
:1032D0006A4625212000FFF78BFE00200AB010BDB2
:1032E0001379202B02D90C4B0093F1E7037110786E
:1032F000517809020143907800040843D178090607
:1033000001431A006B46581D01F088FD002300930D
:10331000DEE7C0460D0001000E00010010B582B0CE
:10332000082908D0104B019301AA0421FFF760FE81
:10333000002002B010BD117853781B020B43917826
:1033400009041943D3781B060B43117954792402DD
:103350000C43917909042143D27912060A431A6079
:1033600000230193E0E7C0460D00010000B583B0E3
:1033700004290AD0002301930B4B00936A460821CD
:10338000FFF736FE002003B000BD117853781B0212
:103390000B43917809041943D3781B060B431B6830
:1033A000019300230093E9E70D00010000B583B00D
:1033B000032800D000BE0023019301AA0421FFF7D7
:1033C00017FEFA20400001F0CDF8FFF7D1FDFFFF16
:1033D00010B584B00400022800D000BE0E220021E7
:1033E000684601F023FD0D4B6A46538013239380FA
:1033F0000C3BD380063B138101F054FC0A226A4443
:1034000003041B0C1380000C50806A460E21200020
:10341000FFF7EEFD002004B010BDC0468309000098
:1034200000B583B0012800D000BE174B1B681B7885
:10343000FF2B0DD0144B1A68117800290DD1134BB6
:10344000019301AA0431FFF7D3FD002003B000BDB2
:103450000D4B0F4A12681A60ECE7507802390332BC
:10346000FFF7C6FD08490B681A7801329B180B60FC
:10347000074A126814329342E7D300D000BE024BD1
:10348000034A12681A60E0E7FC0000100B0001001C
:103490000001001070B584B0002826D000292ED07D
:1034A000012802DC0E78184821E00E78841E8D1C5D
:1034B0002A0021003000FDF76BFD002822D03F2EAE
:1034C0000AD8124B0C2200922A0021003000FFF78C
:1034D0005BFD002811D00AE00D4B072200922A0064
:1034E00021003000FFF750FDF3E700260648039067
:1034F00003AA04213000FFF77BFD04B070BD002655
:103500000148F4E70348F2E70D00010060000010F5
:103510000C0000100F000100F0B5DE4657464E4685
:103520004546E0B585B001900F00914698460E9B48
:103530009B460F9B9A46244B1D680026802400233F
:1035400000931CE001235B424A4613604346002B74
:1035500003D002AB1B79424613705B46002B00D0B0
:103560001E605346002B00D01D60019B002B20D114
:103570000133009302AB1B790533E4180136124B7B
:103580005B89A34217DD052302AA21000F4801F041
:10359000BFF8029B1B0AED1802AB1B78BB42E9D1B6
:1035A0004B46002BD2D002AB1B79002BCAD0631D37
:1035B000CAE7019B0093009805B0F0BCBB46B24639
:1035C000A946A046F0BDC0460801001000400340D7
:1035D00010B5002814D1144C0C23220013491448B0
:1035E00001F096F82368002B12D00F4B5B89803BCB
:1035F0009BB2104A934202D90B4B80225A8110BDD4
:103600009823DB0000228021094801F0B5F8E2E7A9
:10361000094801F0B3FA044B1860586000221A817F
:1036200080325A81E1E7C0460801001034050000ED
:1036300000400340B30400000040054000B585B0E1
:103640000C2301AA1049114801F062F8104B1A68C6
:10365000019B9A4204D10E4B5A68029B9A420BD0AE
:103660000B4A0C230849094801F07EF8012107485C
:1036700001F04AF805B000BD054B5A8901AB5B89E2
:103680009A42EDD1F2E7C046340500000040034005
:1036900008010010031E044A106801D0136070472F
:1036A000014B024A1A60FAE7C0000010450600000C
:1036B000F0B5D6464F464646C0B584B005008846AC
:1036C0001400002913D0294B5B89053301941B1981
:1036D000274A002700219A424F41FFB2934208DD5A
:1036E000380004B0E0BCBA46B146A846F0BD00249C
:1036F000E9E7204801F042FA06000522002102A86D
:1037000001F094FB02AB1D701C7118494A68B01A95
:103710000B89994648440502AC46029DAA46FF25FE
:1037200053461D4063461D430295B21A92B21300E0
:103730004B449BB21B1A0B814989052302AA0E48F0
:1037400001F012F8002C07D1084B5A89A418A4B232
:1037500005345C815E60C3E7044B59890531019BE8
:103760004246054801F000F8EEE7C04608010010A7
:10377000330500000040054000400340F0B5DE4640
:1037800057464E464546E0B585B080468946924646
:1037900002230121284A504601900020009014681D
:1037A0005B4200224942A0470700244B1E680023C9
:1037B0009B46002580240FE0012149425346019396
:1037C00000962B00B847070001239C46E34402AB58
:1037D0001B790533E4180135002F19D0174B5B898D
:1037E000A34215DD052302AA2100154800F090FF31
:1037F000029B1B0AF6184545E9D34D45E7D80E4B09
:103800001F6802AB18781A79002AD5D0611DD5E758
:10381000094B1C6801214942534601930023009340
:103820000B0000220020A047584605B0F0BCBB4664
:10383000B246A946A046F0BDC00000100801001025
:103840000040034010B582B0049C01940093130023
:103850000A0001000120FFF75FFE02B010BD10B5A5
:1038600082B0049C0194009313000A000100002020
:10387000FFF752FE02B010BD70B503000F2930D81B
:10388000008800282AD11C7B4D1E0122AA409442A8
:1038900029DB00250DE080221A73400080B2DC7A1B
:1038A0001A7B224202D00124204380B252081A73AC
:1038B0000135A9421ADD1A7B002AEED11E88002E9E
:1038C00013D05C88621C92B25A801C19647BDC7233
:1038D0009642E0D100225A801A80DCE700250020C1
:1038E000E7E7034802E0024800E0014870BDC04637
:1038F000FFFF000010B50121FFF7BEFF054B984206
:1039000003D0002803D0012010BD0020FCE70220D6
:10391000FAE7C046FFFF000010B504000221FFF7E0
:10392000ABFF044B984203D00002E080032010BD9F
:103930000220FCE7FFFF000010B504000821FFF79C
:103940009BFF0300074A904209D0E088184380B2E9
:10395000E0800130E0800023A380052010BD03201B
:10396000FCE7C046FFFF000010B50400FC21FFF794
:1039700083FF044B984203D00002A080052010BDB5
:103980000420FCE7FFFF000010B504000421FFF74E
:1039900073FF064B984207D0A38803439BB2A380D2
:1039A0000133A380062010BD0520FCE7FFFF0000C7
:1039B00010B5086889680B685C1C0C60C25410BDA7
:1039C00070B505000C008B681A684B689A4201D3E9
:1039D000012070BD0821FFF74FFF0A4B984201D12B
:1039E0000120F6E729002D31C2B22B89581C28810D
:1039F0009B059B0DCA5421002800FFF7D9FF00202A
:103A0000E7E7C046FFFF0000F0B5D6464F46464602
:103A1000C0B504000F004A688B681B68D11A9A422F
:103A20002AD0838898468B4200D3884626002D36BC
:103A3000E3889946002514E023894A469B1A9B0592
:103A40009B0DF35C9A461A0039002000FFF7B0FF87
:103A500023899B059B0D5246F25423890133238110
:103A60000135A845E8D8A38842469B1A9BB2A3809B
:103A7000002B07D0062000E00620E0BCBA46B14685
:103A8000A846F0BD0020F8E710B504000D308422F0
:103A9000D200002101F0CAF90023A3720022238082
:103AA00063802273E272A380E380238110BD70B52E
:103AB00004001D0000281BD000291CD0002B1DD0A5
:103AC000008820231E1A834203D100232B6001208B
:103AD00070BD964200D9160008302018053032001B
:103AE00001F09CF923889B1923802E600020EFE7CA
:103AF00001204042ECE701204042E9E7012040423A
:103B0000E6E7FFFFF0B585B0040017001E000028AF
:103B10003FD0002940D0002B41D0002333600191D9
:103B20000292039606E02000FFF7E4FEA072A37A5B
:103B3000AB4226D0A57A062D34D8A9001B4841589F
:103B40008F4601A92000FFF73BFFA072EFE720009E
:103B5000FFF7E2FEA072EAE72000FFF7EDFEA07299
:103B6000E5E72000FFF700FFA072E0E72000FFF785
:103B70000BFFA072DBE701A92000FFF745FFA07251
:103B8000D5E73368BB4202D0002005B0F0BD01206C
:103B9000FBE701204042F8E701204042F5E7012021
:103BA0004042F2E702204042EFE7C046C052000028
:103BB00000281AD0837A012B12D008D8002B04D108
:103BC0000088431E984140B270470120FCE7023B49
:103BD000DBB2032B0CD80088431E984140B2F3E7B8
:103BE0000088431E984140B2EEE701204042EBE7D7
:103BF0000120E9E78020C000704710B5FFF7FAFF09
:103C000010BD10207047C37A0120184070478368A8
:103C10001B684068834280414042704770B5050090
:103C20000C00837B802B0DD00800FFF7F0FF0028ED
:103C30000AD02168A2681368581C10606A7BCA54B5
:103C4000092002E0092000E0082070BDF0B5D6464A
:103C5000474680B583B0019194461A000F30634601
:103C6000C31861464C1E24B21A498846002708E052
:103C7000AF4204D2A1B2884695421BD02F00013C2E
:103C800024B2694604254D5F651B14D40619F15D05
:103C9000DD5DA942F3D131781D78A942EFD101252C
:103CA0009542E5D2715D8A46595D8A45E0D101357C
:103CB000ADB2F5E72F00012F0AD90A9B1F8063469A
:103CC0004246981A80B203B0C0BCBA46B046F0BDB6
:103CD0000048F8E7FFFF0000F0B5C64600B586B023
:103CE0000400FFF787FF03902000FFF78AFF05001D
:103CF000804666882000FFF786FF3300278800286B
:103D000000D001257D1BAB4226DC2000FFF775FFAC
:103D1000321892B2039BD11A89B2BB1B434501DA18
:103D20009BB298460E2302A8844663440020188064
:103D3000009343462000FFF789FF0E4B984211D0B5
:103D4000E0800E2302AA944663441B88A3800320CC
:103D500006B080BCB846F0BD002801D00820F7E7C7
:103D60000720F5E76388013363800023A3800320E5
:103D7000EEE7C046FFFF0000F0B5082901D0013989
:103D80000AE0847B802CFAD1186899680B685C1C67
:103D90000C60C254F0BD01390029FBDB01248C40CA
:103DA000144203D0447B857B2C434473847B64089A
:103DB0008473F0D1803484731E689D682C68671CFE
:103DC0002F60457B355500244473E4E710B50B00A4
:103DD0000121FFF7D1FF10BD70B504000D000800F0
:103DE000FFF715FF002815D0A388002B06D101226C
:103DF00029002000FFF7EAFF04200CE00022290040
:103E00002000FFF7E3FFE388013B23810A23A3722D
:103E1000052000E0032070BD70B504000B00857A1A
:103E2000082D0DD90289083D2A41D2B20825290062
:103E30002000FFF7A1FFA37A5B1BA372280070BDCF
:103E4000027A002DFAD0F2E770B505000C000800E8
:103E5000FFF7DDFE002801D1052070BD21002800FC
:103E6000FFF7DAFF002806D1AB88013B2B81042342
:103E7000AB720630F1E70520EFE770B505000C00E6
:103E80000800FFF7C4FE002801D1062070BD210004
:103E90002800FFF7C1FF002807D16B88AA889B186C
:103EA0006B800023AB800230F0E70620EEE770B5B0
:103EB00004000E004588013DADB2FFF79EFE421999
:103EC00092B2A218D27B330008212000FFF754FFE2
:103ED00070BD70B505000C000800FFF798FE0028C3
:103EE00001D1042070BD21002800FFF7E0FF02206F
:103EF000F8E770B50400FFF77DFE01006588431BFD
:103F00009BB2C21892B220000F30C91A0831611852
:103F1000073100F087FF0023638023885B1B238029
:103F200070BD10B5FFF7E5FF002010BD10B504000F
:103F30000F3080221201002100F078FF00220023C0
:103F4000228023736280E3728021A1736373A28055
:103F50002281A37210BDF0B5D6464F464646C0B585
:103F60000400894617009A46002836D0002937D029
:103F70005346002B37D0FFF746FE002836D1237B6F
:103F8000002B36D12000FFF738FE26888519ADB208
:103F90002000FFF72FFE801B83B298461E00BB4215
:103FA00000D93E00B7B20835601907303604360C28
:103FB0003200494600F032FF53461E602388DB1969
:103FC0002380B84505D00020E0BCBA46B146A846DB
:103FD000F0BD012323730020F6E701204042F3E700
:103FE00001204042F0E701204042EDE7022040423C
:103FF000EAE702204042E7E7F0B585B00400170089
:104000001E00002848D0002949D0002B4AD0002AA1
:104010004BD00023336001910292039607E0002009
:1040200005B0F0BD02232373237BAB422FD0257B49
:10403000092D3DD8A900204B5B589F462000FFF773
:104040004BFE2073F0E701A92000FFF7C5FE2073A7
:10405000EAE701A92000FFF73CFF2073E4E701A98C
:104060002000FFF7F1FE2073DEE701A92000FFF733
:1040700004FF2073D8E72000FFF753FF2073D3E736
:1040800001A92000FFF7CAFD20730020C8E73368AC
:10409000BB42CCD10120C3E701204042C0E7012050
:1040A0004042BDE701204042BAE702204042B7E764
:1040B00002204042B4E7C046DC52000000280ED087
:1040C000C37A01221343C372037B002B01D1013356
:1040D0000373007B0938431E984140B270470120AA
:1040E0004042FBE7F0B5CE46474680B5264CA54496
:1040F0008146884615001C0002A8FFF717FF00261E
:1041000001270AE002A8FFF7D9FF013843425841CE
:10411000074018E0434258410740002F24D043464F
:10412000002B21DD002300936B464246494602A83E
:10413000FFF711FF434258410740009B9944424614
:10414000D31A9846DED00023019301AB2200290048
:1041500002A8FFF751FF019BED18E41AF618012899
:10416000D8D1002BEFDCD5E702A8FFF7A7FF002886
:1041700008D1002F06D03000044B9D44C0BCB94686
:10418000B046F0BD0026F6E7E4F7FFFF1C0800008C
:10419000F0B5CE46474680B5284CA54481468846B2
:1041A00015001C0002A8FFF76FFC002601270DE098
:1041B00002A8FFF7FDFC01384342584107401BE0CD
:1041C000C0B20023012282425B411F40002F24D055
:1041D0004346002B21DD002300936B4642464946AF
:1041E00002A8FFF764FC434258410740009B9944F2
:1041F0004246D31A9846DBD00023019301AB22003C
:10420000290002A8FFF77EFC019BED18E41AF618BE
:104210000128D5D1002BEFDCD2E702A8FFF7C8FCBC
:10422000002808D1002F06D03000054B9D44C0BCAB
:10423000B946B046F0BD0026F6E7C046C4FBFFFF16
:104240003C04000010B5040003291ADD00BE01394A
:104250004A07120C40231A434905FF231B04194047
:104260000A4308231A4321000C4800F037FBA02022
:10427000C0058021090243580122A2401343435044
:1042800010BD0029E3DCA020C005802109024358AD
:104290000122A24093434350F2E7C046004004404D
:1042A00010B5040001780A20FFF7CCFF61780B20DD
:1042B000FFF7C8FF10BDFFFFF0B5C64600B582B0DE
:1042C000314C0A21200000F0FDFA07000B212000EC
:1042D00000F0F8FA060000F01FFC8046002000F015
:1042E0000FFC0024092C3ADC284B1B5D03210A003B
:1042F0001A40684602709A080A4042701A09114032
:1043000081709B09C370FFF7CBFF012000F0A0FB79
:104310000A2000F027F900F0E3FB0500002000F080
:1043200097FB0023019301A8FFF7BAFFAD0601D464
:104330000134D7E76B461A78154B9200D4586A4679
:1043400052789200D258A4186A4692789200D258B5
:10435000A4186A46D2789200D358E41801E00124E8
:104360006442094D3A000A21280000F0B7FA3200F1
:104370000B21280000F0B2FA404600F0C1FB2000FB
:1043800002B080BCB846F0BD0040044014530000A9
:104390000453000010B52F4800F08EFAA020C0058D
:1043A00000F0F5F9102200212A4800F097FA0822BF
:1043B0000121284800F092FA08220221254800F045
:1043C0008DFA08220321234800F088FA08220421EC
:1043D000204800F083FA082205211E4800F07EFAEA
:1043E000082206211B4800F079FA08220721194803
:1043F00000F074FA08221748110000F06FFA10223A
:104400000921144800F06AFA134B144A1B689342BE
:1044100002D0134A934215D108220A210D4800F018
:104420005DFA08220B210B4800F058FA0D4800F005
:1044300083FB0D4800F02EF90C4800F081FA00F0E3
:1044400027F810BD0A220348110000F047FA0A229B
:10445000E8E7C04600400440205300002143658740
:10446000658721430040054000400340008005402F
:10447000FF23C9011940C00704D5A0220233D20589
:10448000FF33D150704710B50021FFF7F1FF10BD89
:1044900010B500220721074800F020FAA021802251
:1044A0008023C9051202885803438B500120FFF76F
:1044B000EAFF10BD0040044010B5802800DD8020D8
:1044C000002340100CD10E24064A5B005062116A92
:1044D0002340A1430B43136201235062536210BD7A
:1044E0000133EEE7008004400120034B1B6A1B07E9
:1044F0005B0F98407047C0460080044010B5010033
:10450000024800F007FDFFF7D7FF10BD00127A0048
:1045100010B5FFF7E9FF0100014800F0FBFC10BDFA
:1045200000127A0070B50500FFF7F2FFFA240100CF
:10453000084800F0EFFCA4006C430100200000F0EC
:10454000ECFC02B4E138FF38011C0339FDDC02BC8D
:1045500070BDC04600CA9A3B10B5002801D0FFF7D5
:10456000E1FF10BD70B5FA2504002D01AC4205DC59
:10457000FA2080006043FFF7EFFF70BD0248FFF7AD
:10458000D1FF024BE418F1E700093D0060F0FFFFA6
:10459000034B0449DA6F08401043D8677047C046A0
:1045A00004800440FCBF1D00034A0449D36F084047
:1045B0008343D3677047C04604800440FCBF1D009E
:1045C0000F4910B50B68002B19DBC0225B10920558
:1045D0005B009B1800220B4CA05A98520232402AD2
:1045E000FAD1094B09483C3A1A50FE24062024010E
:1045F000186018591042FCD001235B420B6010BDBB
:10460000680C0010280C001000400340E80F000068
:10461000F7B506000F0015000193002D00DCF7BD73
:104620001A4C2368002B0DDA3F23F1171940C023E1
:104630008919891189019B05216040221448C918F4
:1046400000F0ECFB20680024301A3F280DD84034DD
:10465000241AAC4200DD2C000D4BC018019B002B2E
:104660000ED02200397800F0E1FB019B3619002BB7
:1046700000D13F192D1B002DD1DDFFF7A1FFCCE7A5
:104680002200390000F0CAFBEFE7C046680C0010BA
:10469000280C0010C02010B54003FFF779FF04205C
:1046A00000F0B4FA082000F0C5FA6420FFF754FFC8
:1046B000042000F0B5FAFFF72BFF084B0849C0189B
:1046C00000F028FC0138002800DC01200122054B05
:1046D00052425861044B1A6010BDC046D7B805005D
:1046E000D8B8050000400340680C001010B5FFF773
:1046F00067FF042000F08AFA082000F0A7FAC02023
:104700004003FFF751FF10BD10B5FFF759FF10BD73
:1047100070B51D00C02314009B050E002A00C918A7
:10472000200000F07BFB0D4B1868002814DB0C49BF
:10473000B04206DA301A0B4B091899420CD220000D
:1047400001E0801B20186219824205D9121A402A02
:1047500000DD402200F062FB70BDC046680C001016
:10476000280C0010680C001010B5080011001A0089
:104770000023FFF74DFF10BD13B514001A006B4660
:104780000800D91D01230C70FFF742FF13BD10B5BF
:104790004020FFF7FDFE10BD30B587B0102200218C
:1047A000040002A800F042FBFF230193C53B0093E5
:1047B00000F058FA0025000703D40B48FFF796FFD6
:1047C00001356846094B01A99847002D02D00648DB
:1047D000FFF760FF029B2360039B6360049BA36061
:1047E000059BE36007B030BD00400340F11FFF1F91
:1047F0001FB5FF230093CD3B01930290039101A8C5
:104800006946034B98470098C0B205B000BDC0464A
:10481000F11FFF1F7FB5FF230193CB3B0293039052
:10482000049102A8034B059201A998470198C0B2D0
:1048300007B000BDF11FFF1F7FB5FF230193C43BED
:1048400002930390049102A8034B059201A9984793
:104850000198C0B207B000BDF11FFF1F10B5FF24C3
:1048600086B00094CC3C02910390059301A8694660
:10487000034B0194049298470098C0B206B010BD53
:10488000F11FFF1F10B51C00002386B00193FF33FA
:104890000093C73B029303900491064B694605922F
:1048A00002A89847002C01D0019B23600098C0B259
:1048B00006B010BDF11FFF1F802010B5C002FFF72A
:1048C00067FE10BD890008580002000A70470430D6
:1048D000C36F090109098B43C367704770B50600B0
:1048E0000D0014000B2907D9012A05D10B00110076
:1048F0000C3B9940FFF7EBFF2402AD00240AAC51BA
:1049000070BD4068C0B27047C905C90D816170476C
:104910008069C005C00D7047C069C005C00D7047F3
:1049200030B50825054AC36914682B40C905C90D6F
:10493000234313604162416230BDC0461401001040
:10494000030070B5FE22002504000448FC335A60C1
:1049500003498561FFF7E4FF256070BD00800540D5
:10496000FF010000043101617047FFFFF8B50C4BF7
:1049700004000F001600984202D190231B011F4330
:10498000084D22002900084800F034FA0300BB4318
:10499000290033432200044800F01DFAF8BDC04648
:1049A00000800340180100102080034010B514005F
:1049B000902208431201024305490648FFF7D6FF3B
:1049C0000421054B1A698A4322431A6110BDC0466F
:1049D000FF3FF1FF0080034000ED00E00121414076
:1049E00010B5042202204903FFF7E0FF30BF002288
:1049F00011001000FFF7DAFF10BDFFFF10B50B4CE0
:104A00000B4A21000B4800F0F5F9902380221B018E
:104A100003401201FF20934206D12100064A0548B7
:104A200000F0E8F9C006800F10BDC0461801001064
:104A3000008003402080034018800340802110B58F
:104A4000C9010A000148FFF791FF10BD0080034033
:104A5000802110B5C20309020148FFF787FF10BD8E
:104A600000800340802110B5C20409030148FFF70C
:104A70007DFF10BD00800340F8B50700160000253B
:104A8000074B8900CC18B54200DBF8BDAB00220013
:104A90000449FB58044800F09EF901350434F2E75C
:104AA000048003401801001020800340F8B507007F
:104AB00016000025074B8900CC18B54200DBF8BD75
:104AC00022000549054800F095F9AB00F850013582
:104AD0000434F2E7048003401801001020800340F2
:104AE00010B50449044A054800F084F9A023184091
:104AF00010BDC046180100101880034020800340FC
:104B00000122802110B54240520302488901FFF77B
:104B10002DFF10BD0080034010B50449044A05482C
:104B200000F068F9430B0120984310BD18010010F4
:104B30000080034020800340802010B5C000FFF7B4
:104B400027FD10BD072310B5034C02000B4003489E
:104B5000210000F040F910BD1C0100102440054068
:104B6000020010B50B02034803491B0A0C3200F087
:104B700032F910BD244005401C010010020010B5A0
:104B800002490348303200F035F910BD1C01001015
:104B900024400540020010B5034C0B0021000348DF
:104BA000303200F018F910BD1C01001024400540FF
:104BB0000200012310B5044C0B40044821001432BC
:104BC00000F009F910BDC0461C010010244005404A
:104BD000020010B503490448183200F00BF9012314
:104BE000184010BD1C0100102440054002000123A4
:104BF00010B5044C0B4004482100203200F0EBF8C3
:104C000010BDC0461C010010244005400F21034A7E
:104C100008405368834353607047C0460080044097
:104C20000F21034B08405A68104358607047C04634
:104C3000008004408E2210B53F24034992008B5817
:104C4000204083438B5010BD008004408E2310B55C
:104C50003F24034A9B00D15820400843D05010BD48
:104C6000008004408E23034A9B00D058FA3BFF3B50
:104C700018407047008004408123034AC004C00CE0
:104C80009B00D0507047C046008004408223044AF5
:104C9000C0049B00C00CD050D1588143D150704704
:104CA00000800440FD23024A9B00D0587047C04654
:104CB0000080044010B50800FFF76AFC10BD002218
:104CC0004368426001328260013242608268002A99
:104CD000FCD143607047FFFF10B504000220FFF7CE
:104CE000A9FF80204001FFF753FC0023236063628B
:104CF000073323630833E36080231B02E361014B26
:104D0000236210BDFF7F0000002310B543628020A6
:104D10004001FFF749FC0220FFF798FF10BD0E226B
:104D2000C3684900114093431943C1607047C0688C
:104D30000007400F70470123026813430360704768
:104D40008023020010B5802400685B000002184038
:104D5000936AA4005B0223400343E23C9068FF3C5B
:104D600020401843002903D092681206520F0A709F
:104D700080B210BD406800B27047FFFF0A2358435D
:104D8000074B10B5C0184843002806DD4130FF30FE
:104D9000A021890000F0BEF810BD4138FF38F7E7C8
:104DA0002055FDFF0723194041627047BFF34F8F25
:104DB000024B034ADA60BFF34F8FFEE700ED00E0DD
:104DC0000400FA05A42301220168114202D1013B2B
:104DD000002BF9D17047F8B50D0016001F00040034
:104DE000FFF7F0FF2B68200001332B603760FFF7DF
:104DF000E9FFF8BDF8B506000C0015000B6801339B
:104E00000B603000FFF7DEFF300027682B68FFF7EC
:104E1000D9FF28682368BB42F3D1F8BD10B500F074
:104E2000B6F810BD10B500F0C8F810BD10B500F010
:104E3000D2F810BD10B5FBF7C9FB10BD03000B4342
:104E400030B59B0708D000240139A2420BD10020C5
:104E50000FE004300431043A032AF4D904680B68E3
:104E60009C42F6D0EFE7035D01340D5DAB42ECD020
:104E7000581B30BD03000B4330B59B0715D00023F2
:104E8000CA5CC2540133002AFAD130BD04C30431D4
:104E90000A68074C141994432C42F7D0D1B2197008
:104EA00001330029F1D01212F8E70300014DEFE7BA
:104EB000FFFEFEFE808080800300032110B51A00F3
:104EC0000B4219D1114C13681149591899432142C9
:104ED00019D0DCB2511C002C0BD0FF242402911CF1
:104EE000234206D0FF2109040B40591E8B41D318E1
:104EF000D91C0130081A05E001335C1E2478002C0F
:104F0000DDD1101A10BD0432DDE7C04680808080FC
:104F1000FFFEFEFE03000B4321D4002931D0012205
:104F2000D207030901E0090112099942FBD943089C
:104F300001E0490052089942FBD900E04908401AB3
:104F400007D35241FAD3014610467047490840182A
:104F5000F7D29218FAD34018014610467047CB0F8B
:104F600000D04942021000D54042534008B5FFF737
:104F7000D4FF0CBC521000D34042002A00D5494255
:104F80001847F446002000F001F860477047844657
:104F9000830708D18B0706D1131F04D304C904C0AB
:104FA000043BFBD21A1D524205D0891A801A8B5C31
:104FB00083540132FBD160467047884207D98B1871
:104FC000834204D9013A8B5C8354FBD1704700B50E
:104FD000FFF7DDFF00BD8446043A09D3830707D1FC
:104FE00009060B0A19430B0C1943043A02C0FCD200
:104FF000043203D001700130013AFBD160467047A2
:1050000000009FFF7F0007000000600000000FFF0E
:105010006E2F700043757272656E742074656D70CA
:10502000657261747572653A205F5F5F2E5F430A37
:105030004D696E696D756D3A205F5F5F2E5F430A43
:105040004D6178696D756D3A205F5F5F2E5F43003B
:1050500043757272656E742074656D7065726174EB
:105060007572653A205F5F5F2E5F4300456D707417
:10507000792E204E6F742079657420636F6E666997
:1050800067757265642E000000000000456D707445
:10509000792E20436F6E666967757265642062754C
:1050A00074206E6F742079657420737461727465F6
:1050B000642E000052756E6E696E672E204E6F2052
:1050C00073616D706C652074616B656E20796574B9
:1050D0002E00000052756E6E696E6720666F72203A
:1050E0005F5F5F205F5F5F5F5F5F5F2E205F5F5F7F
:1050F0005F5F2073616D706C6573206C6F676765AF
:10510000642E000053746F707065642E205F5F5FC3
:105110005F5F2073616D706C6573206C6F6767658E
:10512000642E0000414C4552543A206669727374F3
:10513000206869676820657863757273696F6E208F
:105140006166746572205F5F5F205F5F5F5F5F5FB6
:105150002E000000414C4552543A20666972737427
:10516000206C6F7720657863757273696F6E20614C
:1051700066746572205F5F5F205F5F5F5F5F5F2EB9
:1051800000000000414C4552543A2062617474653D
:10519000727920697320656D7074792E00000000AB
:1051A000414C4552543A206E6F2073706163652004
:1051B0006C65667420666F722073746F72696E67B7
:1051C0002073616D706C65732E000000414C455278
:1051D000543A2073746F70706564206166746572F0
:1051E0002074686520636F6E6669677572656420F8
:1051F00074696D652E000000414C4552543A206C94
:105200006173742049324320616363657373206660
:1052100061696C65642E0000414C4552543A206C23
:105220006173742053504920616363657373206612
:1052300061696C65642E00FF6461797300FFFFFF94
:10524000686F75727300FFFF6D696E75746573002A
:105250007365636F6E6473006C5000008C500000C7
:10526000B4500000D450000004510000245100004C
:105270005451000084510000A0510000CC510000A6
:10528000F85100001852000000000000000000006B
:10529000000000000000000000000000000000000E
:1052A00000000000000000000000000000000000FE
:1052B000000000000103E80E46FD010003000000AD
:1052C000263B0000423B00004E3B0000583B0000E4
:1052D000623B00006C3B0000763B00001E4000007B
:1052E000244000003C4000004640000052400000C6
:1052F0005E4000006A4000007640000080400000F0
:105300001E40000000000000C10200000F0300006A
:1053100044030000000102030506070A0B0FFFFF0C
:04532000FFFFFFFF8D
:1053240001FFFFFFFA90D166656E00FF46000000A2
:105334008D0D000048000000FD0C00004900000035
:105344003D0C000050000000010C00005A00000059
:10535400C50B00005B000000750900005E00000042
:1053640009090000742F64656D6F2E6E68732E6ECC
:10537400787000000000FFFF5303000001FFFFFFEF
:10538400010000002134000002000000D1330000BD
:1053940003000000AD330000040000006D33000082
:1053A400050000001D33000006000000BD320000AF
:1053B400070000006932000008000000F13100001D
:1053C40009000000CD3100000A0000009D310000FA
:1053D4000B000000613100000C0000000D310000E2
:0453E400450600007A
:0400000300000621D2
:00000001FF
