:10000000F01F0010290100005901000059010000F3
:100010005901000059010000590100005901000078
:100020005901000059010000590100005901000068
:100030005901000059010000590100005901000058
:100040005901000059010000590100005901000048
:100050005901000059010000590100005901000038
:100060005901000059010000590100005901000028
:100070005901000059010000590100005901000018
:100080005901000059010000590100005901000008
:1000900059010000590100005901000059010000F8
:1000A00059010000590100005901000059010000E8
:1000B00059010000590100005901000059010000D8
:1000C0007801000000000010000000000000001097
:1000D00000000000F0B5114B11498B4204D3002001
:1000E00010498B420ED3F0BD00221D685F689868EE
:1000F000BE18AC18904201D80C33EEE724680432E5
:100100003460F5E700221E685C68B518944201D897
:100110000833E6E728600432F7E7C046C000000075
:10012000CC000000D400000010B5FFF7D3FF00F0B2
:100130001FF8BFF34F8F034B034ADA60BFF34F8FB3
:10014000FEE7C04600ED00E00400FA050122014B85
:100150001A60FEE700800540BFF34F8F024B034A51
:10016000DA60BFF34F8FFEE700ED00E00400FA0510
:0801700010B5FFF7EBFF10BD15
:0400000300000129CF
:00000001FF
