:10000000F01F0010E1020000D9140000D914000014
:10001000D9140000D9140000D9140000D91400002C
:10002000D9140000D9140000D9140000D91400001C
:10003000D9140000D9140000D9140000D91400000C
:100040001D020000D9140000D9140000D9140000CA
:10005000D9140000D9140000D9140000D9140000EC
:10006000D9140000D9140000D9140000D9140000DC
:10007000D9140000890A000011040000D9140000FE
:10008000ED040000D9140000D9140000D9140000B8
:10009000D91400006D050000D9140000D914000027
:1000A000D9140000D9140000D9140000D91400009C
:1000B000D9140000D9140000D9140000D91400008C
:1000C000CC16000000000010040000000400001026
:1000D00044000000F0B5114B11498B4204D30020BD
:1000E00010498B420ED3F0BD00221D685F689868EE
:1000F000BE18AC18904201D80C33EEE724680432E5
:100100003460F5E700221E685C68B518944201D897
:100110000833E6E728600432F7E7C046C000000075
:10012000CC000000D400000010B5FFF7D3FF01F0B1
:1001300017FABFF34F8F034B034ADA60BFF34F8FB9
:10014000FEE7C04600ED00E00400FA05F0B589B016
:1001500000F03EF90021052000F042F900F048F9D6
:10016000041E29D13022012503AB1A700822002178
:1001700006A801F0F1F9264B802205930123254CB6
:1001800005AE200024493371920000F08DFB310050
:10019000200000F0A5FB002809D02A00200003A9B8
:1001A00000F0A8FB002802D0200000F0C3FB2000D4
:1001B00000F0D4FB09B0F0BD0026B04204DA2D22D5
:1001C00003AB1A704442013600250A270B2302AA0A
:1001D0009B180135EB1820003900019301F0F2F96A
:1001E000019B303120001970390001F0EBF9041E39
:1001F00001D0062DEAD12A0003AB9B1905A9013ACB
:10020000505C18700133002AF9D17519AEE7C04669
:10021000B0160000480200104800001010B5012080
:1002200001F0ACF800F070F8002806D0042001219D
:1002300000F076F8012000F011F910BD10B500288B
:1002400003D0142000F062F910BD0120FAE7FFFF8F
:10025000012210B5024B14201A7000F057F910BD9E
:1002600005000010012210B5024B14201A7000F096
:100270004DF910BD0400001010B50021022000F05F
:10028000AFF8102400F0D6FA00F0DAF801F0FEF82A
:10029000FFF75CFF012000F0E1F8142000F036F9D0
:1002A00000F006F9002804D0FFF750FF012000F00D
:1002B000D5F80A4800F053FF204201D001F0E6F8DB
:1002C00000F04CF90028EBD000F09AFA002000F082
:1002D000B3FF00F05BFD00F0ADFAD7E7008005400A
:1002E00010B5084800F006FE00F050FDA022D2052F
:1002F0005368002BFCD0192001F0D2F8FFF7EAFE7A
:10030000FFF7BAFF80841E00044B98691E23184033
:10031000023843425841C0B27047C04660020010E4
:10032000F7B50600154F0400BB699E430E231E421D
:1003300002D00122124B1A70002900D0340000258F
:10034000002C06D1BB6930003343BB6100F00CF9CF
:10035000F7BD01231C4209D06B1F012B0AD80023D3
:100360000422019301A9280000F0A6FC0135EDB29A
:100370006408E5E700221100F5E7C04660020010BE
:100380008002001007B50E481100824200DD010016
:100390000C48814200DA01000B480160002B0DD0AF
:1003A000013253425A41094B52421A406B46009265
:1003B00099806A460621502000F002FC07BDC04625
:1003C0005203000070FEFFFF000000100E0001004D
:1003D000014B024A1A6070470000001053030000EE
:1003E00010B50B000022022100F0FAF810BDFFFF4B
:1003F00010B5802464000021034801F011F8204268
:10040000F9D1024B186810BD000006400000001032
:1004100070B5094800F05EFF0125040001000648A0
:1004200000F066FF2C4205D02900034800F028FFA9
:10043000024B1D7070BDC046004005400700001013
:1004400010B50121034800F035FF8022024BD20194
:100450001A6010BD0040054000E100E010B5002129
:100460000400104800F0FEFE00220F4B03210D484F
:100470001A7000F0F7FE211E00DC0121094800F08F
:10048000FFFE8020400100F06FFF8020400100F05F
:1004900075FF8022054BD201012102481A6000F04D
:1004A00009FF10BD004005400700001000E100E01A
:1004B000014B1878C0B2704707000010012280215C
:1004C000074810B54368490293434360054BD96719
:1004D000026000F064FF0022034B1A7010BDC0469A
:1004E00000C0004004E100E00600001010B5012447
:1004F000044B1A68224204D01C60FFF7DFFF024B56
:100500001C7010BD00C0004006000010802110B516
:10051000490004000E4800F03DFFFFF7CFFF00F058
:10052000F3FC002C11DD6043400B094B094ADA60F3
:10053000012298618020596940021143596106499E
:10054000086059680A435A6010BDC00C0130ECE7DE
:1005500000C00040FF1F000000E100E0014B1878E0
:10056000C0B27047060000107047FFFF70B5144816
:1005700000F070FF134B14495843144B144EC0182D
:1005800001F020F835780400EDB2022D03D10A21E4
:1005900000F064FF040080220E4B9203DA670848E3
:1005A00000F022FF064800F032FF31780A4B2200AB
:1005B0001B68C9B2FFF7E6FE0022084B1A7070BD37
:1005C000000006403E0800004D08000050000400F6
:1005D0000C00001004E100E0080000100D00001005
:1005E000F7B5264E019333780C00150001270090D3
:1005F000002B40D12248377000F0DEFE00992048E1
:1006000000F0FDFE002D0CD11E4B019A1C701E4BFC
:1006100039001B481A6000F035FF80221B4B920303
:100620001A600027164800F0F6FEBD4221D0802552
:10063000AD000021124800F0F3FE2842F9D0104826
:1006400000F008FF124B13495843134BC01800F039
:10065000B9FF0700022C03D10A2100F0FFFE0700BA
:1006600080220E4B9203DA67054800F0BDFE00239E
:1006700033703800FEBD7F42FBE7C0460D0000101E
:10068000000006400C0000100800001000E100E02F
:100690003E0800004D0800005000040004E100E0A6
:1006A0000200104B1048197803290AD10F498B42D8
:1006B0000CD00D49C91A58781060FF2808D0981C32
:1006C00005E001338342EED10021F4E700207047BA
:1006D0000329FBDD9978181D09021160DB780B43B3
:1006E0001360F4E70881054000830540FF82054060
:1006F0000022084B10B5084C1A70084B200002214C
:100700001A6000F05DFDA1212000490000F02AFDE3
:1007100010BDC046140000100080054010000010FD
:10072000F0B585B00392002202930AAB20CB0F797B
:100730001B7804000E000192934203D0086800F079
:1007400013FF0190019B03225D1901237B405B4253
:10075000134062685D19AD18802200209200954216
:100760002EDCA268AA422BDB217D6775C9013F01FF
:100770000F43029902000F4369466560E0602568F7
:10078000029809792561FFB201281BD14A1CD2B217
:10079000029803332F706870AA70ED18039B032B27
:1007A00012D151332B70153B194069700235280066
:1007B000019A316800F0C8FE0120019BED18256008
:1007C00005B0F0BD0291E3E7039B062BEFD14F3359
:1007D0002B70B3686B70E9E710B5074C200000F090
:1007E000C5FC8823984381B2200000F0BBFC0122A5
:1007F000024B52421A6010BD008005401C000010E0
:1008000010B50021034800F0ADFC8022024B92019C
:10081000DA6710BD0080054004E100E010B50C224D
:100820000249034800F090FE10BDC046BC1600000F
:10083000008105400122084B10B552421A60FFF7B3
:1008400057FFFFF7EBFF0549054800F097FC8022B2
:10085000044B92011A6010BD1C000010FF01000043
:100860000080054000E100E001220C4B10B51A7039
:100870000B4B1860002810D002210A4800F0A0FCA1
:10088000084800F077FC84210140064800F076FC1F
:10089000C5210448490000F065FC10BD140000109B
:1008A000100000100080054070B50D001E000023F0
:1008B00082600361C360867504000C22280007492A
:1008C00000F042FE0A23002E00D10233ED185A1C1C
:1008D000012325606260237570BDC046BC16000010
:1008E000012307B50193023300930422013BFFF774
:1008F00017FF0EBD436870B5D318150080220400A1
:1009000092000020934214DCA2689A4211DBE26854
:10091000607DAA18002802D00020FF2A09DC63604D
:10092000E26020682A0000F00FFE012023685B19B6
:10093000236070BD10B50369C1689A785218417D73
:10094000D4B2002903D09C700023037510BD12128D
:100950009970D9701A715C71F6E7FFFFF7B54468BA
:10096000837D260005000D3E002B00D00236032EAD
:1009700004DD40232A6911780B43137009222B6888
:10098000121B9B18AA7D002A5CD0FE2E0FDD802151
:1009900000220234100089008C4252DCAA75991C96
:1009A000181D320000F0D4FD2B6802332B602B6839
:1009B0005A1C2A60FE221A7000222F6801923B1BEB
:1009C000294F00933B78934206D00321A21ED317F0
:1009D0000B409B189B10019303231C4201D09C43A6
:1009E0000434009B18C53B78002B16D11F4B1A68A6
:1009F000013212D01A68A2420FD203221B681C488F
:100A00009343009AD2581B4B1A6000F0AFFB882129
:100A1000014389B2164800F0A5FB22000099164850
:100A200000F092FD3B78002B02D00198FFF71CFFED
:100A3000124AFE2E13DDB3B2114E1BBA01201E4323
:100A40001660FEBDFE2EB2DC0122191DAA75981C8F
:100A5000320000F07DFD2B68023C023BA6E71368E4
:100A6000084936020B40E9E7140000101C00001092
:100A700000800540180000100081054008810540F5
:100A800003FF0000FF00FFFFF0B5444E87B03000C9
:100A900000F070FB0500300000F061FB29000290BF
:100AA0003000346A00F06AFB3D4BA4B201931B781E
:100AB000002B07D0082322001A4003921C4235D095
:100AC000FFF716FE019B1B78DEB2002B1AD16306DE
:100AD00040D4E405E40D23070AD5324B1A680132ED
:100AE00006D0314A1B681168032293432F4A99505C
:100AF000C1235B001C4201D0FFF76EFE002E01D027
:100B0000FFF7A6FB80235B002B40AD073FD52849AC
:100B10000A78002B02D0029BDB0632D5002A03D1D3
:100B200001200870FFF78AFB07B0F0BD2306C9D586
:100B3000204F3968062905D9300000F041FB039B9E
:100B40003B60BFE785213000490000F00BFBFFF759
:100B500089FBB7E7FFF740FEF823FF331C40164B35
:100B60001B689BB2032BB6D005A8FFF799FD0028A0
:100B7000B1D0059B114A01269B18C018094B18607B
:100B8000A9E7002AD0D00020094B1870CAE7002B33
:100B9000CAD0074B1B78002BC6D0F4E70080054075
:100BA000140000101C000010180000100081054007
:100BB0000E0000101000001008810540007FFABFF1
:100BC000F0B50D002B0087B011006A460400093310
:100BD000DB08DB00D31A00AF2A009D46981C3B615E
:100BE00000F0B2FC3B693A691C70012353702E4B34
:100BF000AE1C1B68002B40D1142E43DCEA1C7A612A
:100C00002A4A2B4C116823680A001432FA607A6968
:100C1000F8689A18904202D2FF2221601A70226866
:100C2000244B94461B681422634500D900220020FF
:100C3000B860786960447860981805007868A842C0
:100C400023D2BA68002A01D01A4A136063463200E0
:100C500039691E70581C00F077FC23687A699B186C
:100C6000124A23601268110014318B4200D32260B3
:100C700000220F4B1B681A7004E069463000984749
:100C80000028B9D0BD4607B0F0BD1878FF2807D0BE
:100C900001301B18F868984202D90120B860CBE7F0
:100CA0000B001422F9E7C0462C00001028000010A9
:100CB0002000001024000010F0B50D0087B0019155
:100CC000691E8D4100272D4C0390E37A6D4215403B
:100CD000A27A1B0213433A00294905335B19994252
:100CE0007A41D2B202928B4245DC264800F0D6FA15
:100CF000039A04AB1A701D716279237912021A43A8
:100D0000A379217A1B041343E279060012061A43E1
:100D1000637A1B020B439B1A049A1B18D2B21B0264
:100D200013430493E17AA37A090219431648052371
:100D300004AA2772677200F0E5F9BD4209D0E17A92
:100D4000A37A09021943019A2B000F48053100F0DC
:100D5000D9F90A4BDA7A997A12020A430532AD18A8
:100D6000AAB2120ADA72320A1E715A71320C360EA7
:100D70009D729A71DE71029807B0F0BD30000010CC
:100D800033050000004005400040034010B52F48E7
:100D900000F0C5F9A020C00500F0BCF91022002128
:100DA0002A4800F0C9F908220121284800F0C4F9B6
:100DB00008220221254800F0BFF908220321234818
:100DC00000F0BAF908220421204800F0B5F9082201
:100DD00005211E4800F0B0F9082206211B4800F04A
:100DE000ABF908220721194800F0A6F90822174894
:100DF000110000F0A1F910220921144800F09CF91B
:100E0000134B144A1B68934202D0134A934215D1E4
:100E100008220A210D4800F08FF908220B210B4807
:100E200000F08AF90D4800F016FA0D4800F03EF97E
:100E30000C4800F0B3F900F027F810BD0A2203486F
:100E4000110000F079F90A22E8E7C04600400440AA
:100E5000C81600002143658765872143004005408F
:100E60000040034000800540FF23C9011940C0072E
:100E700004D5A0220233D205FF33D150704710B5FC
:100E80000021FFF7F1FF10BD10B500220721074830
:100E900000F052F9A02180228023C905120288584F
:100EA00003438B500120FFF7EAFF10BD00400440D0
:100EB00010B5802800DD8020002340100CD10E24C6
:100EC000064A5B005062116A2340A1430B43136240
:100ED00001235062536210BD0133EEE700800440ED
:100EE0000120034B1B6A1B075B0F98407047C046ED
:100EF0000080044010B50100024800F063FBFFF7DA
:100F0000D7FF10BD00127A0010B5FFF7E9FF01000E
:100F1000014800F057FB10BD00127A0070B50500C3
:100F2000FFF7F2FFFA240100084800F04BFBA40091
:100F30006C430100200000F048FB02B4E138FF38A8
:100F4000011C0339FDDC02BC70BDC04600CA9A3BDF
:100F500010B5002801D0FFF7E1FF10BDFF280CDC21
:100F6000022801DDFE23184000220121044B1860F5
:100F7000044B1A6019601A607047FF20F2E7C04600
:100F8000D8800440D4800440034B0449DA6F084001
:100F90001043D8677047C04604800440FCBF1D0062
:100FA000034A0449D36F08408343D3677047C04660
:100FB00004800440FCBF1D0003231840054B0121A1
:100FC0001A00D03210600022D4331A6019601A60FF
:100FD0007047C046008004400F4910B50B68002BD5
:100FE00019DBC0225B1092055B009B1800220B4CA2
:100FF000A05A98520232402AFAD1094B09483C3A89
:101000001A50FE2406202401186018591042FCD002
:1010100001235B420B6010BDC4020010840200106B
:1010200000400340E80F0000F7B506000F00150070
:101030000193002D00DCF7BD1A4C2368002B0DDA5C
:101040003F23F1171940C0238919891189019B0594
:10105000216040221448C91800F076FA2068002464
:10106000301A3F280DD84034241AAC4200DD2C0041
:101070000D4BC018019B002B0ED02200397800F0D8
:101080006BFA019B3619002B00D13F192D1B002D47
:10109000D1DDFFF7A1FFCCE72200390000F054FAC0
:1010A000EFE7C046C402001084020010C02010B553
:1010B0004003FFF769FF042000F02AF9082000F040
:1010C0003BF96420FFF744FF042000F02BF9FFF701
:1010D0001BFF084B0849C01800F074FA01380028BB
:1010E00000DC01200122054B52425861044B1A607A
:1010F00010BDC046D7B80500D8B805000040034071
:10110000C402001010B5080011001A000023FFF7F8
:101110008BFF10BD10B54020FFF736FF10BD8020BB
:1011200010B5C002FFF730FF10BD0430C36F0901D6
:1011300009098B43C367704770B506000D001400A2
:101140000B2907D9012A05D10B0011000C3B99404E
:10115000FFF7EBFF2402AD00240AAC5170BD4068DC
:10116000C0B27047C905C90D816170478069C0056B
:10117000C00D7047C069C005C00D704730B5082567
:10118000054AC36914682B40C905C90D2343136080
:101190004162416230BDC0463C000010030070B5A2
:1011A000FE22002504000448FC335A60034985618F
:1011B000FFF7E4FF256070BD00800540FF010000DF
:1011C000043101617047FFFFF8B50C4B04000F00BC
:1011D0001600984202D190231B011F43084D2200A4
:1011E0002900084800F09CF90300BB432900334361
:1011F0002200044800F085F9F8BDC0460080034095
:10120000400000102080034010B5140090220843D5
:101210001201024305490648FFF7D6FF0421054B9A
:101220001A698A4322431A6110BDC046FF3FF1FF8D
:101230000080034000ED00E00121414010B5042290
:1012400002204903FFF7E0FF30BF00221100100029
:10125000FFF7DAFF10BD802010B5C000FFF794FE45
:1012600010BDFFFF072310B5034C02000B400348DD
:10127000210000F046F910BD440000102440054054
:10128000020010B50B02034803491B0A0C3200F0A0
:1012900038F910BD2440054044000010020010B58C
:1012A00002490348303200F03BF910BD4400001001
:1012B000244005400200012310B5044C0B400448B3
:1012C0002100143200F01DF910BDC046440000108A
:1012D00024400540020010B503490448183200F0CC
:1012E0001FF90123184010BD4400001024400540A0
:1012F0000200012310B5044C0B40044821002032A9
:1013000000F0FFF810BDC046440000102440054026
:101310000F21034A08405368834353607047C04617
:10132000008004400F21034B08405A681043586066
:101330007047C046008004408E2210B53F24034908
:1013400092008B58204083438B5010BD0080044096
:101350008E2310B53F24034A9B00D15820400843F8
:10136000D05010BD008004408123034AC004C00C4B
:101370009B00D0507047C046008004408223044A3E
:10138000C0049B00C00CD050D1588143D15070474D
:101390000080044010B50800FFF7F6FD10BD0022E4
:1013A0004368426001328260013242608268002AF2
:1013B000FCD143607047FFFF10B504000220FFF727
:1013C000BBFF80204001FFF7DFFD00232360636245
:1013D000073323630833E36080231B02E361014B7F
:1013E000236210BDFF7F0000002310B54362802000
:1013F0004001FFF7D5FD0220FFF7AAFF10BD0E2226
:10140000C3684900114093431943C1607047C068E5
:101410000007400F704701230268134303607047C1
:101420008023020010B5802400685B000002184091
:10143000936AA4005B0223400343E23C9068FF3CB4
:1014400020401843002903D092681206520F0A70F8
:1014500080B210BD406800B27047FFFF0A235843B6
:10146000074B10B5C0184843002806DD4130FF3057
:10147000A021890000F0A6F810BD4138FF38F7E739
:101480002055FDFF072319404162704772B6AA221A
:10149000024B9A60553A9A6062B67047004000402D
:1014A00010B504000020FFF787FDFE20FFF756FD72
:1014B00080200001FFF768FD03220548054B6043CB
:1014C000586019680A431A60FFF7E0FF10BDC04674
:1014D000C21E000000400040BFF34F8F024B034A82
:1014E000DA60BFF34F8FFEE700ED00E00400FA057D
:1014F000A42301220168114202D1013B002BF9D142
:101500007047F8B50D0016001F000400FFF7F0FF4C
:101510002B68200001332B603760FFF7E9FFF8BD2F
:10152000F8B506000C0015000B6801330B603000A5
:10153000FFF7DEFF300027682B68FFF7D9FF286828
:101540002368BB42F3D1F8BD10B500F078F810BDA8
:1015500010B500F08AF810BD10B500F094F810BD79
:1015600010B5FEF789FE10BD0300032110B51A0067
:101570000B4219D1114C1368114959189943214252
:1015800019D0DCB2511C002C0BD0FF242402911C7A
:10159000234206D0FF2109040B40591E8B41D3186A
:1015A000D91C0130081A05E001335C1E2478002C98
:1015B000DDD1101A10BD0432DDE7C0468080808086
:1015C000FFFEFEFE03000B4321D4002931D001228F
:1015D000D207030901E0090112099942FBD9430826
:1015E00001E0490052089942FBD900E04908401A3D
:1015F00007D35241FAD301461046704749084018B4
:10160000F7D29218FAD34018014610467047CB0F14
:1016100000D04942021000D54042534008B5FFF7C0
:10162000D4FF0CBC521000D34042002A00D54942DE
:101630001847F446002000F001F8604770478446E0
:10164000830708D18B0706D1131F04D304C904C034
:10165000043BFBD21A1D524205D0891A801A8B5CBA
:1016600083540132FBD160467047884207D98B18FA
:10167000834204D9013A8B5C8354FBD1704700B597
:10168000FFF7DDFF00BD8446043A09D3830707D185
:1016900009060B0A19430B0C1943043A02C0FCD289
:1016A000043203D001700130013AFBD1604670472B
:1016B000746578742F706C61696E00FF0103E80E29
:0816C00046FD010003000000DB
:0416C800FFFFFFFF22
:0416CC0053030000C4
:04000003000002E116
:00000001FF
